{
  "_format": "hh-sol-artifact-1",
  "contractName": "EticaRelease",
  "sourceName": "contracts/EticaRelease.sol",
  "abi": [
    {
      "inputs": [
        {
          "internalType": "uint256",
          "name": "x",
          "type": "uint256"
        },
        {
          "internalType": "uint256",
          "name": "y",
          "type": "uint256"
        }
      ],
      "name": "PRBMath_MulDiv18_Overflow",
      "type": "error"
    },
    {
      "inputs": [
        {
          "internalType": "UD60x18",
          "name": "x",
          "type": "uint256"
        }
      ],
      "name": "PRBMath_UD60x18_Exp2_InputTooBig",
      "type": "error"
    },
    {
      "inputs": [
        {
          "internalType": "UD60x18",
          "name": "x",
          "type": "uint256"
        }
      ],
      "name": "PRBMath_UD60x18_Log_InputTooSmall",
      "type": "error"
    },
    {
      "anonymous": false,
      "inputs": [
        {
          "indexed": true,
          "internalType": "address",
          "name": "tokenOwner",
          "type": "address"
        },
        {
          "indexed": true,
          "internalType": "address",
          "name": "spender",
          "type": "address"
        },
        {
          "indexed": false,
          "internalType": "uint256",
          "name": "tokens",
          "type": "uint256"
        }
      ],
      "name": "Approval",
      "type": "event"
    },
    {
      "anonymous": false,
      "inputs": [
        {
          "indexed": true,
          "internalType": "uint256",
          "name": "period_id",
          "type": "uint256"
        },
        {
          "indexed": false,
          "internalType": "uint256",
          "name": "interval",
          "type": "uint256"
        }
      ],
      "name": "CreatedPeriod",
      "type": "event"
    },
    {
      "anonymous": false,
      "inputs": [
        {
          "indexed": true,
          "internalType": "address",
          "name": "from",
          "type": "address"
        },
        {
          "indexed": false,
          "internalType": "uint256",
          "name": "blockreward",
          "type": "uint256"
        },
        {
          "indexed": false,
          "internalType": "uint256",
          "name": "epochCount",
          "type": "uint256"
        },
        {
          "indexed": false,
          "internalType": "bytes32",
          "name": "newChallengeNumber",
          "type": "bytes32"
        }
      ],
      "name": "Mint",
      "type": "event"
    },
    {
      "anonymous": false,
      "inputs": [
        {
          "indexed": true,
          "internalType": "uint256",
          "name": "chunkid",
          "type": "uint256"
        },
        {
          "indexed": true,
          "internalType": "bytes32",
          "name": "diseasehash",
          "type": "bytes32"
        }
      ],
      "name": "NewChunk",
      "type": "event"
    },
    {
      "anonymous": false,
      "inputs": [
        {
          "indexed": true,
          "internalType": "address",
          "name": "_voter",
          "type": "address"
        },
        {
          "indexed": false,
          "internalType": "bytes32",
          "name": "votehash",
          "type": "bytes32"
        },
        {
          "indexed": false,
          "internalType": "uint256",
          "name": "amount",
          "type": "uint256"
        }
      ],
      "name": "NewCommit",
      "type": "event"
    },
    {
      "anonymous": false,
      "inputs": [
        {
          "indexed": true,
          "internalType": "uint256",
          "name": "diseaseindex",
          "type": "uint256"
        },
        {
          "indexed": false,
          "internalType": "string",
          "name": "title",
          "type": "string"
        }
      ],
      "name": "NewDisease",
      "type": "event"
    },
    {
      "anonymous": false,
      "inputs": [
        {
          "indexed": true,
          "internalType": "address",
          "name": "voter",
          "type": "address"
        },
        {
          "indexed": false,
          "internalType": "uint256",
          "name": "fee",
          "type": "uint256"
        },
        {
          "indexed": false,
          "internalType": "bytes32",
          "name": "proposal_hash",
          "type": "bytes32"
        }
      ],
      "name": "NewFee",
      "type": "event"
    },
    {
      "anonymous": false,
      "inputs": [
        {
          "indexed": false,
          "internalType": "bytes32",
          "name": "proposed_release_hash",
          "type": "bytes32"
        },
        {
          "indexed": true,
          "internalType": "address",
          "name": "_proposer",
          "type": "address"
        },
        {
          "indexed": true,
          "internalType": "bytes32",
          "name": "diseasehash",
          "type": "bytes32"
        },
        {
          "indexed": true,
          "internalType": "uint256",
          "name": "chunkid",
          "type": "uint256"
        }
      ],
      "name": "NewProposal",
      "type": "event"
    },
    {
      "anonymous": false,
      "inputs": [
        {
          "indexed": true,
          "internalType": "address",
          "name": "_voter",
          "type": "address"
        },
        {
          "indexed": true,
          "internalType": "bytes32",
          "name": "_proposal",
          "type": "bytes32"
        },
        {
          "indexed": false,
          "internalType": "uint256",
          "name": "amount",
          "type": "uint256"
        }
      ],
      "name": "NewRecover",
      "type": "event"
    },
    {
      "anonymous": false,
      "inputs": [
        {
          "indexed": true,
          "internalType": "address",
          "name": "_voter",
          "type": "address"
        },
        {
          "indexed": true,
          "internalType": "bytes32",
          "name": "_proposal",
          "type": "bytes32"
        },
        {
          "indexed": false,
          "internalType": "uint256",
          "name": "amount",
          "type": "uint256"
        }
      ],
      "name": "NewReveal",
      "type": "event"
    },
    {
      "anonymous": false,
      "inputs": [
        {
          "indexed": true,
          "internalType": "address",
          "name": "voter",
          "type": "address"
        },
        {
          "indexed": false,
          "internalType": "uint256",
          "name": "amount",
          "type": "uint256"
        },
        {
          "indexed": false,
          "internalType": "bytes32",
          "name": "proposal_hash",
          "type": "bytes32"
        },
        {
          "indexed": false,
          "internalType": "uint256",
          "name": "duration",
          "type": "uint256"
        }
      ],
      "name": "NewSlash",
      "type": "event"
    },
    {
      "anonymous": false,
      "inputs": [
        {
          "indexed": true,
          "internalType": "address",
          "name": "staker",
          "type": "address"
        },
        {
          "indexed": false,
          "internalType": "uint256",
          "name": "amount",
          "type": "uint256"
        }
      ],
      "name": "NewStake",
      "type": "event"
    },
    {
      "anonymous": false,
      "inputs": [
        {
          "indexed": true,
          "internalType": "address",
          "name": "staker",
          "type": "address"
        },
        {
          "indexed": false,
          "internalType": "uint256",
          "name": "endtime",
          "type": "uint256"
        },
        {
          "indexed": false,
          "internalType": "uint256",
          "name": "minlimit",
          "type": "uint256"
        }
      ],
      "name": "NewStakescsldt",
      "type": "event"
    },
    {
      "anonymous": false,
      "inputs": [
        {
          "indexed": true,
          "internalType": "address",
          "name": "staker",
          "type": "address"
        },
        {
          "indexed": false,
          "internalType": "uint256",
          "name": "snapamount",
          "type": "uint256"
        }
      ],
      "name": "NewStakesnap",
      "type": "event"
    },
    {
      "anonymous": false,
      "inputs": [
        {
          "indexed": true,
          "internalType": "address",
          "name": "voter",
          "type": "address"
        },
        {
          "indexed": false,
          "internalType": "uint256",
          "name": "amount",
          "type": "uint256"
        },
        {
          "indexed": false,
          "internalType": "bytes32",
          "name": "proposal_hash",
          "type": "bytes32"
        }
      ],
      "name": "RewardClaimed",
      "type": "event"
    },
    {
      "anonymous": false,
      "inputs": [
        {
          "indexed": true,
          "internalType": "address",
          "name": "staker",
          "type": "address"
        },
        {
          "indexed": false,
          "internalType": "uint256",
          "name": "stakeamount",
          "type": "uint256"
        }
      ],
      "name": "StakeClaimed",
      "type": "event"
    },
    {
      "anonymous": false,
      "inputs": [
        {
          "indexed": true,
          "internalType": "address",
          "name": "voter",
          "type": "address"
        },
        {
          "indexed": false,
          "internalType": "bytes32",
          "name": "proposal_hash",
          "type": "bytes32"
        }
      ],
      "name": "TieClaimed",
      "type": "event"
    },
    {
      "anonymous": false,
      "inputs": [
        {
          "indexed": true,
          "internalType": "address",
          "name": "from",
          "type": "address"
        },
        {
          "indexed": true,
          "internalType": "address",
          "name": "to",
          "type": "address"
        },
        {
          "indexed": false,
          "internalType": "uint256",
          "name": "tokens",
          "type": "uint256"
        }
      ],
      "name": "Transfer",
      "type": "event"
    },
    {
      "inputs": [],
      "name": "APPROVAL_THRESHOLD",
      "outputs": [
        {
          "internalType": "uint256",
          "name": "",
          "type": "uint256"
        }
      ],
      "stateMutability": "view",
      "type": "function"
    },
    {
      "inputs": [],
      "name": "DEFAULT_EXTRA_TIME",
      "outputs": [
        {
          "internalType": "uint256",
          "name": "",
          "type": "uint256"
        }
      ],
      "stateMutability": "view",
      "type": "function"
    },
    {
      "inputs": [],
      "name": "DEFAULT_REVEALING_TIME",
      "outputs": [
        {
          "internalType": "uint256",
          "name": "",
          "type": "uint256"
        }
      ],
      "stateMutability": "view",
      "type": "function"
    },
    {
      "inputs": [],
      "name": "DEFAULT_VOTING_TIME",
      "outputs": [
        {
          "internalType": "uint256",
          "name": "",
          "type": "uint256"
        }
      ],
      "stateMutability": "view",
      "type": "function"
    },
    {
      "inputs": [],
      "name": "DISEASE_CREATION_AMOUNT",
      "outputs": [
        {
          "internalType": "uint256",
          "name": "",
          "type": "uint256"
        }
      ],
      "stateMutability": "view",
      "type": "function"
    },
    {
      "inputs": [
        {
          "internalType": "uint256",
          "name": "",
          "type": "uint256"
        }
      ],
      "name": "IntervalsPeriods",
      "outputs": [
        {
          "internalType": "uint256",
          "name": "",
          "type": "uint256"
        }
      ],
      "stateMutability": "view",
      "type": "function"
    },
    {
      "inputs": [],
      "name": "IntervalsPeriodsCounter",
      "outputs": [
        {
          "internalType": "uint256",
          "name": "",
          "type": "uint256"
        }
      ],
      "stateMutability": "view",
      "type": "function"
    },
    {
      "inputs": [],
      "name": "LAST_PERIOD_COST_UPDATE",
      "outputs": [
        {
          "internalType": "uint256",
          "name": "",
          "type": "uint256"
        }
      ],
      "stateMutability": "view",
      "type": "function"
    },
    {
      "inputs": [],
      "name": "PERIODS_PER_THRESHOLD",
      "outputs": [
        {
          "internalType": "uint256",
          "name": "",
          "type": "uint256"
        }
      ],
      "stateMutability": "view",
      "type": "function"
    },
    {
      "inputs": [],
      "name": "PERIOD_CURATION_REWARD_RATIO",
      "outputs": [
        {
          "internalType": "uint256",
          "name": "",
          "type": "uint256"
        }
      ],
      "stateMutability": "view",
      "type": "function"
    },
    {
      "inputs": [],
      "name": "PERIOD_EDITOR_REWARD_RATIO",
      "outputs": [
        {
          "internalType": "uint256",
          "name": "",
          "type": "uint256"
        }
      ],
      "stateMutability": "view",
      "type": "function"
    },
    {
      "inputs": [],
      "name": "PROPOSAL_DEFAULT_VOTE",
      "outputs": [
        {
          "internalType": "uint256",
          "name": "",
          "type": "uint256"
        }
      ],
      "stateMutability": "view",
      "type": "function"
    },
    {
      "inputs": [],
      "name": "PROPOSERS_INCREASER",
      "outputs": [
        {
          "internalType": "uint256",
          "name": "",
          "type": "uint256"
        }
      ],
      "stateMutability": "view",
      "type": "function"
    },
    {
      "inputs": [],
      "name": "PROTOCOL_RATIO_TARGET",
      "outputs": [
        {
          "internalType": "uint256",
          "name": "",
          "type": "uint256"
        }
      ],
      "stateMutability": "view",
      "type": "function"
    },
    {
      "inputs": [
        {
          "internalType": "uint256",
          "name": "",
          "type": "uint256"
        }
      ],
      "name": "PeriodsIssued",
      "outputs": [
        {
          "internalType": "uint256",
          "name": "",
          "type": "uint256"
        }
      ],
      "stateMutability": "view",
      "type": "function"
    },
    {
      "inputs": [],
      "name": "PeriodsIssuedCounter",
      "outputs": [
        {
          "internalType": "uint256",
          "name": "",
          "type": "uint256"
        }
      ],
      "stateMutability": "view",
      "type": "function"
    },
    {
      "inputs": [],
      "name": "REWARD_INTERVAL",
      "outputs": [
        {
          "internalType": "uint256",
          "name": "",
          "type": "uint256"
        }
      ],
      "stateMutability": "view",
      "type": "function"
    },
    {
      "inputs": [],
      "name": "SEVERITY_LEVEL",
      "outputs": [
        {
          "internalType": "uint256",
          "name": "",
          "type": "uint256"
        }
      ],
      "stateMutability": "view",
      "type": "function"
    },
    {
      "inputs": [],
      "name": "STAKING_DURATION",
      "outputs": [
        {
          "internalType": "uint256",
          "name": "",
          "type": "uint256"
        }
      ],
      "stateMutability": "view",
      "type": "function"
    },
    {
      "inputs": [],
      "name": "UNRECOVERABLE_ETI",
      "outputs": [
        {
          "internalType": "uint256",
          "name": "",
          "type": "uint256"
        }
      ],
      "stateMutability": "view",
      "type": "function"
    },
    {
      "inputs": [],
      "name": "UPDATEDV2",
      "outputs": [
        {
          "internalType": "bool",
          "name": "",
          "type": "bool"
        }
      ],
      "stateMutability": "view",
      "type": "function"
    },
    {
      "inputs": [],
      "name": "UPDATEDV3",
      "outputs": [
        {
          "internalType": "bool",
          "name": "",
          "type": "bool"
        }
      ],
      "stateMutability": "view",
      "type": "function"
    },
    {
      "inputs": [],
      "name": "_BLOCKS_PER_READJUSTMENT",
      "outputs": [
        {
          "internalType": "uint256",
          "name": "",
          "type": "uint256"
        }
      ],
      "stateMutability": "view",
      "type": "function"
    },
    {
      "inputs": [],
      "name": "_MAXIMUM_TARGET",
      "outputs": [
        {
          "internalType": "uint256",
          "name": "",
          "type": "uint256"
        }
      ],
      "stateMutability": "view",
      "type": "function"
    },
    {
      "inputs": [],
      "name": "_MINIMUM_TARGET",
      "outputs": [
        {
          "internalType": "uint256",
          "name": "",
          "type": "uint256"
        }
      ],
      "stateMutability": "view",
      "type": "function"
    },
    {
      "inputs": [],
      "name": "_totalMiningSupply",
      "outputs": [
        {
          "internalType": "uint256",
          "name": "",
          "type": "uint256"
        }
      ],
      "stateMutability": "view",
      "type": "function"
    },
    {
      "inputs": [],
      "name": "accessibleSupply",
      "outputs": [
        {
          "internalType": "uint256",
          "name": "",
          "type": "uint256"
        }
      ],
      "stateMutability": "view",
      "type": "function"
    },
    {
      "inputs": [
        {
          "internalType": "address",
          "name": "tokenOwner",
          "type": "address"
        },
        {
          "internalType": "address",
          "name": "spender",
          "type": "address"
        }
      ],
      "name": "allowance",
      "outputs": [
        {
          "internalType": "uint256",
          "name": "",
          "type": "uint256"
        }
      ],
      "stateMutability": "view",
      "type": "function"
    },
    {
      "inputs": [
        {
          "internalType": "address",
          "name": "spender",
          "type": "address"
        },
        {
          "internalType": "uint256",
          "name": "tokens",
          "type": "uint256"
        }
      ],
      "name": "approve",
      "outputs": [
        {
          "internalType": "bool",
          "name": "",
          "type": "bool"
        }
      ],
      "stateMutability": "nonpayable",
      "type": "function"
    },
    {
      "inputs": [
        {
          "internalType": "address",
          "name": "tokenOwner",
          "type": "address"
        }
      ],
      "name": "balanceOf",
      "outputs": [
        {
          "internalType": "uint256",
          "name": "balance",
          "type": "uint256"
        }
      ],
      "stateMutability": "view",
      "type": "function"
    },
    {
      "inputs": [
        {
          "internalType": "address",
          "name": "",
          "type": "address"
        }
      ],
      "name": "balances",
      "outputs": [
        {
          "internalType": "uint256",
          "name": "",
          "type": "uint256"
        }
      ],
      "stateMutability": "view",
      "type": "function"
    },
    {
      "inputs": [
        {
          "internalType": "address",
          "name": "",
          "type": "address"
        }
      ],
      "name": "blockedeticas",
      "outputs": [
        {
          "internalType": "uint256",
          "name": "",
          "type": "uint256"
        }
      ],
      "stateMutability": "view",
      "type": "function"
    },
    {
      "inputs": [],
      "name": "blockreward",
      "outputs": [
        {
          "internalType": "uint256",
          "name": "",
          "type": "uint256"
        }
      ],
      "stateMutability": "view",
      "type": "function"
    },
    {
      "inputs": [
        {
          "internalType": "address",
          "name": "",
          "type": "address"
        }
      ],
      "name": "bosoms",
      "outputs": [
        {
          "internalType": "uint256",
          "name": "",
          "type": "uint256"
        }
      ],
      "stateMutability": "view",
      "type": "function"
    },
    {
      "inputs": [
        {
          "internalType": "address",
          "name": "tokenOwner",
          "type": "address"
        }
      ],
      "name": "bosomsOf",
      "outputs": [
        {
          "internalType": "uint256",
          "name": "_bosoms",
          "type": "uint256"
        }
      ],
      "stateMutability": "view",
      "type": "function"
    },
    {
      "inputs": [],
      "name": "challengeNumber",
      "outputs": [
        {
          "internalType": "bytes32",
          "name": "",
          "type": "bytes32"
        }
      ],
      "stateMutability": "view",
      "type": "function"
    },
    {
      "inputs": [
        {
          "internalType": "uint256",
          "name": "nonce",
          "type": "uint256"
        },
        {
          "internalType": "bytes32",
          "name": "challenge_digest",
          "type": "bytes32"
        },
        {
          "internalType": "bytes32",
          "name": "challenge_number",
          "type": "bytes32"
        },
        {
          "internalType": "uint256",
          "name": "testTarget",
          "type": "uint256"
        }
      ],
      "name": "checkMintSolution",
      "outputs": [
        {
          "internalType": "bool",
          "name": "success",
          "type": "bool"
        }
      ],
      "stateMutability": "view",
      "type": "function"
    },
    {
      "inputs": [
        {
          "internalType": "uint256",
          "name": "",
          "type": "uint256"
        }
      ],
      "name": "chunkProposalsCounter",
      "outputs": [
        {
          "internalType": "uint256",
          "name": "",
          "type": "uint256"
        }
      ],
      "stateMutability": "view",
      "type": "function"
    },
    {
      "inputs": [
        {
          "internalType": "uint256",
          "name": "",
          "type": "uint256"
        },
        {
          "internalType": "uint256",
          "name": "",
          "type": "uint256"
        }
      ],
      "name": "chunkproposals",
      "outputs": [
        {
          "internalType": "bytes32",
          "name": "",
          "type": "bytes32"
        }
      ],
      "stateMutability": "view",
      "type": "function"
    },
    {
      "inputs": [
        {
          "internalType": "uint256",
          "name": "",
          "type": "uint256"
        }
      ],
      "name": "chunks",
      "outputs": [
        {
          "internalType": "uint256",
          "name": "id",
          "type": "uint256"
        },
        {
          "internalType": "bytes32",
          "name": "diseaseid",
          "type": "bytes32"
        },
        {
          "internalType": "uint256",
          "name": "idx",
          "type": "uint256"
        },
        {
          "internalType": "string",
          "name": "title",
          "type": "string"
        },
        {
          "internalType": "string",
          "name": "desc",
          "type": "string"
        }
      ],
      "stateMutability": "view",
      "type": "function"
    },
    {
      "inputs": [],
      "name": "chunksCounter",
      "outputs": [
        {
          "internalType": "uint256",
          "name": "",
          "type": "uint256"
        }
      ],
      "stateMutability": "view",
      "type": "function"
    },
    {
      "inputs": [
        {
          "internalType": "bytes32",
          "name": "_proposed_release_hash",
          "type": "bytes32"
        }
      ],
      "name": "clmpropbyhash",
      "outputs": [],
      "stateMutability": "nonpayable",
      "type": "function"
    },
    {
      "inputs": [
        {
          "internalType": "address",
          "name": "",
          "type": "address"
        },
        {
          "internalType": "bytes32",
          "name": "",
          "type": "bytes32"
        }
      ],
      "name": "commits",
      "outputs": [
        {
          "internalType": "uint256",
          "name": "amount",
          "type": "uint256"
        },
        {
          "internalType": "uint256",
          "name": "timestamp",
          "type": "uint256"
        }
      ],
      "stateMutability": "view",
      "type": "function"
    },
    {
      "inputs": [
        {
          "internalType": "uint256",
          "name": "_amount",
          "type": "uint256"
        },
        {
          "internalType": "bytes32",
          "name": "_votehash",
          "type": "bytes32"
        }
      ],
      "name": "commitvote",
      "outputs": [],
      "stateMutability": "nonpayable",
      "type": "function"
    },
    {
      "inputs": [
        {
          "internalType": "bytes32",
          "name": "_diseasehash",
          "type": "bytes32"
        },
        {
          "internalType": "string",
          "name": "_title",
          "type": "string"
        },
        {
          "internalType": "string",
          "name": "_description",
          "type": "string"
        }
      ],
      "name": "createchunk",
      "outputs": [],
      "stateMutability": "nonpayable",
      "type": "function"
    },
    {
      "inputs": [
        {
          "internalType": "string",
          "name": "_name",
          "type": "string"
        }
      ],
      "name": "createdisease",
      "outputs": [],
      "stateMutability": "nonpayable",
      "type": "function"
    },
    {
      "inputs": [],
      "name": "decimals",
      "outputs": [
        {
          "internalType": "uint256",
          "name": "",
          "type": "uint256"
        }
      ],
      "stateMutability": "view",
      "type": "function"
    },
    {
      "inputs": [
        {
          "internalType": "bytes32",
          "name": "",
          "type": "bytes32"
        }
      ],
      "name": "diseaseChunksCounter",
      "outputs": [
        {
          "internalType": "uint256",
          "name": "",
          "type": "uint256"
        }
      ],
      "stateMutability": "view",
      "type": "function"
    },
    {
      "inputs": [
        {
          "internalType": "bytes32",
          "name": "",
          "type": "bytes32"
        }
      ],
      "name": "diseaseProposalsCounter",
      "outputs": [
        {
          "internalType": "uint256",
          "name": "",
          "type": "uint256"
        }
      ],
      "stateMutability": "view",
      "type": "function"
    },
    {
      "inputs": [
        {
          "internalType": "bytes32",
          "name": "",
          "type": "bytes32"
        },
        {
          "internalType": "uint256",
          "name": "",
          "type": "uint256"
        }
      ],
      "name": "diseasechunks",
      "outputs": [
        {
          "internalType": "uint256",
          "name": "",
          "type": "uint256"
        }
      ],
      "stateMutability": "view",
      "type": "function"
    },
    {
      "inputs": [
        {
          "internalType": "bytes32",
          "name": "",
          "type": "bytes32"
        },
        {
          "internalType": "uint256",
          "name": "",
          "type": "uint256"
        }
      ],
      "name": "diseaseproposals",
      "outputs": [
        {
          "internalType": "bytes32",
          "name": "",
          "type": "bytes32"
        }
      ],
      "stateMutability": "view",
      "type": "function"
    },
    {
      "inputs": [
        {
          "internalType": "uint256",
          "name": "",
          "type": "uint256"
        }
      ],
      "name": "diseases",
      "outputs": [
        {
          "internalType": "bytes32",
          "name": "disease_hash",
          "type": "bytes32"
        },
        {
          "internalType": "string",
          "name": "name",
          "type": "string"
        }
      ],
      "stateMutability": "view",
      "type": "function"
    },
    {
      "inputs": [],
      "name": "diseasesCounter",
      "outputs": [
        {
          "internalType": "uint256",
          "name": "",
          "type": "uint256"
        }
      ],
      "stateMutability": "view",
      "type": "function"
    },
    {
      "inputs": [
        {
          "internalType": "bytes32",
          "name": "",
          "type": "bytes32"
        }
      ],
      "name": "diseasesbyIds",
      "outputs": [
        {
          "internalType": "uint256",
          "name": "",
          "type": "uint256"
        }
      ],
      "stateMutability": "view",
      "type": "function"
    },
    {
      "inputs": [],
      "name": "epochCount",
      "outputs": [
        {
          "internalType": "uint256",
          "name": "",
          "type": "uint256"
        }
      ],
      "stateMutability": "view",
      "type": "function"
    },
    {
      "inputs": [
        {
          "internalType": "address",
          "name": "_staker",
          "type": "address"
        },
        {
          "internalType": "uint256",
          "name": "_amount",
          "type": "uint256"
        }
      ],
      "name": "eticatobosoms",
      "outputs": [
        {
          "internalType": "bool",
          "name": "success",
          "type": "bool"
        }
      ],
      "stateMutability": "nonpayable",
      "type": "function"
    },
    {
      "inputs": [],
      "name": "getChallengeNumber",
      "outputs": [
        {
          "internalType": "bytes32",
          "name": "",
          "type": "bytes32"
        }
      ],
      "stateMutability": "view",
      "type": "function"
    },
    {
      "inputs": [],
      "name": "getMiningDifficulty",
      "outputs": [
        {
          "internalType": "uint256",
          "name": "",
          "type": "uint256"
        }
      ],
      "stateMutability": "view",
      "type": "function"
    },
    {
      "inputs": [],
      "name": "getMiningReward",
      "outputs": [
        {
          "internalType": "uint256",
          "name": "",
          "type": "uint256"
        }
      ],
      "stateMutability": "view",
      "type": "function"
    },
    {
      "inputs": [],
      "name": "getMiningTarget",
      "outputs": [
        {
          "internalType": "uint256",
          "name": "",
          "type": "uint256"
        }
      ],
      "stateMutability": "view",
      "type": "function"
    },
    {
      "inputs": [
        {
          "internalType": "uint256",
          "name": "nonce",
          "type": "uint256"
        },
        {
          "internalType": "bytes32",
          "name": "challenge_digest",
          "type": "bytes32"
        },
        {
          "internalType": "bytes32",
          "name": "challenge_number",
          "type": "bytes32"
        }
      ],
      "name": "getMintDigest",
      "outputs": [
        {
          "internalType": "bytes32",
          "name": "digesttest",
          "type": "bytes32"
        }
      ],
      "stateMutability": "view",
      "type": "function"
    },
    {
      "inputs": [
        {
          "internalType": "string",
          "name": "_name",
          "type": "string"
        }
      ],
      "name": "getdiseasehashbyName",
      "outputs": [
        {
          "internalType": "bytes32",
          "name": "_diseasehash",
          "type": "bytes32"
        }
      ],
      "stateMutability": "view",
      "type": "function"
    },
    {
      "inputs": [],
      "name": "inflationrate",
      "outputs": [
        {
          "internalType": "uint256",
          "name": "",
          "type": "uint256"
        }
      ],
      "stateMutability": "view",
      "type": "function"
    },
    {
      "inputs": [],
      "name": "initiatormsg",
      "outputs": [
        {
          "internalType": "string",
          "name": "",
          "type": "string"
        }
      ],
      "stateMutability": "view",
      "type": "function"
    },
    {
      "inputs": [],
      "name": "lastRewardEthBlockNumber",
      "outputs": [
        {
          "internalType": "uint256",
          "name": "",
          "type": "uint256"
        }
      ],
      "stateMutability": "view",
      "type": "function"
    },
    {
      "inputs": [],
      "name": "lastRewardTo",
      "outputs": [
        {
          "internalType": "address",
          "name": "",
          "type": "address"
        }
      ],
      "stateMutability": "view",
      "type": "function"
    },
    {
      "inputs": [],
      "name": "latestDifficultyPeriodStarted",
      "outputs": [
        {
          "internalType": "uint256",
          "name": "",
          "type": "uint256"
        }
      ],
      "stateMutability": "view",
      "type": "function"
    },
    {
      "inputs": [],
      "name": "miningTarget",
      "outputs": [
        {
          "internalType": "uint256",
          "name": "",
          "type": "uint256"
        }
      ],
      "stateMutability": "view",
      "type": "function"
    },
    {
      "inputs": [
        {
          "internalType": "uint256",
          "name": "nonce",
          "type": "uint256"
        },
        {
          "internalType": "bytes32",
          "name": "challenge_digest",
          "type": "bytes32"
        }
      ],
      "name": "mint",
      "outputs": [
        {
          "internalType": "bool",
          "name": "success",
          "type": "bool"
        }
      ],
      "stateMutability": "nonpayable",
      "type": "function"
    },
    {
      "inputs": [
        {
          "internalType": "bytes4",
          "name": "nonce",
          "type": "bytes4"
        },
        {
          "internalType": "bytes",
          "name": "blockHeader",
          "type": "bytes"
        },
        {
          "internalType": "bytes32",
          "name": "currentChallenge",
          "type": "bytes32"
        },
        {
          "internalType": "bytes",
          "name": "randomxHash",
          "type": "bytes"
        },
        {
          "internalType": "uint256",
          "name": "claimedTarget",
          "type": "uint256"
        },
        {
          "internalType": "bytes",
          "name": "seedHash",
          "type": "bytes"
        },
        {
          "internalType": "bytes8",
          "name": "extraNonce",
          "type": "bytes8"
        }
      ],
      "name": "mintrandomX",
      "outputs": [
        {
          "internalType": "bool",
          "name": "success",
          "type": "bool"
        }
      ],
      "stateMutability": "nonpayable",
      "type": "function"
    },
    {
      "inputs": [],
      "name": "name",
      "outputs": [
        {
          "internalType": "string",
          "name": "",
          "type": "string"
        }
      ],
      "stateMutability": "view",
      "type": "function"
    },
    {
      "inputs": [],
      "name": "periodrewardtemp",
      "outputs": [
        {
          "internalType": "uint256",
          "name": "",
          "type": "uint256"
        }
      ],
      "stateMutability": "view",
      "type": "function"
    },
    {
      "inputs": [
        {
          "internalType": "uint256",
          "name": "",
          "type": "uint256"
        }
      ],
      "name": "periods",
      "outputs": [
        {
          "internalType": "uint256",
          "name": "id",
          "type": "uint256"
        },
        {
          "internalType": "uint256",
          "name": "interval",
          "type": "uint256"
        },
        {
          "internalType": "uint256",
          "name": "curation_sum",
          "type": "uint256"
        },
        {
          "internalType": "uint256",
          "name": "editor_sum",
          "type": "uint256"
        },
        {
          "internalType": "uint256",
          "name": "reward_for_curation",
          "type": "uint256"
        },
        {
          "internalType": "uint256",
          "name": "reward_for_editor",
          "type": "uint256"
        },
        {
          "internalType": "uint256",
          "name": "forprops",
          "type": "uint256"
        },
        {
          "internalType": "uint256",
          "name": "againstprops",
          "type": "uint256"
        }
      ],
      "stateMutability": "view",
      "type": "function"
    },
    {
      "inputs": [],
      "name": "periodsCounter",
      "outputs": [
        {
          "internalType": "uint256",
          "name": "",
          "type": "uint256"
        }
      ],
      "stateMutability": "view",
      "type": "function"
    },
    {
      "inputs": [
        {
          "internalType": "bytes32",
          "name": "",
          "type": "bytes32"
        }
      ],
      "name": "proposals",
      "outputs": [
        {
          "internalType": "uint256",
          "name": "id",
          "type": "uint256"
        },
        {
          "internalType": "bytes32",
          "name": "proposed_release_hash",
          "type": "bytes32"
        },
        {
          "internalType": "bytes32",
          "name": "disease_id",
          "type": "bytes32"
        },
        {
          "internalType": "uint256",
          "name": "period_id",
          "type": "uint256"
        },
        {
          "internalType": "uint256",
          "name": "chunk_id",
          "type": "uint256"
        },
        {
          "internalType": "address",
          "name": "proposer",
          "type": "address"
        },
        {
          "internalType": "string",
          "name": "title",
          "type": "string"
        },
        {
          "internalType": "string",
          "name": "description",
          "type": "string"
        },
        {
          "internalType": "string",
          "name": "freefield",
          "type": "string"
        },
        {
          "internalType": "string",
          "name": "raw_release_hash",
          "type": "string"
        }
      ],
      "stateMutability": "view",
      "type": "function"
    },
    {
      "inputs": [],
      "name": "proposalsCounter",
      "outputs": [
        {
          "internalType": "uint256",
          "name": "",
          "type": "uint256"
        }
      ],
      "stateMutability": "view",
      "type": "function"
    },
    {
      "inputs": [
        {
          "internalType": "uint256",
          "name": "",
          "type": "uint256"
        }
      ],
      "name": "proposalsbyIndex",
      "outputs": [
        {
          "internalType": "bytes32",
          "name": "",
          "type": "bytes32"
        }
      ],
      "stateMutability": "view",
      "type": "function"
    },
    {
      "inputs": [
        {
          "internalType": "bytes32",
          "name": "_diseasehash",
          "type": "bytes32"
        },
        {
          "internalType": "string",
          "name": "_title",
          "type": "string"
        },
        {
          "internalType": "string",
          "name": "_description",
          "type": "string"
        },
        {
          "internalType": "string",
          "name": "raw_release_hash",
          "type": "string"
        },
        {
          "internalType": "string",
          "name": "_freefield",
          "type": "string"
        },
        {
          "internalType": "uint256",
          "name": "_chunkid",
          "type": "uint256"
        }
      ],
      "name": "propose",
      "outputs": [],
      "stateMutability": "nonpayable",
      "type": "function"
    },
    {
      "inputs": [
        {
          "internalType": "bytes32",
          "name": "",
          "type": "bytes32"
        }
      ],
      "name": "propsdatas",
      "outputs": [
        {
          "internalType": "uint256",
          "name": "starttime",
          "type": "uint256"
        },
        {
          "internalType": "uint256",
          "name": "endtime",
          "type": "uint256"
        },
        {
          "internalType": "uint256",
          "name": "finalized_time",
          "type": "uint256"
        },
        {
          "internalType": "enum EticaRelease.ProposalStatus",
          "name": "status",
          "type": "uint8"
        },
        {
          "internalType": "enum EticaRelease.ProposalStatus",
          "name": "prestatus",
          "type": "uint8"
        },
        {
          "internalType": "bool",
          "name": "istie",
          "type": "bool"
        },
        {
          "internalType": "uint256",
          "name": "nbvoters",
          "type": "uint256"
        },
        {
          "internalType": "uint256",
          "name": "slashingratio",
          "type": "uint256"
        },
        {
          "internalType": "uint256",
          "name": "forvotes",
          "type": "uint256"
        },
        {
          "internalType": "uint256",
          "name": "againstvotes",
          "type": "uint256"
        },
        {
          "internalType": "uint256",
          "name": "lastcuration_weight",
          "type": "uint256"
        },
        {
          "internalType": "uint256",
          "name": "lasteditor_weight",
          "type": "uint256"
        },
        {
          "internalType": "uint256",
          "name": "approvalthreshold",
          "type": "uint256"
        }
      ],
      "stateMutability": "view",
      "type": "function"
    },
    {
      "inputs": [
        {
          "internalType": "address",
          "name": "",
          "type": "address"
        },
        {
          "internalType": "bytes32",
          "name": "",
          "type": "bytes32"
        }
      ],
      "name": "qamounts",
      "outputs": [
        {
          "internalType": "uint256",
          "name": "amount",
          "type": "uint256"
        }
      ],
      "stateMutability": "view",
      "type": "function"
    },
    {
      "inputs": [],
      "name": "randomxBlob",
      "outputs": [
        {
          "internalType": "bytes",
          "name": "",
          "type": "bytes"
        }
      ],
      "stateMutability": "view",
      "type": "function"
    },
    {
      "inputs": [
        {
          "internalType": "bytes32",
          "name": "",
          "type": "bytes32"
        },
        {
          "internalType": "address",
          "name": "",
          "type": "address"
        }
      ],
      "name": "randomxSealSolutions",
      "outputs": [
        {
          "internalType": "bytes32",
          "name": "",
          "type": "bytes32"
        }
      ],
      "stateMutability": "view",
      "type": "function"
    },
    {
      "inputs": [],
      "name": "randomxSeedhash",
      "outputs": [
        {
          "internalType": "bytes",
          "name": "",
          "type": "bytes"
        }
      ],
      "stateMutability": "view",
      "type": "function"
    },
    {
      "inputs": [
        {
          "internalType": "bytes32",
          "name": "_proposed_release_hash",
          "type": "bytes32"
        },
        {
          "internalType": "bool",
          "name": "_approved",
          "type": "bool"
        },
        {
          "internalType": "string",
          "name": "_vary",
          "type": "string"
        }
      ],
      "name": "recovercommit",
      "outputs": [],
      "stateMutability": "nonpayable",
      "type": "function"
    },
    {
      "inputs": [
        {
          "internalType": "bytes32",
          "name": "_votehash",
          "type": "bytes32"
        }
      ],
      "name": "recoverlostcommit",
      "outputs": [],
      "stateMutability": "nonpayable",
      "type": "function"
    },
    {
      "inputs": [
        {
          "internalType": "bytes32",
          "name": "_proposed_release_hash",
          "type": "bytes32"
        },
        {
          "internalType": "bool",
          "name": "_approved",
          "type": "bool"
        },
        {
          "internalType": "string",
          "name": "_vary",
          "type": "string"
        }
      ],
      "name": "revealvote",
      "outputs": [],
      "stateMutability": "nonpayable",
      "type": "function"
    },
    {
      "inputs": [
        {
          "internalType": "uint256",
          "name": "_stakeidx",
          "type": "uint256"
        }
      ],
      "name": "stakeclmidx",
      "outputs": [],
      "stateMutability": "nonpayable",
      "type": "function"
    },
    {
      "inputs": [
        {
          "internalType": "address",
          "name": "",
          "type": "address"
        },
        {
          "internalType": "uint256",
          "name": "",
          "type": "uint256"
        }
      ],
      "name": "stakes",
      "outputs": [
        {
          "internalType": "uint256",
          "name": "amount",
          "type": "uint256"
        },
        {
          "internalType": "uint256",
          "name": "endTime",
          "type": "uint256"
        }
      ],
      "stateMutability": "view",
      "type": "function"
    },
    {
      "inputs": [
        {
          "internalType": "address",
          "name": "",
          "type": "address"
        }
      ],
      "name": "stakesAmount",
      "outputs": [
        {
          "internalType": "uint256",
          "name": "",
          "type": "uint256"
        }
      ],
      "stateMutability": "view",
      "type": "function"
    },
    {
      "inputs": [
        {
          "internalType": "address",
          "name": "",
          "type": "address"
        }
      ],
      "name": "stakesCounters",
      "outputs": [
        {
          "internalType": "uint256",
          "name": "",
          "type": "uint256"
        }
      ],
      "stateMutability": "view",
      "type": "function"
    },
    {
      "inputs": [
        {
          "internalType": "address",
          "name": "_staker",
          "type": "address"
        }
      ],
      "name": "stakescount",
      "outputs": [
        {
          "internalType": "uint256",
          "name": "slength",
          "type": "uint256"
        }
      ],
      "stateMutability": "view",
      "type": "function"
    },
    {
      "inputs": [
        {
          "internalType": "uint256",
          "name": "_endTime",
          "type": "uint256"
        },
        {
          "internalType": "uint256",
          "name": "_min_limit",
          "type": "uint256"
        },
        {
          "internalType": "uint256",
          "name": "_maxidx",
          "type": "uint256"
        }
      ],
      "name": "stakescsldt",
      "outputs": [],
      "stateMutability": "nonpayable",
      "type": "function"
    },
    {
      "inputs": [
        {
          "internalType": "uint256",
          "name": "_stakeidx",
          "type": "uint256"
        },
        {
          "internalType": "uint256",
          "name": "_snapamount",
          "type": "uint256"
        }
      ],
      "name": "stakesnap",
      "outputs": [],
      "stateMutability": "nonpayable",
      "type": "function"
    },
    {
      "inputs": [],
      "name": "supply",
      "outputs": [
        {
          "internalType": "uint256",
          "name": "",
          "type": "uint256"
        }
      ],
      "stateMutability": "view",
      "type": "function"
    },
    {
      "inputs": [],
      "name": "symbol",
      "outputs": [
        {
          "internalType": "string",
          "name": "",
          "type": "string"
        }
      ],
      "stateMutability": "view",
      "type": "function"
    },
    {
      "inputs": [],
      "name": "tokensMinted",
      "outputs": [
        {
          "internalType": "uint256",
          "name": "",
          "type": "uint256"
        }
      ],
      "stateMutability": "view",
      "type": "function"
    },
    {
      "inputs": [],
      "name": "totalSupply",
      "outputs": [
        {
          "internalType": "uint256",
          "name": "",
          "type": "uint256"
        }
      ],
      "stateMutability": "view",
      "type": "function"
    },
    {
      "inputs": [
        {
          "internalType": "address",
          "name": "to",
          "type": "address"
        },
        {
          "internalType": "uint256",
          "name": "tokens",
          "type": "uint256"
        }
      ],
      "name": "transfer",
      "outputs": [
        {
          "internalType": "bool",
          "name": "success",
          "type": "bool"
        }
      ],
      "stateMutability": "nonpayable",
      "type": "function"
    },
    {
      "inputs": [
        {
          "internalType": "address",
          "name": "from",
          "type": "address"
        },
        {
          "internalType": "address",
          "name": "to",
          "type": "address"
        },
        {
          "internalType": "uint256",
          "name": "tokens",
          "type": "uint256"
        }
      ],
      "name": "transferFrom",
      "outputs": [
        {
          "internalType": "bool",
          "name": "",
          "type": "bool"
        }
      ],
      "stateMutability": "nonpayable",
      "type": "function"
    },
    {
      "inputs": [],
      "name": "updatecost",
      "outputs": [],
      "stateMutability": "nonpayable",
      "type": "function"
    },
    {
      "inputs": [],
      "name": "updatev2",
      "outputs": [],
      "stateMutability": "nonpayable",
      "type": "function"
    },
    {
      "inputs": [],
      "name": "updatev3",
      "outputs": [],
      "stateMutability": "nonpayable",
      "type": "function"
    },
    {
      "inputs": [
        {
          "internalType": "bytes32",
          "name": "",
          "type": "bytes32"
        },
        {
          "internalType": "address",
          "name": "",
          "type": "address"
        }
      ],
      "name": "votes",
      "outputs": [
        {
          "internalType": "bytes32",
          "name": "proposal_hash",
          "type": "bytes32"
        },
        {
          "internalType": "bool",
          "name": "approve",
          "type": "bool"
        },
        {
          "internalType": "bool",
          "name": "is_editor",
          "type": "bool"
        },
        {
          "internalType": "uint256",
          "name": "amount",
          "type": "uint256"
        },
        {
          "internalType": "address",
          "name": "voter",
          "type": "address"
        },
        {
          "internalType": "uint256",
          "name": "timestamp",
          "type": "uint256"
        },
        {
          "internalType": "bool",
          "name": "is_claimed",
          "type": "bool"
        }
      ],
      "stateMutability": "view",
      "type": "function"
    },
    {
      "stateMutability": "payable",
      "type": "receive"
    }
  ],
  "bytecode": "0x60c06040526005608090815264457469636160d81b60a05260009062000026908262000548565b5060408051808201909152600381526245544960e81b602082015260019062000050908262000548565b5060126002556408e4b1e125600655640e63c506db6007556107e0600e556004600f55600160e01b60105560786019556101e0601a55610168601b556078601c55600254600a620000a2919062000727565b620000af90606462000735565b601d55600254620000c290600a62000727565b620000cf90600a62000735565b601e55611388601f5560056020556001602181905560225561182460235560006024556043805460ff1990811690915562093a806044556045805490911690556108006049556040604a553480156200012757600080fd5b5068056bc75e2d631000006003819055306000908152600960205260409020546200015291620001cd565b3060009081526009602052604090205568da5351938e7eb5b95c6005556002546200017f90600a62000727565b6200018e9062b03d3062000735565b600b5560006017556801f30795e38ed87acc60135560105460115542600c55620001b7620001f1565b6b1004c20e49aa3240785fcad2600455620007bf565b6000620001db82846200074f565b905082811015620001eb57600080fd5b92915050565b600d5462000201906001620001cd565b600d819055600e5462000214916200077b565b60000362000226576200022662000276565b6200023343600162000432565b406012819055601854600d54604080516020810194909452830191909152606082015260800160408051601f198184030181529190528051602090910120601255565b601154600c546000906200028c90429062000432565b600e54909150600090620002a39061025862000455565b9050808210156200035a576000620002ca83620002c3846103e862000455565b9062000487565b9050610fa0811115620002dc5750610fa05b601054620002ed906103e862000487565b601154101562000318576011546200030f908290620002c3906103e862000455565b6011556200032b565b60105462000327908262000487565b6011555b6200033884600462000487565b601154101562000353576200034f84600462000487565b6011555b5062000401565b60006200036f82620002c3856103e862000455565b9050610fa0811115620003815750610fa05b60105462000390908262000487565b60115411620003ba57601154620003b1906103e890620002c3908462000455565b601155620003c1565b6010546011555b620003d0600019600462000487565b8411620003ff57620003e484600462000455565b6011541115620003ff57620003fb84600462000455565b6011555b505b42600c55600f5460115410156200041957600f546011555b60105460115411156200042d576010546011555b505050565b6000828211156200044257600080fd5b6200044e828462000792565b9392505050565b600062000463828462000735565b90508215806200047d5750816200047b8483620007a8565b145b620001eb57600080fd5b60008082116200049657600080fd5b6200044e8284620007a8565b634e487b7160e01b600052604160045260246000fd5b600181811c90821680620004cd57607f821691505b602082108103620004ee57634e487b7160e01b600052602260045260246000fd5b50919050565b601f8211156200042d576000816000526020600020601f850160051c810160208610156200051f5750805b601f850160051c820191505b8181101562000540578281556001016200052b565b505050505050565b81516001600160401b03811115620005645762000564620004a2565b6200057c81620005758454620004b8565b84620004f4565b602080601f831160018114620005b457600084156200059b5750858301515b600019600386901b1c1916600185901b17855562000540565b600085815260208120601f198616915b82811015620005e557888601518255948401946001909101908401620005c4565b5085821015620006045787850151600019600388901b60f8161c191681555b5050505050600190811b01905550565b634e487b7160e01b600052601160045260246000fd5b600181815b808511156200066b5781600019048211156200064f576200064f62000614565b808516156200065d57918102915b93841c93908002906200062f565b509250929050565b6000826200068457506001620001eb565b816200069357506000620001eb565b8160018114620006ac5760028114620006b757620006d7565b6001915050620001eb565b60ff841115620006cb57620006cb62000614565b50506001821b620001eb565b5060208310610133831016604e8410600b8410161715620006fc575081810a620001eb565b6200070883836200062a565b80600019048211156200071f576200071f62000614565b029392505050565b60006200044e838362000673565b8082028115828204841417620001eb57620001eb62000614565b80820180821115620001eb57620001eb62000614565b634e487b7160e01b600052601260045260246000fd5b6000826200078d576200078d62000765565b500690565b81810381811115620001eb57620001eb62000614565b600082620007ba57620007ba62000765565b500490565b617ab580620007cf6000396000f3fe6080604052600436106106735760003560e01c80636bb5a5821161034e578063b5ade81b116101bb578063d89abcb5116100f7578063ea4a1104116100a0578063f71ae2aa1161007a578063f71ae2aa14611558578063f8c12e2c1461156e578063f8d826831461158e578063fc84abb7146115bb57600080fd5b8063ea4a11041461145c578063ecd3cb82146114f5578063f08a01f81461151557600080fd5b8063e47e25a2116100d1578063e47e25a2146113ec578063e723b9d914611419578063e729798e1461144657600080fd5b8063d89abcb51461136e578063dc6e9cf914611383578063dd62ed3e1461139957600080fd5b8063c7bef6ee11610164578063d03150c61161013e578063d03150c6146112ff578063d40170d714611315578063d732b8351461132b578063d74ce8c51461135857600080fd5b8063c7bef6ee146112a6578063cb9ae707146112d3578063cf70fa40146112e957600080fd5b8063be7d798e11610195578063be7d798e14611238578063bf6fc7251461124e578063c19885761461126e57600080fd5b8063b5ade81b146111f2578063b640776914611208578063b87c0c1d1461121e57600080fd5b80638a769d351161028a578063a5ec87e411610233578063b01ab0b21161020d578063b01ab0b214611187578063b31102e21461119c578063b4ef00f0146111bc578063b54f31db146111dc57600080fd5b8063a5ec87e414611119578063a6bd10951461112f578063a9059cbb1461116757600080fd5b806395d89b411161026457806395d89b411461107757806397566aa01461108c578063996901781461110357600080fd5b80638a769d3514610f7a5780638ae0368b14610f905780639386775a14610fa657600080fd5b806375165280116102f7578063829965cc116102d1578063829965cc14610ef4578063841218ee14610f0a57806387a2a9d614610f375780638885898514610f4d57600080fd5b80637516528014610e755780637f66cb4e14610eb457806381269a5614610ed457600080fd5b80636fd396d6116103285780636fd396d614610dca5780637006695114610e1c57806370a0823114610e3257600080fd5b80636bb5a58214610d7e5780636de9f32b14610d9e5780636fbbbf1d14610db457600080fd5b806332e99708116104ec578063490203a711610428578063584b62a1116103d15780635dbdda69116103ab5780635dbdda6914610ccd5780635dfa739614610ce357806362adb2e114610d265780636352170f14610d5e57600080fd5b8063584b62a114610c335780635965916f14610c875780635a2bc22d14610c9c57600080fd5b8063509fce5b11610402578063509fce5b14610bd05780635327d4af14610be65780635708416414610c0657600080fd5b8063490203a714610b085780634b44c6aa14610b1d5780634ef3762814610bbb57600080fd5b806337eed2d6116104955780633c5e64d11161046f5780633c5e64d114610a6c578063410e1b0714610a8c578063424d389414610aa257806346459b2214610ada57600080fd5b806337eed2d614610a2a5780633925bfe714610a405780633ab3429014610a5657600080fd5b8063366c41a3116104c6578063366c41a3146109e957806336dfec1c146109ff578063370ef54f14610a1457600080fd5b806332e997081461097157806332ed5b1214610986578063356df5ee146109bc57600080fd5b806317da485f116105bb578063229cb73c1161056457806327e235e31161053e57806327e235e3146109025780632e1750041461092f5780632f40907c14610945578063313ce5671461095b57600080fd5b8063229cb73c146108ad57806322ae4ccf146108c257806323b872dd146108e257600080fd5b80631853f0a8116105955780631853f0a81461083f5780631883a8d0146108555780631dcc83a91461088d57600080fd5b806317da485f146107f25780631801fbe51461080757806318160ddd1461082a57600080fd5b80630d899b1b1161061d5780631081a47e116105f75780631081a47e1461079a578063141a3dcf146107c7578063163aa00d146107dc57600080fd5b80630d899b1b1461074a5780630db5fea4146107645780630dbc6c551461078457600080fd5b8063047fc9aa1161064e578063047fc9aa146106f257806306fdde0314610708578063095ea7b31461072a57600080fd5b8062e6e553146106825780630206cea3146106ab578063037d2f35146106c257600080fd5b3661067d57600080fd5b600080fd5b34801561068e57600080fd5b5061069860075481565b6040519081526020015b60405180910390f35b3480156106b757600080fd5b506106c06115e8565b005b3480156106ce57600080fd5b506106e26106dd366004616ca0565b6116a4565b60405190151581526020016106a2565b3480156106fe57600080fd5b5061069860035481565b34801561071457600080fd5b5061071d611b67565b6040516106a29190616df2565b34801561073657600080fd5b506106e2610745366004616e29565b611bf5565b34801561075657600080fd5b506045546106e29060ff1681565b34801561077057600080fd5b506106c061077f366004616e53565b611c91565b34801561079057600080fd5b5061069860225481565b3480156107a657600080fd5b506106986107b5366004616eb1565b602d6020526000908152604090205481565b3480156107d357600080fd5b5061071d6123a5565b3480156107e857600080fd5b5061069860155481565b3480156107fe57600080fd5b506106986123b2565b34801561081357600080fd5b506106e2610822366004616eca565b600092915050565b34801561083657600080fd5b50600354610698565b34801561084b57600080fd5b50610698602a5481565b34801561086157600080fd5b50610698610870366004616e29565b604260209081526000928352604080842090915290825290205481565b34801561089957600080fd5b506106c06108a8366004616eec565b6123d0565b3480156108b957600080fd5b506106986128bc565b3480156108ce57600080fd5b506106c06108dd366004616eca565b6128d5565b3480156108ee57600080fd5b506106e26108fd366004616fab565b612afa565b34801561090e57600080fd5b5061069861091d366004616fe7565b60096020526000908152604090205481565b34801561093b57600080fd5b50610698601a5481565b34801561095157600080fd5b5061069860365481565b34801561096757600080fd5b5061069860025481565b34801561097d57600080fd5b50601154610698565b34801561099257600080fd5b506109a66109a1366004616eb1565b612c2c565b6040516106a29a99989796959493929190617002565b3480156109c857600080fd5b506106986109d7366004616eb1565b60326020526000908152604090205481565b3480156109f557600080fd5b50610698601d5481565b348015610a0b57600080fd5b5061071d612eb4565b348015610a2057600080fd5b50610698601b5481565b348015610a3657600080fd5b5061069860245481565b348015610a4c57600080fd5b50610698601c5481565b348015610a6257600080fd5b50610698601f5481565b348015610a7857600080fd5b506106c0610a8736600461709f565b612ec1565b348015610a9857600080fd5b50610698600b5481565b348015610aae57600080fd5b50610698610abd366004616eca565b603760209081526000928352604080842090915290825290205481565b348015610ae657600080fd5b50610afa610af5366004616eb1565b613061565b6040516106a2929190617102565b348015610b1457600080fd5b50610698613106565b348015610b2957600080fd5b50610ba2610b38366004616eb1565b603460205260009081526040902080546001820154600283015460038401546004850154600586015460068701546007880154600889015460098a0154600a909a015498999798969760ff808816986101008904821698620100009004909116969594939291908d565b6040516106a29d9c9b9a99989796959493929190617185565b348015610bc757600080fd5b50601254610698565b348015610bdc57600080fd5b5061069860085481565b348015610bf257600080fd5b506106c0610c013660046171fb565b613120565b348015610c1257600080fd5b50610698610c21366004616fe7565b603d6020526000908152604090205481565b348015610c3f57600080fd5b50610c72610c4e366004616e29565b603e6020908152600092835260408084209091529082529020805460019091015482565b604080519283526020830191909152016106a2565b348015610c9357600080fd5b5061071d6132ba565b348015610ca857600080fd5b50610cbc610cb7366004616eb1565b6132d7565b6040516106a2959493929190617227565b348015610cd957600080fd5b5061069860195481565b348015610cef57600080fd5b50610698610cfe366004616fe7565b73ffffffffffffffffffffffffffffffffffffffff166000908152603f602052604090205490565b348015610d3257600080fd5b50610698610d41366004616eca565b602f60209081526000928352604080842090915290825290205481565b348015610d6a57600080fd5b506106c0610d79366004616e53565b613418565b348015610d8a57600080fd5b506106c0610d9936600461726a565b613c34565b348015610daa57600080fd5b5061069860175481565b348015610dc057600080fd5b50610698602c5481565b348015610dd657600080fd5b50601454610df79073ffffffffffffffffffffffffffffffffffffffff1681565b60405173ffffffffffffffffffffffffffffffffffffffff90911681526020016106a2565b348015610e2857600080fd5b5061069860215481565b348015610e3e57600080fd5b50610698610e4d366004616fe7565b73ffffffffffffffffffffffffffffffffffffffff1660009081526009602052604090205490565b348015610e8157600080fd5b50610c72610e90366004616e29565b603c6020908152600092835260408084209091529082529020805460019091015482565b348015610ec057600080fd5b506106c0610ecf366004616eb1565b613de4565b348015610ee057600080fd5b506106e2610eef36600461729f565b614296565b348015610f0057600080fd5b50610698600d5481565b348015610f1657600080fd5b50610698610f25366004616eb1565b60306020526000908152604090205481565b348015610f4357600080fd5b5061069860105481565b348015610f5957600080fd5b50610698610f68366004616eb1565b60296020526000908152604090205481565b348015610f8657600080fd5b5061069860115481565b348015610f9c57600080fd5b5061069860125481565b348015610fb257600080fd5b50611024610fc13660046172d1565b603b602090815260009283526040808420909152908252902080546001820154600283015460038401546004850154600590950154939460ff8085169561010090950481169473ffffffffffffffffffffffffffffffffffffffff909316921687565b60408051978852951515602088015293151594860194909452606085019190915273ffffffffffffffffffffffffffffffffffffffff16608084015260a0830191909152151560c082015260e0016106a2565b34801561108357600080fd5b5061071d614306565b34801561109857600080fd5b506106986110a73660046171fb565b604080516020808201939093523360601b7fffffffffffffffffffffffffffffffffffffffff00000000000000000000000016818301526054808201959095528151808203909501855260740190528251920191909120919050565b34801561110f57600080fd5b50610698601e5481565b34801561112557600080fd5b5061069860335481565b34801561113b57600080fd5b5061069861114a3660046172d1565b604660209081526000928352604080842090915290825290205481565b34801561117357600080fd5b506106e2611182366004616e29565b614313565b34801561119357600080fd5b506106c06143d2565b3480156111a857600080fd5b506106c06111b7366004616eca565b61448b565b3480156111c857600080fd5b506106986111d736600461726a565b6145a7565b3480156111e857600080fd5b5061069860065481565b3480156111fe57600080fd5b50610698600e5481565b34801561121457600080fd5b5061069860045481565b34801561122a57600080fd5b506043546106e29060ff1681565b34801561124457600080fd5b5061069860205481565b34801561125a57600080fd5b506106e2611269366004616e29565b6145cf565b34801561127a57600080fd5b50610698611289366004616eca565b603860209081526000928352604080842090915290825290205481565b3480156112b257600080fd5b506106986112c1366004616fe7565b60406020819052600091825290205481565b3480156112df57600080fd5b50610698600c5481565b3480156112f557600080fd5b5061069860135481565b34801561130b57600080fd5b5061069860285481565b34801561132157600080fd5b5061069860055481565b34801561133757600080fd5b50610698611346366004616fe7565b603f6020526000908152604090205481565b34801561136457600080fd5b5061069860265481565b34801561137a57600080fd5b506106c061461e565b34801561138f57600080fd5b50610698600f5481565b3480156113a557600080fd5b506106986113b43660046172fd565b73ffffffffffffffffffffffffffffffffffffffff9182166000908152600a6020908152604080832093909416825291909152205490565b3480156113f857600080fd5b50610698611407366004616eb1565b603a6020526000908152604090205481565b34801561142557600080fd5b50610698611434366004616eb1565b60396020526000908152604090205481565b34801561145257600080fd5b5061069860235481565b34801561146857600080fd5b506114ba611477366004616eb1565b6025602052600090815260409020805460018201546002830154600384015460048501546005860154600687015460079097015495969495939492939192909188565b604080519889526020890197909752958701949094526060860192909252608085015260a084015260c083015260e0820152610100016106a2565b34801561150157600080fd5b506106c0611510366004616eb1565b6146d3565b34801561152157600080fd5b50610698611530366004616fe7565b73ffffffffffffffffffffffffffffffffffffffff166000908152603d602052604090205490565b34801561156457600080fd5b5061069860445481565b34801561157a57600080fd5b506106c0611589366004616eb1565b6148f7565b34801561159a57600080fd5b506106986115a9366004616eb1565b60276020526000908152604090205481565b3480156115c757600080fd5b506106986115d6366004616fe7565b60416020526000908152604090205481565b60455460ff16156115f857600080fd5b60025461160690600a617476565b611612906103e8617482565b601e5561161d61525b565b60479061162a908261753c565b506116336153ac565b604890611640908261753c565b507fffffffffffffffffffffffffffffffffffffffffffffffffffffffffffffffff60108190556116749062030d40615416565b601155604580547fffffffffffffffffffffffffffffffffffffffffffffffffffffffffffffff00166001179055565b600060476040516116b59190617656565b6040518091039020878051906020012014611731576040517f08c379a000000000000000000000000000000000000000000000000000000000815260206004820152601460248201527f426c6f636b486561646572206d69736d6174636800000000000000000000000060448201526064015b60405180910390fd5b601254861461173f57600080fd5b604860405161174e9190617656565b60405180910390208380519060200120146117c5576040517f08c379a000000000000000000000000000000000000000000000000000000000815260206004820152601160248201527f5365656468617368206d69736d617463680000000000000000000000000000006044820152606401611728565b60006117d0866176ea565b6011549091508511156117e257600080fd5b6011548111156117f157600080fd5b60125460009081526046602090815260408083203384529091528120549081900361181b57600080fd5b60008a87878a604051602001611834949392919061772c565b60405160208183030381529060405280519060200120905081811461185857600080fd5b601254600090815260166020526040902054801561187557600080fd5b601254600090815260166020526040902083905560025461189790600a617476565b6118a490621cd6d0617482565b601754116118cb576801f30795e38ed87acc60135568da5351938e7eb5b95c600555611a34565b6002546118d990600a617476565b6118e6906269be50617482565b601754101561190f576801bb94f70329a3fb606013556901b4a6a3271cfd6b72b8600555611a34565b60025461191d90600a617476565b61192a9062aba950617482565b60175410156119535768011d28e7efbf572199601355690118b444500059c512e4600555611a34565b60025461196190600a617476565b61196e9062cc9ed0617482565b601754101561199557678e9473f7dfab90cc601355688c5a2228002ce289a4600555611a34565b6002546119a390600a617476565b6119b09062dd1990617482565b60175410156119d75767474a39fbefd5c86660135568462d111400167144a0600555611a34565b6003546000906119e990612710615435565b905060006119f8826064615416565b9050611a16631f5406b0611a10606481856050615435565b90615416565b601355611a2e6207f4d5611a10606481856014615435565b60055550505b601354601754611a4391615461565b6017819055600b5411611a5857611a58617791565b601354600354611a6791615461565b60035560135433600090815260096020526040902054611a8691615461565b33600081815260096020526040902091909155601480547fffffffffffffffffffffffff000000000000000000000000000000000000000016909117905543601555611ad061547c565b601354600d546012546040805193845260208401929092529082015233907fcf6fbb9dcea7d07263ab4f5c3a92f53af33dffc421d9d121e1c74b307e68189d9060600160405180910390a2601354604051908152339030907fddf252ad1be2c89b69c2b068fc378daa952ba7f163c4a11628f55a4df523b3ef9060200160405180910390a35060019b9a5050505050505050505050565b60008054611b7490617499565b80601f0160208091040260200160405190810160405280929190818152602001828054611ba090617499565b8015611bed5780601f10611bc257610100808354040283529160200191611bed565b820191906000526020600020905b815481529060010190602001808311611bd057829003601f168201915b505050505081565b33600090815260096020526040812054821115611c1157600080fd5b60008211611c1e57600080fd5b336000818152600a6020908152604080832073ffffffffffffffffffffffffffffffffffffffff881680855290835292819020869055518581529192917f8c5be1e5ebec7d5bd14f71427d1e84f3dd0314c0f7b2291e5b200ac8c7c3b92591015b60405180910390a35060015b92915050565b600083833384604051602001611caa94939291906177c0565b604080517fffffffffffffffffffffffffffffffffffffffffffffffffffffffffffffffe08184030181529181528151602092830120336000908152603c8452828120828252909352912054909150611d0257600080fd5b6000848152603160205260409020805415801590611d235750848160010154145b611d2c57600080fd5b6000858152603460205260409020601c546001820154611d4b91615461565b4211611d5657600080fd5b336000818152603c602090815260408083208784528252808320549383526041909152902054611d859161555a565b336000908152604160209081526040808320939093556003850154825260259052908120601954909190611dba904290615416565b90506000611de66001611de0601954611a10601c54601b5461546190919063ffffffff16565b90615461565b6001840154909150611df89082615461565b821015611e0457600080fd5b60008815611e10575060015b336000908152603c602090815260408083208a84529091528120546005870154602154601a54929392611e599261271092611a1092611e53916004918391615435565b90615435565b905060038088810154610100900460ff1690811115611e7a57611e7a61711b565b03611e8457506044545b600387810154610100900460ff1690811115611ea257611ea261711b565b836003811115611eb457611eb461711b565b03611ef357611ef0612710611a108960050154612711611ed491906177fd565b611e536002611e53602154601a5461543590919063ffffffff16565b90505b336000908152603c602090815260408083208c8452909152812054611f2090606490611a1090600a615435565b90506126ac8860050154118015611f655750600388810154610100900460ff1690811115611f5057611f5061711b565b846003811115611f6257611f6261711b565b14155b15611f7857611f75816002615435565b90505b60408051828152602081018f905233917f53ef86fe8b545e88c8078a71aa8a9be4140e6f140b4e36f0ffee9207cf1ee896910160405180910390a2600854611fc09082615461565b600855336000908152603c602090815260408083208d8452909152902054611fe8908261555a565b925060015b336000908152603f602052604090205481116120df57336000908152603e6020908152604080832084845290915290205482101561209557336000908152603e6020908152604080832084845290915290205461204a908361555a565b336000818152603e6020908152604080832086845282528083209490945591815290829052205461207b908361555a565b3360009081526040602081905281209190915591506120df565b336000908152603e602090815260408083208484529091529020546120bb90839061555a565b91506120c73382615573565b81156120df57806120d781617810565b915050611fed565b5082156123245760408051848152602081018f905290810183905233907fd93567a4d470fa277429086aae141410cccc35c73954734ea3e24152fc044f359060600160405180910390a260015b336000908152603f6020526040902054811161232257336000908152603e60209081526040808320848452909152902054841061222f57336000908152603e602090815260408083208484529091529020600101544210156121d357336000908152603e602090815260408083208484529091529020600101546121b09084615461565b336000908152603e602090815260408083208584529091529020600101556121fc565b6121dd4284615461565b336000908152603e602090815260408083208584529091529020600101555b336000908152603e6020908152604080832084845290915290205461222290859061555a565b9350831561232257612310565b336000908152603e60209081526040808320848452909152812054612254908661555a565b336000908152603e602090815260408083208684529091529020600181015490879055909150428111156122cd57336000908152603e602090815260408083208684529091529020600101546122aa9086615461565b336000908152603e602090815260408083208784529091529020600101556122f6565b6122d74286615461565b336000908152603e602090815260408083208784529091529020600101555b8115612309576123073383836156b2565b505b5050612322565b8061231a81617810565b91505061212c565b505b6001890154336000818152603c602090815260408083208f84528252918290205491519182527f3ededec39a86b2261e09be07993014ceae66346b9af09000ec0cc87fe2d8f9de910160405180910390a3336000908152603c602090815260408083208d845290915281208181556001015550505050505050505050505050565b60488054611b7490617499565b60006123cb60115460105461541690919063ffffffff16565b905090565b6000868152602d6020526040902054158015906123fd5750602c546000878152602d602052604090205411155b61240657600080fd5b6000868152602d60209081526040808320548352602b909152902054861461242d57600080fd5b60365481111561243c57600080fd5b60008387604051602001612451929190617848565b604080517fffffffffffffffffffffffffffffffffffffffffffffffffffffffffffffffe0818403018152918152815160209283012060008a815260309093529120549091506124a2906001615461565b6000888152603060209081526040808320849055602f8252808320938352929052208190556033546124d5906001615461565b60338190556000908152603260209081526040808320849055838352603190915290206001015480151580612517575060008281526031602052604090205415155b1561252157600080fd5b60006125386019544261541690919063ffffffff16565b6000818152602960205260408120549192500361255757612557615752565b60008381526031602090815260408083206033548155600281018d90558484526029909252909120546003820155600181018490556005810180547fffffffffffffffffffffffff00000000000000000000000000000000000000001633179055600681016125c68a8261753c565b50600781016125d5898261753c565b50600981016125e4888261753c565b50600881016125f3878261753c565b5060008481526034602052604081206003810180547fffffffffffffffffffffffffffffffffffffffffffffffffffffffffff00000016620102021790556004810182905560058101829055600681018290556007810182905560088101829055600981019190915542808255601b5461266d9190615461565b6001820155601f54600a820155601e54336000908152603d6020526040902054101561269857600080fd5b601e54336000908152603d60205260409020546126b49161555a565b336000908152603d6020908152604080832093909355601e546041909152919020546126df91615461565b33600081815260416020908152604080832094909455600186810154808452603b8352858420858552835285842090815590810180547fffffffffffffffffffffffffffffffffffffffffffffffffffffffffffff000016610101179055601e546002820155600380820180547fffffffffffffffffffffffff00000000000000000000000000000000000000001690951790945542600482015592850180547fffffffffffffffffffffffffffffffffffffffffffffffffffffffffffff00ff1661030017905589825260359052919091205480158015906127d257506000888152603560205260409020600101548d145b1561282357600484018890556000888152603a60205260409020546127f8906001615461565b6000898152603a60209081526040808320849055600188015460388352818420948452939091529020555b6018546040805160208101929092528101889052606001604080518083037fffffffffffffffffffffffffffffffffffffffffffffffffffffffffffffffe001815290829052805160209182012060185560028601548983528a92909133917ff20f961bd89931f54768689d741307497501063bee5847fc3fcaa72b026d1859910160405180910390a450505050505050505050505050565b60006123cb60085460035461555a90919063ffffffff16565b61271082116128e357600080fd5b336000908152603d60205260409020548211156128ff57600080fd5b336000908152603d6020526040902054612919908361555a565b336000908152603d602090815260408083209390935560419052205461293f9083615461565b336000908152604160209081526040808320849055603d90915290205461296591615461565b336000908152604060208190529020541015612a29576040517f08c379a000000000000000000000000000000000000000000000000000000000815260206004820152605760248201527f457469636152656c656173653a2045786365737320626f736f6d7320666f722060448201527f74686973206e657720766f746520616d6f756e742c20636c61696d20736f6d6560648201527f207374616b6573206265666f7265206e657720766f7465000000000000000000608482015260a401611728565b336000908152603c60209081526040808320848452909152902054612a4e9083615461565b336000908152603c60209081526040808320858452825291829020928355426001909301929092556018548151928301528101829052606001604080518083037fffffffffffffffffffffffffffffffffffffffffffffffffffffffffffffffe00181528282528051602091820120601855838352820184905233917f8a1ff244f8a72f76c71ce96c1ddf485af695058f9e3638a8359e74257d71a30691015b60405180910390a25050565b73ffffffffffffffffffffffffffffffffffffffff8316600090815260096020526040812054612b2a908361555a565b73ffffffffffffffffffffffffffffffffffffffff8516600090815260096020908152604080832093909355600a815282822033835290522054612b6e908361555a565b73ffffffffffffffffffffffffffffffffffffffff8086166000908152600a60209081526040808320338452825280832094909455918616815260099091522054612bb99083615461565b73ffffffffffffffffffffffffffffffffffffffff80851660008181526009602052604090819020939093559151908616907fddf252ad1be2c89b69c2b068fc378daa952ba7f163c4a11628f55a4df523b3ef90612c1a9086815260200190565b60405180910390a35060019392505050565b60316020526000908152604090208054600182015460028301546003840154600485015460058601546006870180549697959694959394929373ffffffffffffffffffffffffffffffffffffffff90921692612c8790617499565b80601f0160208091040260200160405190810160405280929190818152602001828054612cb390617499565b8015612d005780601f10612cd557610100808354040283529160200191612d00565b820191906000526020600020905b815481529060010190602001808311612ce357829003601f168201915b505050505090806007018054612d1590617499565b80601f0160208091040260200160405190810160405280929190818152602001828054612d4190617499565b8015612d8e5780601f10612d6357610100808354040283529160200191612d8e565b820191906000526020600020905b815481529060010190602001808311612d7157829003601f168201915b505050505090806008018054612da390617499565b80601f0160208091040260200160405190810160405280929190818152602001828054612dcf90617499565b8015612e1c5780601f10612df157610100808354040283529160200191612e1c565b820191906000526020600020905b815481529060010190602001808311612dff57829003601f168201915b505050505090806009018054612e3190617499565b80601f0160208091040260200160405190810160405280929190818152602001828054612e5d90617499565b8015612eaa5780601f10612e7f57610100808354040283529160200191612eaa565b820191906000526020600020905b815481529060010190602001808311612e8d57829003601f168201915b505050505090508a565b60478054611b7490617499565b6000838152602d602052604090205415801590612eee5750602c546000848152602d602052604090205411155b612ef757600080fd5b6000838152602d60209081526040808320548352602b9091529020548314612f1e57600080fd5b601d54600090612f2f906014615416565b33600090815260096020526040902054909150811115612f4e57600080fd5b612f583082614313565b50603654612f67906001615461565b603655600084815260396020526040902054612f84906001615461565b600085815260396020908152604080832084815560365460378452828520958552948352818420859055815160a0810183528581528084018a81529154818401908152606082018a8152608083018a905296865260359094529190932081518155925160018401559051600283015591516003820190613004908261753c565b5060808201516004820190613019908261753c565b5050600854613029915082615461565b6008556036546040518591907fb733708a2586752275a4854aac54c7bb263ad67859f07d16147feea53ca009d790600090a350505050565b602b602052600090815260409020805460018201805491929161308390617499565b80601f01602080910402602001604051908101604052809291908181526020018280546130af90617499565b80156130fc5780601f106130d1576101008083540402835291602001916130fc565b820191906000526020600020905b8154815290600101906020018083116130df57829003601f168201915b5050505050905082565b6000600b546017541161311a575060135490565b50600090565b61312e426303c26700615461565b831061313957600080fd5b603281111580156131595750336000908152603f60205260409020548111155b61316257600080fd5b6000806001805b84811161326357336000908152603f602052604090205460021161325157336000908152603f602052604090205481116131a5578091506131c2565b6131af818461555a565b915060018210156131c2576131c2617791565b336000908152603e60209081526040808320858452909152902060010154871080159061320c5750336000908152603e602090815260408083208584529091529020600101548611155b1561325157336000908152603e60209081526040808320858452909152902054613237908590615461565b93506132433383615573565b61324e836001615461565b92505b8061325b81617810565b915050613169565b508215613277576132753384886158b2565b505b604080518781526020810187905233917f52806950881c6df8cc206c3b151fcc9aea7b2d53d8ff441469dffd05e851e3ab910160405180910390a2505050505050565b60405180610100016040528060d881526020016179a860d8913981565b60356020526000908152604090208054600182015460028301546003840180549394929391929161330790617499565b80601f016020809104026020016040519081016040528092919081815260200182805461333390617499565b80156133805780601f1061335557610100808354040283529160200191613380565b820191906000526020600020905b81548152906001019060200180831161336357829003601f168201915b50505050509080600401805461339590617499565b80601f01602080910402602001604051908101604052809291908181526020018280546133c190617499565b801561340e5780601f106133e35761010080835404028352916020019161340e565b820191906000526020600020905b8154815290600101906020018083116133f157829003601f168201915b5050505050905085565b60008383338460405160200161343194939291906177c0565b604080517fffffffffffffffffffffffffffffffffffffffffffffffffffffffffffffffe08184030181529181528151602092830120336000908152603c845282812082825290935291205490915061348957600080fd5b60008481526031602052604090208054158015906134aa5750848160010154145b6134b357600080fd5b6000858152603460209081526040808320600180820154338652603c855283862088875290945291909320015411156134eb57600080fd5b80600101544211801561350e5750601c54600182015461350a91615461565b4211155b61351757600080fd5b6002600382810154610100900460ff16908111156135375761353761711b565b0361354157600080fd5b600881015460098201546003840154600090815260256020908152604080832060018801548452603b835281842033855290925290912054801515806135a7575060018601546000908152603b6020908152604080832033845290915290206002015415155b156135b157600080fd5b6000603b60008860010154815260200190815260200160002060003373ffffffffffffffffffffffffffffffffffffffff1673ffffffffffffffffffffffffffffffffffffffff168152602001908152602001600020905086600101548160000181905550898160010160006101000a81548160ff02191690831515021790555060008160010160016101000a81548160ff021916908315150217905550603c60003373ffffffffffffffffffffffffffffffffffffffff1673ffffffffffffffffffffffffffffffffffffffff1681526020019081526020016000206000898152602001908152602001600020600001548160020181905550338160030160006101000a81548173ffffffffffffffffffffffffffffffffffffffff021916908373ffffffffffffffffffffffffffffffffffffffff16021790555042816004018190555061370f6001876004015461546190919063ffffffff16565b6004870155336000908152603c602090815260408083208b8452909152812054670de0b6b3a7640000111561376b57336000908152603c602090815260408083208c8452909152902054613764906002615416565b90506137a1565b61379e61379b670a688906bd8b0000336000908152603c602090815260408083208f8452909152902054906159d0565b90565b90505b33600090815260426020908152604080832060018c0154845290915290208190558a156137e15760068701546137d79082615461565b60068801556137f6565b60078701546137f09082615461565b60078801555b60008060006138168a600701548b6006015461546190919063ffffffff16565b905060006138336127108c6006015461543590919063ffffffff16565b600a8c01549091506000906138488385615416565b111561385357600194505b600a8c01546138628385615416565b0361386c57600193505b60038c0180547fffffffffffffffffffffffffffffffffffffffffffffffffffffffffff00ffff16620100008615150217905584156138f8576138c1612710611a10858f600a0154612710611e5391906177fd565b90506138e081611a106127108f6007015461543590919063ffffffff16565b90506138ee816127106177fd565b60058d0155613948565b613915612710611a108e600a01548661543590919063ffffffff16565b905061393481611a106127108f6006015461543590919063ffffffff16565b9050613942816127106177fd565b60058d01555b6127108c60050154111561395b57600080fd5b60008515613967575060015b6003808e810154610100900460ff16908111156139865761398661711b565b036139c55785156139ab5760068a01546139a1906001615461565b60068b0155613a63565b60078a01546139bb906001615461565b60078b0155613a63565b60038d810154610100900460ff16908111156139e3576139e361711b565b8160038111156139f5576139f561711b565b14613a63576001816003811115613a0e57613a0e61711b565b03613a385760078a0154613a2390600161555a565b60078b015560068a01546139a1906001615461565b60068a0154613a4890600161555a565b60068b015560078a0154613a5d906001615461565b60078b01555b8415613ace5760038d0180547fffffffffffffffffffffffffffffffffffffffffffffffffffffffffffff00ff169055600060088e0181905560098e015560028a0154613ab0908d61555a565b60028b015560038a0154613ac4908c61555a565b60038b0155613bb2565b8515613b475760038d0180547fffffffffffffffffffffffffffffffffffffffffffffffffffffffffffff00ff1661010017905560068d015460088e0181905560098e0181905560028b0154613b299190611de0908f61555a565b60028b015560098d015460038b0154613ac49190611de0908e61555a565b60038d0180547fffffffffffffffffffffffffffffffffffffffffffffffffffffffffffff00ff16905560078d015460088e01819055600060098f015560028b0154613b989190611de0908f61555a565b60028b015560038a0154613bac908c61555a565b60038b01555b60018e0154600289015460405190815233907f4627acd8194d77d62502e6eb464100f9c2d8a487c62a6fd54048d3d8f1cb5c519060200160405180910390a3613c208f336000908152603c602090815260408083208484528083529083208381559383529052600190910155565b505050505050505050505050505050505050565b6040805160008152602081018083528151902091613c549184910161786a565b6040516020818303038152906040528051906020012003613c7457600080fd5b601d54336000908152600960205260409020541015613c9257600080fd5b613c9e30601d54614313565b50601d54600854613cae91615461565b600855604051600090613cc5908390602001616df2565b604051602081830303815290604052805190602001209050613cf36001602c5461546190919063ffffffff16565b602c556000818152602d602052604090205415613d0f57600080fd5b602e82604051613d1f919061786a565b9081526040519081900360200190205415613d3957600080fd5b6040805180820182528281526020808201858152602c546000908152602b9092529290208151815591519091906001820190613d75908261753c565b5050602c546000838152602d6020526040908190209190915551829150602e90613da090859061786a565b908152602001604051809103902081905550602c547f830578780908e1ff0fbde38777892998c31b30c39451a5a3b0e99cbf7bd781df83604051612aee9190616df2565b336000908152603c60209081526040808320848452909152902054613e0857600080fd5b336000818152603c602090815260408083208584528252808320549383526041909152902054613e379161555a565b33600090815260416020908152604080832093909355603c81528282208483529052908120546044549091613e726064611a10856015615435565b604080518281526000602082015291925033917f53ef86fe8b545e88c8078a71aa8a9be4140e6f140b4e36f0ffee9207cf1ee896910160405180910390a2600854613ebd9082615461565b600855336000908152603c60209081526040808320878452909152902054613ee5908261555a565b925060015b336000908152603f60205260409020548111613fdc57336000908152603e60209081526040808320848452909152902054821015613f9257336000908152603e60209081526040808320848452909152902054613f47908361555a565b336000818152603e60209081526040808320868452825280832094909455918152908290522054613f78908361555a565b336000908152604060208190528120919091559150613fdc565b336000908152603e60209081526040808320848452909152902054613fb890839061555a565b9150613fc43382615573565b8115613fdc5780613fd481617810565b915050613eea565b50821561422157604080518481526000602082015290810183905233907fd93567a4d470fa277429086aae141410cccc35c73954734ea3e24152fc044f359060600160405180910390a260015b336000908152603f6020526040902054811161421f57336000908152603e60209081526040808320848452909152902054841061412c57336000908152603e602090815260408083208484529091529020600101544210156140d057336000908152603e602090815260408083208484529091529020600101546140ad9084615461565b336000908152603e602090815260408083208584529091529020600101556140f9565b6140da4284615461565b336000908152603e602090815260408083208584529091529020600101555b336000908152603e6020908152604080832084845290915290205461411f90859061555a565b9350831561421f5761420d565b336000908152603e60209081526040808320848452909152812054614151908661555a565b336000908152603e602090815260408083208684529091529020600181015490879055909150428111156141ca57336000908152603e602090815260408083208684529091529020600101546141a79086615461565b336000908152603e602090815260408083208784529091529020600101556141f3565b6141d44286615461565b336000908152603e602090815260408083208784529091529020600101555b8115614206576142043383836156b2565b505b505061421f565b8061421781617810565b915050614029565b505b336000818152603c6020908152604080832088845282528083205490519081529192917f3ededec39a86b2261e09be07993014ceae66346b9af09000ec0cc87fe2d8f9de910160405180910390a3336000908152603c6020908152604080832087845290915281208181556001015550505050565b6040805160208082018590523360601b7fffffffffffffffffffffffffffffffffffffffff000000000000000000000000168284015260548083018890528351808403909101815260749092019092528051910120600090828111156142fb57600080fd5b909314949350505050565b60018054611b7490617499565b600080821161432157600080fd5b3360009081526009602052604090205461433b908361555a565b336000908152600960205260408082209290925573ffffffffffffffffffffffffffffffffffffffff8516815220546143749083615461565b73ffffffffffffffffffffffffffffffffffffffff84166000818152600960205260409081902092909255905133907fddf252ad1be2c89b69c2b068fc378daa952ba7f163c4a11628f55a4df523b3ef90611c7f9086815260200190565b6002546143e090600a617476565b6143ee906301406f40617482565b60035410156143fc57600080fd5b603460265461440b91906178b5565b1561441557600080fd5b600061443a6509184e72a000611a106302d69be660035461543590919063ffffffff16565b90506000614461655af3107a4000611a106302d69be660035461543590919063ffffffff16565b601e819055601d8390556026546024549192501161448157614481617791565b5050602654602455565b6000811161449857600080fd5b6000821180156144b75750336000908152603f60205260409020548211155b6144c057600080fd5b336000908152603e602090815260408083208584529091529020805482106144e757600080fd5b80546000906144f6908461555a565b838355336000908152603f6020526040902054909150614517906001615461565b336000818152603f6020908152604080832085905580518082018252868152600180890154828501908152958552603e8452828520968552959092529091209051815590519101558061456c5761456c617791565b60405183815233907f5bbe98d566948f7d7db717dafb0a14082df525118fac86c23df2302f161c03479060200160405180910390a250505050565b6000602e826040516145b9919061786a565b9081526020016040518091039020549050919050565b60003373ffffffffffffffffffffffffffffffffffffffff8416146145f357600080fd5b6000821161460057600080fd5b61460a3083614313565b506146158383615ae2565b50600192915050565b60435460ff161561462e57600080fd5b60025461463c90600a617476565b614647906064617482565b601e556090600e5560025461465d90600a617476565b61466a9062f05370617482565b600b55614675615b4a565b60105460115461468790610100615435565b1161469f5760115461469b90610100615435565b6011555b62127500604455604380547fffffffffffffffffffffffffffffffffffffffffffffffffffffffffffffff00166001179055565b6000811180156146f25750336000908152603f60205260409020548111155b6146fb57600080fd5b336000908152603e6020908152604080832084845290915290206001810154421161472557600080fd5b3360009081526041602090815260408083205491819052909120546147499161555a565b8154111561475657600080fd5b33600090815260416020908152604080832054603d9092529091205461477b91615461565b8154336000908152604060208190529020546147969161555a565b10156148245733600090815260416020908152604080832054845492829052908320546147cd926147c7919061555a565b9061555a565b111561481357336000908152604160209081526040808320548454928290529220546147fe92916147c7919061555a565b336000908152603d6020526040902055614824565b336000908152603d60205260408120555b80543060009081526009602052604090205461483f9161555a565b306000908152600960205260408082209290925582543382529190205461486591615461565b336000818152600960209081526040918290209390935583549051908152909130917fddf252ad1be2c89b69c2b068fc378daa952ba7f163c4a11628f55a4df523b3ef910160405180910390a3805460405190815233907f2aeea59856f5616c244717fd488ead1d1b5fd33608d9583a4607b4c4ba3631e49060200160405180910390a26148f33383615573565b5050565b60008181526031602052604090208054158015906149185750818160010154145b61492157600080fd5b6000828152603460205260409020601c54600182015461494091615461565b421161494b57600080fd5b60018201546000908152603b6020908152604080832033845290915290208054841461497657600080fd5b600581015460ff161561498857600080fd5b6005810180547fffffffffffffffffffffffffffffffffffffffffffffffffffffffffffffff001660011790556002810154336000908152604160205260409020546149d39161555a565b336000908152604160209081526040808320939093556003860154825260259052908120601954909190614a08904290615416565b90506000614a2e6001611de0601954611a10601c54601b5461546190919063ffffffff16565b6001840154909150614a409082615461565b821015614a4c57600080fd5b600260038087015460ff1690811115614a6757614a6761711b565b03614af5576001600386810154610100900460ff1690811115614a8c57614a8c61711b565b03614ac3576003850180547fffffffffffffffffffffffffffffffffffffffffffffffffffffffffffffff00166001179055614aee565b6003850180547fffffffffffffffffffffffffffffffffffffffffffffffffffffffffffffff001690555b4260028601555b600385015462010000900460ff166151cd57600184015460009060ff1615614b1b575060015b60038087015460ff1690811115614b3457614b3461711b565b816003811115614b4657614b4661711b565b14614fc0576000856002015490506000614b7b612710611a108a60050154611e53602154601a5461543590919063ffffffff16565b6001880154909150610100900460ff1615614ba157602254614b9e908290615435565b90505b61232888600501541115614d73576000614bce6064611a1060038b6002015461543590919063ffffffff16565b90506126ac89600501541115614bfe57614bfb6064611a1060078b6002015461543590919063ffffffff16565b90505b6001880154610100900460ff1615614c17575060028701545b875460405133917f53ef86fe8b545e88c8078a71aa8a9be4140e6f140b4e36f0ffee9207cf1ee89691614c5291858252602082015260400190565b60405180910390a2600854614c679082615461565b6008556002880154614c79908261555a565b925060015b336000908152603f60205260409020548111614d7057336000908152603e60209081526040808320848452909152902054821015614d2657336000908152603e60209081526040808320848452909152902054614cdb908361555a565b336000818152603e60209081526040808320868452825280832094909455918152908290522054614d0c908361555a565b336000908152604060208190528120919091559150614d70565b336000908152603e60209081526040808320848452909152902054614d4c90839061555a565b9150614d583382615573565b8115614d705780614d6881617810565b915050614c7e565b50505b8115614fb9578654604080518481526020810192909252810182905233907fd93567a4d470fa277429086aae141410cccc35c73954734ea3e24152fc044f359060600160405180910390a260015b336000908152603f60205260409020548111614fb757336000908152603e602090815260408083208484529091529020548310614ec457336000908152603e60209081526040808320848452909152902060010154421015614e6857336000908152603e60209081526040808320848452909152902060010154614e459083615461565b336000908152603e60209081526040808320858452909152902060010155614e91565b614e724283615461565b336000908152603e602090815260408083208584529091529020600101555b336000908152603e60209081526040808320848452909152902054614eb790849061555a565b92508215614fb757614fa5565b336000908152603e60209081526040808320848452909152812054614ee9908561555a565b336000908152603e60209081526040808320868452909152902060018101549086905590915042811115614f6257336000908152603e60209081526040808320868452909152902060010154614f3f9085615461565b336000908152603e60209081526040808320878452909152902060010155614f8b565b614f6c4285615461565b336000908152603e602090815260408083208784529091529020600101555b8115614f9e57614f9c3383836156b2565b505b5050614fb7565b80614faf81617810565b915050614dc1565b505b50506151cb565b600080856002015411614fd257600080fd5b6001860154610100900460ff16615072573360009081526042602090815260408083208c84529091529020541561504957600285015460048601543360009081526042602090815260408083208e84529091529020546150429261503b929091611a1091615435565b8290615461565b9050615072565b61506f61503b8660020154611a1088600401548a6002015461543590919063ffffffff16565b90505b6001860154610100900460ff1680156150a35750600160038089015460ff16908111156150a1576150a161711b565b145b156150e25760008560030154116150b957600080fd5b6150df61503b8660030154611a1088600501548b6009015461543590919063ffffffff16565b90505b600585015460048601546150f591615461565b81111561510157600080fd5b3060009081526009602052604090205461511b908261555a565b3060009081526009602052604080822092909255338152205461513e9082615461565b336000818152600960205260409081902092909255905130907fddf252ad1be2c89b69c2b068fc378daa952ba7f163c4a11628f55a4df523b3ef906151869085815260200190565b60405180910390a360408051828152602081018b905233917fe413caa6d70a6d9b51c2af2575a2914490f614355049af8ae7cde5caab9fd201910160405180910390a2505b505b3360009081526042602090815260408083208a845290915290205415615209573360009081526042602090815260408083208a84529091528120555b600385015462010000900460ff16156152525760405187815233907f3e0648214287dbba314854c056353ff9db951ab8f6459ea7c7f922025ba9fdfe9060200160405180910390a25b50505050505050565b6060600061526a6001436177fd565b60185460125460408051934060208501528301919091526060820152608001604080517fffffffffffffffffffffffffffffffffffffffffffffffffffffffffffffffe0818403018152828252805160209182012090830181905242918301919091523360608301529150600090608001604080517fffffffffffffffffffffffffffffffffffffffffffffffffffffffffffffffe08184030181528282528051602091820120600d54918401819052918301529150600090606001604080517fffffffffffffffffffffffffffffffffffffffffffffffffffffffffffffffe081840301815282825280516020918201209083018690529082018490527fffffffffffffffffffffffffffffffff00000000000000000000000000000000811660608301529150607001604051602081830303815290604052935050505090565b601854600d546040516060926153c7926048926020016178c9565b604080517fffffffffffffffffffffffffffffffffffffffffffffffffffffffffffffffe081840301815282825280516020918201209083015201604051602081830303815290604052905090565b600080821161542457600080fd5b61542e8284617980565b9392505050565b60006154418284617482565b90508215806154585750816154568483617980565b145b611c8b57600080fd5b600061546d8284617994565b905082811015611c8b57600080fd5b600d5461548a906001615461565b600d819055600e5461549b916178b5565b6000036154aa576154aa615b4a565b604954600d546154ba91906178b5565b6000036154d8576154c96153ac565b6048906154d6908261753c565b505b6154e343600161555a565b406012819055601854600d546040805160208101949094528301919091526060820152608001604080517fffffffffffffffffffffffffffffffffffffffffffffffffffffffffffffffe0818403018152919052805160209091012060125561554a61525b565b604790615557908261753c565b50565b60008282111561556957600080fd5b61542e82846177fd565b6000811180156155a8575073ffffffffffffffffffffffffffffffffffffffff82166000908152603f60205260409020548111155b6155b157600080fd5b73ffffffffffffffffffffffffffffffffffffffff82166000818152603e60209081526040808320858452825280832054938352908190529020546155f59161555a565b73ffffffffffffffffffffffffffffffffffffffff831660008181526040602081815281832094909455603e8452808220603f8086528284208054855282875283852088865284862081548155600191820154908201558451808601865286815280890187815283548852948952948620945185559251938301939093559390925291909252546156859161555a565b73ffffffffffffffffffffffffffffffffffffffff9092166000908152603f602052604090209190915550565b60008083116156c057600080fd5b73ffffffffffffffffffffffffffffffffffffffff84166000908152603f60205260409020546156f1906001615461565b73ffffffffffffffffffffffffffffffffffffffff949094166000818152603f6020908152604080832088905580518082018252968752868201958652928252603e8152828220968252959095529093209151825551600191820155919050565b60006157696019544261541690919063ffffffff16565b600081815260296020526040902054909150801561578657600080fd5b602654615794906001615461565b6026818155604080516101008101825283815260208082018781526000838501818152606085018281526080860183815260a0870184815260c0880185815260e089018681529b8652602588528986209851895595516001808a0191909155935160028901559151600388015551600487015551600586015591516006850155955160079093019290925592548685526029909352922055602a5461583891615461565b602a5560265461584790615d02565b5060205460265461585990600161555a565b61586391906178b5565b15801561587257506001602654115b1561587f5761587f615e69565b6026546040518381527ff74223d764da704d974281758065d2eb6c9066dc940e3f549b72e894b0404aef90602001612aee565b60008083116158c057600080fd5b73ffffffffffffffffffffffffffffffffffffffff84166000908152603f60205260409020546158f1906001615461565b73ffffffffffffffffffffffffffffffffffffffff85166000908152603f6020908152604080832093909355829052205461592c9084615461565b73ffffffffffffffffffffffffffffffffffffffff85166000818152604060208181528183209490945580518082018252878152808501878152848452603e8652828420603f87528385205485529095529181902091518255925160019091015590517f42e99fbad9601d25ee3bb515eeee966f97c3c383adadbe5720f651df8c18989d906159be9086815260200190565b60405180910390a25060019392505050565b600082828183036159fb5780156159e85760006159f2565b670de0b6b3a76400005b92505050611c8b565b670de0b6b3a76400008203615a1c57670de0b6b3a764000092505050611c8b565b80600003615a3657670de0b6b3a764000092505050611c8b565b670de0b6b3a76400008103615a4f578492505050611c8b565b670de0b6b3a7640000821115615a8057615a79615a74615a6e87615fe6565b8661614c565b61615b565b9250615ada565b6000615a9e61379b846ec097ce7bc90715b34b9f1000000000617980565b90506000615ab7615a74615ab184615fe6565b8861614c565b9050615ad561379b826ec097ce7bc90715b34b9f1000000000617980565b945050505b505092915050565b615aec82826161d2565b5073ffffffffffffffffffffffffffffffffffffffff82166000908152603d6020526040902054615b1d9082615461565b73ffffffffffffffffffffffffffffffffffffffff9092166000908152603d602052604090209190915550565b601154600c54600090615b5e90429061555a565b90506000615b79610258600e5461543590919063ffffffff16565b905080821015615c1b576000615b9583611a10846103e8615435565b9050610fa0811115615ba65750610fa05b601054615bb5906103e8615416565b6011541015615be157615bd981611a106103e860115461543590919063ffffffff16565b601155615bf2565b601054615bee9082615416565b6011555b615bfd846004615416565b6011541015615c1557615c11846004615416565b6011555b50615cd3565b6000615c2d82611a10856103e8615435565b9050610fa0811115615c3e5750610fa05b601054615c4b9082615416565b60115411615c7657615c6e6103e8611a108360115461543590919063ffffffff16565b601155615c7d565b6010546011555b615ca87fffffffffffffffffffffffffffffffffffffffffffffffffffffffffffffffff6004615416565b8411615cd157615cb9846004615435565b6011541115615cd157615ccd846004615435565b6011555b505b42600c55600f546011541015615cea57600f546011555b6010546011541115615cfd576010546011555b505050565b60008060265411615d1257600080fd5b600082118015615d2457506026548211155b615d2d57600080fd5b60008281526025602052604081208054909103615d4957600080fd5b80546000908152602760205260409020548015615d6557600080fd5b6000600254600a615d769190617476565b615d84906301406f40617482565b60035410615dbb57615db46c7e37be2022c0914b2680000000611a1060045460035461543590919063ffffffff16565b9050615dc0565b506005545b615dde64174876e800611a106006548461543590919063ffffffff16565b6004840155600754615dfc9064174876e80090611a10908490615435565b6005840155600354615e0e9082615461565b60035530600090815260096020526040902054615e2b9082615461565b30600090815260096020908152604080832093909355855482526027905220819055602854615e5b906001615461565b602855506001949350505050565b600080600080615e8660205460265461555a90919063ffffffff16565b90505b602654615e9790600161555a565b8111615eee57600081815260256020526040902060060154615eba908490615461565b600082815260256020526040902060070154909350615eda908390615461565b915080615ee681617810565b915050615e89565b50615ef98282615461565b600003615f0a576113889250615f26565b615f23615f178383615461565b611a1084612710615435565b92505b602354831015615f7857602354600090615f40908561555a565b9050615f6f615f66612710611a1084611e53611194601f5461555a90919063ffffffff16565b601f549061555a565b601f5550615fbc565b6000615f8f6023548561555a90919063ffffffff16565b9050615fb7615fae612710611a1084601f54612710611e5391906177fd565b601f5490615461565b601f55505b611194601f541015615fcf57611194601f555b6126ac601f541115615cfd576126ac601f55505050565b600081670de0b6b3a764000081101561602e576040517f36d32ef000000000000000000000000000000000000000000000000000000000815260048101849052602401611728565b60006160ba670de0b6b3a7640000830460016fffffffffffffffffffffffffffffffff821160071b91821c67ffffffffffffffff811160061b90811c63ffffffff811160051b90811c61ffff811160041b90811c60ff8111600390811b91821c600f811160021b90811c918211871b91821c969096119490961792909217171791909117919091171790565b9050670de0b6b3a7640000810282821c7ffffffffffffffffffffffffffffffffffffffffffffffffff21f494c589c000081016160fd57815b9695505050505050565b671bc16d674ec800006706f05b59d3b200005b801561614057670de0b6b3a7640000838002049250818310616138579283019260019290921c915b60011c616110565b50919695505050505050565b600061542e61379b8484616316565b600081680a688906bd8affffff8111156161a4576040517fb3b6ba1f00000000000000000000000000000000000000000000000000000000815260048101849052602401611728565b60006161bc670de0b6b3a7640000604084901b617980565b90506161ca61379b8261641d565b949350505050565b60008082116161e057600080fd5b73ffffffffffffffffffffffffffffffffffffffff83166000908152603f6020526040902054616211906001615461565b73ffffffffffffffffffffffffffffffffffffffff84166000908152603f6020908152604080832093909355829052205461624c9083615461565b73ffffffffffffffffffffffffffffffffffffffff8416600090815260406020819052812091909155601a54616283904290615461565b604080518082018252858152602080820184815273ffffffffffffffffffffffffffffffffffffffff89166000818152603e8452858120603f855286822054825284528590209351845590516001909301929092559151868152929350917f42e99fbad9601d25ee3bb515eeee966f97c3c383adadbe5720f651df8c18989d910160405180910390a25060019392505050565b600080807fffffffffffffffffffffffffffffffffffffffffffffffffffffffffffffffff848609848602925082811083820303915050806000036163685750670de0b6b3a764000090049050611c8b565b670de0b6b3a764000081106163b3576040517f5173648d0000000000000000000000000000000000000000000000000000000081526004810186905260248101859052604401611728565b6000670de0b6b3a7640000858709620400008185030493109091037d40000000000000000000000000000000000000000000000000000000000002919091177faccb18165bd6fe31ae1cf318dc5b51eee0e1ba569b88cd74c1773b91fac106690291505092915050565b7780000000000000000000000000000000000000000000000067ff0000000000000082161561653e576780000000000000008216156164655768016a09e667f3bcc9090260401c5b674000000000000000821615616484576801306fe0a31b7152df0260401c5b6720000000000000008216156164a3576801172b83c7d517adce0260401c5b6710000000000000008216156164c25768010b5586cf9890f62a0260401c5b6708000000000000008216156164e1576801059b0d31585743ae0260401c5b67040000000000000082161561650057680102c9a3e778060ee70260401c5b67020000000000000082161561651f5768010163da9fb33356d80260401c5b67010000000000000082161561653e57680100b1afa5abcbed610260401c5b66ff00000000000082161561663d57668000000000000082161561656b5768010058c86da1c09ea20260401c5b6640000000000000821615616589576801002c605e2e8cec500260401c5b66200000000000008216156165a757680100162f3904051fa10260401c5b66100000000000008216156165c5576801000b175effdc76ba0260401c5b66080000000000008216156165e357680100058ba01fb9f96d0260401c5b66040000000000008216156166015768010002c5cc37da94920260401c5b660200000000000082161561661f576801000162e525ee05470260401c5b660100000000000082161561663d5768010000b17255775c040260401c5b65ff00000000008216156167335765800000000000821615616668576801000058b91b5bc9ae0260401c5b6540000000000082161561668557680100002c5c89d5ec6d0260401c5b652000000000008216156166a25768010000162e43f4f8310260401c5b651000000000008216156166bf57680100000b1721bcfc9a0260401c5b650800000000008216156166dc5768010000058b90cf1e6e0260401c5b650400000000008216156166f9576801000002c5c863b73f0260401c5b6502000000000082161561671657680100000162e430e5a20260401c5b65010000000000821615616733576801000000b1721835510260401c5b64ff000000008216156168205764800000000082161561675c57680100000058b90c0b490260401c5b6440000000008216156167785768010000002c5c8601cc0260401c5b642000000000821615616794576801000000162e42fff00260401c5b6410000000008216156167b05768010000000b17217fbb0260401c5b6408000000008216156167cc576801000000058b90bfce0260401c5b6404000000008216156167e857680100000002c5c85fe30260401c5b6402000000008216156168045768010000000162e42ff10260401c5b64010000000082161561682057680100000000b17217f80260401c5b63ff0000008216156169045763800000008216156168475768010000000058b90bfc0260401c5b6340000000821615616862576801000000002c5c85fe0260401c5b632000000082161561687d57680100000000162e42ff0260401c5b6310000000821615616898576801000000000b17217f0260401c5b63080000008216156168b357680100000000058b90c00260401c5b63040000008216156168ce5768010000000002c5c8600260401c5b63020000008216156168e9576801000000000162e4300260401c5b63010000008216156169045768010000000000b172180260401c5b62ff00008216156169df5762800000821615616929576801000000000058b90c0260401c5b6240000082161561694357680100000000002c5c860260401c5b6220000082161561695d5768010000000000162e430260401c5b6210000082161561697757680100000000000b17210260401c5b620800008216156169915768010000000000058b910260401c5b620400008216156169ab576801000000000002c5c80260401c5b620200008216156169c557680100000000000162e40260401c5b620100008216156169df576801000000000000b1720260401c5b61ff00821615616ab157618000821615616a0257680100000000000058b90260401c5b614000821615616a1b5768010000000000002c5d0260401c5b612000821615616a34576801000000000000162e0260401c5b611000821615616a4d5768010000000000000b170260401c5b610800821615616a66576801000000000000058c0260401c5b610400821615616a7f57680100000000000002c60260401c5b610200821615616a9857680100000000000001630260401c5b610100821615616ab157680100000000000000b10260401c5b60ff821615616b7a576080821615616ad257680100000000000000590260401c5b6040821615616aea576801000000000000002c0260401c5b6020821615616b0257680100000000000000160260401c5b6010821615616b1a576801000000000000000b0260401c5b6008821615616b3257680100000000000000060260401c5b6004821615616b4a57680100000000000000030260401c5b6002821615616b6257680100000000000000010260401c5b6001821615616b7a57680100000000000000010260401c5b670de0b6b3a76400000260409190911c60bf031c90565b7f4e487b7100000000000000000000000000000000000000000000000000000000600052604160045260246000fd5b600082601f830112616bd157600080fd5b813567ffffffffffffffff80821115616bec57616bec616b91565b604051601f83017fffffffffffffffffffffffffffffffffffffffffffffffffffffffffffffffe0908116603f01168101908282118183101715616c3257616c32616b91565b81604052838152866020858801011115616c4b57600080fd5b836020870160208301376000602085830101528094505050505092915050565b80357fffffffffffffffff00000000000000000000000000000000000000000000000081168114616c9b57600080fd5b919050565b600080600080600080600060e0888a031215616cbb57600080fd5b87357fffffffff0000000000000000000000000000000000000000000000000000000081168114616ceb57600080fd5b9650602088013567ffffffffffffffff80821115616d0857600080fd5b616d148b838c01616bc0565b975060408a0135965060608a0135915080821115616d3157600080fd5b616d3d8b838c01616bc0565b955060808a0135945060a08a0135915080821115616d5a57600080fd5b50616d678a828b01616bc0565b925050616d7660c08901616c6b565b905092959891949750929550565b60005b83811015616d9f578181015183820152602001616d87565b50506000910152565b60008151808452616dc0816020860160208601616d84565b601f017fffffffffffffffffffffffffffffffffffffffffffffffffffffffffffffffe0169290920160200192915050565b60208152600061542e6020830184616da8565b803573ffffffffffffffffffffffffffffffffffffffff81168114616c9b57600080fd5b60008060408385031215616e3c57600080fd5b616e4583616e05565b946020939093013593505050565b600080600060608486031215616e6857600080fd5b8335925060208401358015158114616e7f57600080fd5b9150604084013567ffffffffffffffff811115616e9b57600080fd5b616ea786828701616bc0565b9150509250925092565b600060208284031215616ec357600080fd5b5035919050565b60008060408385031215616edd57600080fd5b50508035926020909101359150565b60008060008060008060c08789031215616f0557600080fd5b86359550602087013567ffffffffffffffff80821115616f2457600080fd5b616f308a838b01616bc0565b96506040890135915080821115616f4657600080fd5b616f528a838b01616bc0565b95506060890135915080821115616f6857600080fd5b616f748a838b01616bc0565b94506080890135915080821115616f8a57600080fd5b50616f9789828a01616bc0565b92505060a087013590509295509295509295565b600080600060608486031215616fc057600080fd5b616fc984616e05565b9250616fd760208501616e05565b9150604084013590509250925092565b600060208284031215616ff957600080fd5b61542e82616e05565b60006101408c83528b60208401528a604084015289606084015288608084015273ffffffffffffffffffffffffffffffffffffffff881660a08401528060c084015261705081840188616da8565b905082810360e08401526170648187616da8565b90508281036101008401526170798186616da8565b905082810361012084015261708e8185616da8565b9d9c50505050505050505050505050565b6000806000606084860312156170b457600080fd5b83359250602084013567ffffffffffffffff808211156170d357600080fd5b6170df87838801616bc0565b935060408601359150808211156170f557600080fd5b50616ea786828701616bc0565b8281526040602082015260006161ca6040830184616da8565b7f4e487b7100000000000000000000000000000000000000000000000000000000600052602160045260246000fd5b60048110617181577f4e487b7100000000000000000000000000000000000000000000000000000000600052602160045260246000fd5b9052565b8d8152602081018d9052604081018c90526101a081016171a8606083018d61714a565b6171b5608083018c61714a565b98151560a082015260c081019790975260e08701959095526101008601939093526101208501919091526101408401526101608301526101809091015295945050505050565b60008060006060848603121561721057600080fd5b505081359360208301359350604090920135919050565b85815284602082015283604082015260a06060820152600061724c60a0830185616da8565b828103608084015261725e8185616da8565b98975050505050505050565b60006020828403121561727c57600080fd5b813567ffffffffffffffff81111561729357600080fd5b6161ca84828501616bc0565b600080600080608085870312156172b557600080fd5b5050823594602084013594506040840135936060013592509050565b600080604083850312156172e457600080fd5b823591506172f460208401616e05565b90509250929050565b6000806040838503121561731057600080fd5b61731983616e05565b91506172f460208401616e05565b7f4e487b7100000000000000000000000000000000000000000000000000000000600052601160045260246000fd5b600181815b808511156173af57817fffffffffffffffffffffffffffffffffffffffffffffffffffffffffffffffff0482111561739557617395617327565b808516156173a257918102915b93841c939080029061735b565b509250929050565b6000826173c657506001611c8b565b816173d357506000611c8b565b81600181146173e957600281146173f35761740f565b6001915050611c8b565b60ff84111561740457617404617327565b50506001821b611c8b565b5060208310610133831016604e8410600b8410161715617432575081810a611c8b565b61743c8383617356565b807fffffffffffffffffffffffffffffffffffffffffffffffffffffffffffffffff0482111561746e5761746e617327565b029392505050565b600061542e83836173b7565b8082028115828204841417611c8b57611c8b617327565b600181811c908216806174ad57607f821691505b6020821081036174e6577f4e487b7100000000000000000000000000000000000000000000000000000000600052602260045260246000fd5b50919050565b601f821115615cfd576000816000526020600020601f850160051c810160208610156175155750805b601f850160051c820191505b8181101561753457828155600101617521565b505050505050565b815167ffffffffffffffff81111561755657617556616b91565b61756a816175648454617499565b846174ec565b602080601f8311600181146175bd57600084156175875750858301515b7fffffffffffffffffffffffffffffffffffffffffffffffffffffffffffffffff600386901b1c1916600185901b178555617534565b6000858152602081207fffffffffffffffffffffffffffffffffffffffffffffffffffffffffffffffe08616915b8281101561760a578886015182559484019460019091019084016175eb565b508582101561764657878501517fffffffffffffffffffffffffffffffffffffffffffffffffffffffffffffffff600388901b60f8161c191681555b5050505050600190811b01905550565b600080835461766481617499565b6001828116801561767c57600181146176af576176de565b7fffffffffffffffffffffffffffffffffffffffffffffffffffffffffffffff00841687528215158302870194506176de565b8760005260208060002060005b858110156176d55781548a8201529084019082016176bc565b50505082870194505b50929695505050505050565b805160208083015191908110156174e6577fffffffffffffffffffffffffffffffffffffffffffffffffffffffffffffffff60209190910360031b1b16919050565b7fffffffff00000000000000000000000000000000000000000000000000000000851681528360048201526000835161776c816024850160208801616d84565b835190830190617783816024840160208801616d84565b016024019695505050505050565b7f4e487b7100000000000000000000000000000000000000000000000000000000600052600160045260246000fd5b848152831515602082015273ffffffffffffffffffffffffffffffffffffffff831660408201526080606082015260006160f36080830184616da8565b81810381811115611c8b57611c8b617327565b60007fffffffffffffffffffffffffffffffffffffffffffffffffffffffffffffffff820361784157617841617327565b5060010190565b60408152600061785b6040830185616da8565b90508260208301529392505050565b6000825161787c818460208701616d84565b9190910192915050565b7f4e487b7100000000000000000000000000000000000000000000000000000000600052601260045260246000fd5b6000826178c4576178c4617886565b500690565b6060815260008085546178db81617499565b80606086015260806001808416600081146178fd576001811461793757617969565b7fffffffffffffffffffffffffffffffffffffffffffffffffffffffffffffff0085166080890152608084151560051b8901019550617969565b8a60005260208060002060005b8681101561795f5781548b8201870152908401908201617944565b8a01608001975050505b505050505060208301949094525060400152919050565b60008261798f5761798f617886565b500490565b80820180821115611c8b57611c8b61732756fe446973636f766572696e67206f7572206265737420467574757265732e204e6f20496e74656c6c65637475616c2050726f70657274792c20416c6c2070726f706f73616c7320617265206d61646520756e64657220746865206c6963656e736520437265617469766520436f6d6d6f6e73204174747269627574696f6e20342e3020496e7465726e6174696f6e616c2028434320425920342e30292e205468697320736d61727420636f6e74726163742069732072756e6e696e6720477561726469616e2048617264666f726b2c2045746963612076332ea2646970667358221220ff21228b7ca8f416d2957fc431fc8b689ef1479e24c42a1b3220e11c13e0b42f64736f6c63430008160033",
  "linkReferences": {},
  "deployedLinkReferences": {}
}