{
  "_format": "hh-sol-artifact-1",
  "contractName": "EticaRelease",
  "sourceName": "contracts/EticaRelease.sol",
  "abi": [
    {
      "inputs": [
        {
          "internalType": "uint256",
          "name": "x",
          "type": "uint256"
        },
        {
          "internalType": "uint256",
          "name": "y",
          "type": "uint256"
        }
      ],
      "name": "PRBMath_MulDiv18_Overflow",
      "type": "error"
    },
    {
      "inputs": [
        {
          "internalType": "UD60x18",
          "name": "x",
          "type": "uint256"
        }
      ],
      "name": "PRBMath_UD60x18_Exp2_InputTooBig",
      "type": "error"
    },
    {
      "inputs": [
        {
          "internalType": "UD60x18",
          "name": "x",
          "type": "uint256"
        }
      ],
      "name": "PRBMath_UD60x18_Log_InputTooSmall",
      "type": "error"
    },
    {
      "anonymous": false,
      "inputs": [
        {
          "indexed": true,
          "internalType": "address",
          "name": "tokenOwner",
          "type": "address"
        },
        {
          "indexed": true,
          "internalType": "address",
          "name": "spender",
          "type": "address"
        },
        {
          "indexed": false,
          "internalType": "uint256",
          "name": "tokens",
          "type": "uint256"
        }
      ],
      "name": "Approval",
      "type": "event"
    },
    {
      "anonymous": false,
      "inputs": [
        {
          "indexed": true,
          "internalType": "uint256",
          "name": "period_id",
          "type": "uint256"
        },
        {
          "indexed": false,
          "internalType": "uint256",
          "name": "interval",
          "type": "uint256"
        }
      ],
      "name": "CreatedPeriod",
      "type": "event"
    },
    {
      "anonymous": false,
      "inputs": [
        {
          "indexed": true,
          "internalType": "address",
          "name": "from",
          "type": "address"
        },
        {
          "indexed": false,
          "internalType": "uint256",
          "name": "blockreward",
          "type": "uint256"
        },
        {
          "indexed": false,
          "internalType": "uint256",
          "name": "epochCount",
          "type": "uint256"
        },
        {
          "indexed": false,
          "internalType": "bytes32",
          "name": "newChallengeNumber",
          "type": "bytes32"
        }
      ],
      "name": "Mint",
      "type": "event"
    },
    {
      "anonymous": false,
      "inputs": [
        {
          "indexed": true,
          "internalType": "uint256",
          "name": "chunkid",
          "type": "uint256"
        },
        {
          "indexed": true,
          "internalType": "bytes32",
          "name": "diseasehash",
          "type": "bytes32"
        }
      ],
      "name": "NewChunk",
      "type": "event"
    },
    {
      "anonymous": false,
      "inputs": [
        {
          "indexed": true,
          "internalType": "address",
          "name": "_voter",
          "type": "address"
        },
        {
          "indexed": false,
          "internalType": "bytes32",
          "name": "votehash",
          "type": "bytes32"
        },
        {
          "indexed": false,
          "internalType": "uint256",
          "name": "amount",
          "type": "uint256"
        }
      ],
      "name": "NewCommit",
      "type": "event"
    },
    {
      "anonymous": false,
      "inputs": [
        {
          "indexed": true,
          "internalType": "uint256",
          "name": "diseaseindex",
          "type": "uint256"
        },
        {
          "indexed": false,
          "internalType": "string",
          "name": "title",
          "type": "string"
        }
      ],
      "name": "NewDisease",
      "type": "event"
    },
    {
      "anonymous": false,
      "inputs": [
        {
          "indexed": true,
          "internalType": "address",
          "name": "voter",
          "type": "address"
        },
        {
          "indexed": false,
          "internalType": "uint256",
          "name": "fee",
          "type": "uint256"
        },
        {
          "indexed": false,
          "internalType": "bytes32",
          "name": "proposal_hash",
          "type": "bytes32"
        }
      ],
      "name": "NewFee",
      "type": "event"
    },
    {
      "anonymous": false,
      "inputs": [
        {
          "indexed": false,
          "internalType": "bytes32",
          "name": "proposed_release_hash",
          "type": "bytes32"
        },
        {
          "indexed": true,
          "internalType": "address",
          "name": "_proposer",
          "type": "address"
        },
        {
          "indexed": true,
          "internalType": "bytes32",
          "name": "diseasehash",
          "type": "bytes32"
        },
        {
          "indexed": true,
          "internalType": "uint256",
          "name": "chunkid",
          "type": "uint256"
        }
      ],
      "name": "NewProposal",
      "type": "event"
    },
    {
      "anonymous": false,
      "inputs": [
        {
          "indexed": true,
          "internalType": "address",
          "name": "_voter",
          "type": "address"
        },
        {
          "indexed": true,
          "internalType": "bytes32",
          "name": "_proposal",
          "type": "bytes32"
        },
        {
          "indexed": false,
          "internalType": "uint256",
          "name": "amount",
          "type": "uint256"
        }
      ],
      "name": "NewRecover",
      "type": "event"
    },
    {
      "anonymous": false,
      "inputs": [
        {
          "indexed": true,
          "internalType": "address",
          "name": "_voter",
          "type": "address"
        },
        {
          "indexed": true,
          "internalType": "bytes32",
          "name": "_proposal",
          "type": "bytes32"
        },
        {
          "indexed": false,
          "internalType": "uint256",
          "name": "amount",
          "type": "uint256"
        }
      ],
      "name": "NewReveal",
      "type": "event"
    },
    {
      "anonymous": false,
      "inputs": [
        {
          "indexed": true,
          "internalType": "address",
          "name": "voter",
          "type": "address"
        },
        {
          "indexed": false,
          "internalType": "uint256",
          "name": "amount",
          "type": "uint256"
        },
        {
          "indexed": false,
          "internalType": "bytes32",
          "name": "proposal_hash",
          "type": "bytes32"
        },
        {
          "indexed": false,
          "internalType": "uint256",
          "name": "duration",
          "type": "uint256"
        }
      ],
      "name": "NewSlash",
      "type": "event"
    },
    {
      "anonymous": false,
      "inputs": [
        {
          "indexed": true,
          "internalType": "address",
          "name": "staker",
          "type": "address"
        },
        {
          "indexed": false,
          "internalType": "uint256",
          "name": "amount",
          "type": "uint256"
        }
      ],
      "name": "NewStake",
      "type": "event"
    },
    {
      "anonymous": false,
      "inputs": [
        {
          "indexed": true,
          "internalType": "address",
          "name": "staker",
          "type": "address"
        },
        {
          "indexed": false,
          "internalType": "uint256",
          "name": "endtime",
          "type": "uint256"
        },
        {
          "indexed": false,
          "internalType": "uint256",
          "name": "minlimit",
          "type": "uint256"
        }
      ],
      "name": "NewStakescsldt",
      "type": "event"
    },
    {
      "anonymous": false,
      "inputs": [
        {
          "indexed": true,
          "internalType": "address",
          "name": "staker",
          "type": "address"
        },
        {
          "indexed": false,
          "internalType": "uint256",
          "name": "snapamount",
          "type": "uint256"
        }
      ],
      "name": "NewStakesnap",
      "type": "event"
    },
    {
      "anonymous": false,
      "inputs": [
        {
          "indexed": true,
          "internalType": "address",
          "name": "voter",
          "type": "address"
        },
        {
          "indexed": false,
          "internalType": "uint256",
          "name": "amount",
          "type": "uint256"
        },
        {
          "indexed": false,
          "internalType": "bytes32",
          "name": "proposal_hash",
          "type": "bytes32"
        }
      ],
      "name": "RewardClaimed",
      "type": "event"
    },
    {
      "anonymous": false,
      "inputs": [
        {
          "indexed": true,
          "internalType": "address",
          "name": "staker",
          "type": "address"
        },
        {
          "indexed": false,
          "internalType": "uint256",
          "name": "stakeamount",
          "type": "uint256"
        }
      ],
      "name": "StakeClaimed",
      "type": "event"
    },
    {
      "anonymous": false,
      "inputs": [
        {
          "indexed": true,
          "internalType": "address",
          "name": "voter",
          "type": "address"
        },
        {
          "indexed": false,
          "internalType": "bytes32",
          "name": "proposal_hash",
          "type": "bytes32"
        }
      ],
      "name": "TieClaimed",
      "type": "event"
    },
    {
      "anonymous": false,
      "inputs": [
        {
          "indexed": true,
          "internalType": "address",
          "name": "from",
          "type": "address"
        },
        {
          "indexed": true,
          "internalType": "address",
          "name": "to",
          "type": "address"
        },
        {
          "indexed": false,
          "internalType": "uint256",
          "name": "tokens",
          "type": "uint256"
        }
      ],
      "name": "Transfer",
      "type": "event"
    },
    {
      "inputs": [],
      "name": "APPROVAL_THRESHOLD",
      "outputs": [
        {
          "internalType": "uint256",
          "name": "",
          "type": "uint256"
        }
      ],
      "stateMutability": "view",
      "type": "function"
    },
    {
      "inputs": [],
      "name": "DEFAULT_EXTRA_TIME",
      "outputs": [
        {
          "internalType": "uint256",
          "name": "",
          "type": "uint256"
        }
      ],
      "stateMutability": "view",
      "type": "function"
    },
    {
      "inputs": [],
      "name": "DEFAULT_REVEALING_TIME",
      "outputs": [
        {
          "internalType": "uint256",
          "name": "",
          "type": "uint256"
        }
      ],
      "stateMutability": "view",
      "type": "function"
    },
    {
      "inputs": [],
      "name": "DEFAULT_VOTING_TIME",
      "outputs": [
        {
          "internalType": "uint256",
          "name": "",
          "type": "uint256"
        }
      ],
      "stateMutability": "view",
      "type": "function"
    },
    {
      "inputs": [],
      "name": "DISEASE_CREATION_AMOUNT",
      "outputs": [
        {
          "internalType": "uint256",
          "name": "",
          "type": "uint256"
        }
      ],
      "stateMutability": "view",
      "type": "function"
    },
    {
      "inputs": [
        {
          "internalType": "uint256",
          "name": "",
          "type": "uint256"
        }
      ],
      "name": "IntervalsPeriods",
      "outputs": [
        {
          "internalType": "uint256",
          "name": "",
          "type": "uint256"
        }
      ],
      "stateMutability": "view",
      "type": "function"
    },
    {
      "inputs": [],
      "name": "IntervalsPeriodsCounter",
      "outputs": [
        {
          "internalType": "uint256",
          "name": "",
          "type": "uint256"
        }
      ],
      "stateMutability": "view",
      "type": "function"
    },
    {
      "inputs": [],
      "name": "LAST_PERIOD_COST_UPDATE",
      "outputs": [
        {
          "internalType": "uint256",
          "name": "",
          "type": "uint256"
        }
      ],
      "stateMutability": "view",
      "type": "function"
    },
    {
      "inputs": [],
      "name": "PERIODS_PER_THRESHOLD",
      "outputs": [
        {
          "internalType": "uint256",
          "name": "",
          "type": "uint256"
        }
      ],
      "stateMutability": "view",
      "type": "function"
    },
    {
      "inputs": [],
      "name": "PERIOD_CURATION_REWARD_RATIO",
      "outputs": [
        {
          "internalType": "uint256",
          "name": "",
          "type": "uint256"
        }
      ],
      "stateMutability": "view",
      "type": "function"
    },
    {
      "inputs": [],
      "name": "PERIOD_EDITOR_REWARD_RATIO",
      "outputs": [
        {
          "internalType": "uint256",
          "name": "",
          "type": "uint256"
        }
      ],
      "stateMutability": "view",
      "type": "function"
    },
    {
      "inputs": [],
      "name": "PROPOSAL_DEFAULT_VOTE",
      "outputs": [
        {
          "internalType": "uint256",
          "name": "",
          "type": "uint256"
        }
      ],
      "stateMutability": "view",
      "type": "function"
    },
    {
      "inputs": [],
      "name": "PROPOSERS_INCREASER",
      "outputs": [
        {
          "internalType": "uint256",
          "name": "",
          "type": "uint256"
        }
      ],
      "stateMutability": "view",
      "type": "function"
    },
    {
      "inputs": [],
      "name": "PROTOCOL_RATIO_TARGET",
      "outputs": [
        {
          "internalType": "uint256",
          "name": "",
          "type": "uint256"
        }
      ],
      "stateMutability": "view",
      "type": "function"
    },
    {
      "inputs": [
        {
          "internalType": "uint256",
          "name": "",
          "type": "uint256"
        }
      ],
      "name": "PeriodsIssued",
      "outputs": [
        {
          "internalType": "uint256",
          "name": "",
          "type": "uint256"
        }
      ],
      "stateMutability": "view",
      "type": "function"
    },
    {
      "inputs": [],
      "name": "PeriodsIssuedCounter",
      "outputs": [
        {
          "internalType": "uint256",
          "name": "",
          "type": "uint256"
        }
      ],
      "stateMutability": "view",
      "type": "function"
    },
    {
      "inputs": [],
      "name": "REWARD_INTERVAL",
      "outputs": [
        {
          "internalType": "uint256",
          "name": "",
          "type": "uint256"
        }
      ],
      "stateMutability": "view",
      "type": "function"
    },
    {
      "inputs": [],
      "name": "SEVERITY_LEVEL",
      "outputs": [
        {
          "internalType": "uint256",
          "name": "",
          "type": "uint256"
        }
      ],
      "stateMutability": "view",
      "type": "function"
    },
    {
      "inputs": [],
      "name": "STAKING_DURATION",
      "outputs": [
        {
          "internalType": "uint256",
          "name": "",
          "type": "uint256"
        }
      ],
      "stateMutability": "view",
      "type": "function"
    },
    {
      "inputs": [],
      "name": "UNRECOVERABLE_ETI",
      "outputs": [
        {
          "internalType": "uint256",
          "name": "",
          "type": "uint256"
        }
      ],
      "stateMutability": "view",
      "type": "function"
    },
    {
      "inputs": [],
      "name": "UPDATEDV2",
      "outputs": [
        {
          "internalType": "bool",
          "name": "",
          "type": "bool"
        }
      ],
      "stateMutability": "view",
      "type": "function"
    },
    {
      "inputs": [],
      "name": "_BLOCKS_PER_READJUSTMENT",
      "outputs": [
        {
          "internalType": "uint256",
          "name": "",
          "type": "uint256"
        }
      ],
      "stateMutability": "view",
      "type": "function"
    },
    {
      "inputs": [],
      "name": "_MAXIMUM_TARGET",
      "outputs": [
        {
          "internalType": "uint256",
          "name": "",
          "type": "uint256"
        }
      ],
      "stateMutability": "view",
      "type": "function"
    },
    {
      "inputs": [],
      "name": "_MINIMUM_TARGET",
      "outputs": [
        {
          "internalType": "uint256",
          "name": "",
          "type": "uint256"
        }
      ],
      "stateMutability": "view",
      "type": "function"
    },
    {
      "inputs": [],
      "name": "_totalMiningSupply",
      "outputs": [
        {
          "internalType": "uint256",
          "name": "",
          "type": "uint256"
        }
      ],
      "stateMutability": "view",
      "type": "function"
    },
    {
      "inputs": [],
      "name": "accessibleSupply",
      "outputs": [
        {
          "internalType": "uint256",
          "name": "",
          "type": "uint256"
        }
      ],
      "stateMutability": "view",
      "type": "function"
    },
    {
      "inputs": [
        {
          "internalType": "address",
          "name": "tokenOwner",
          "type": "address"
        },
        {
          "internalType": "address",
          "name": "spender",
          "type": "address"
        }
      ],
      "name": "allowance",
      "outputs": [
        {
          "internalType": "uint256",
          "name": "",
          "type": "uint256"
        }
      ],
      "stateMutability": "view",
      "type": "function"
    },
    {
      "inputs": [
        {
          "internalType": "address",
          "name": "spender",
          "type": "address"
        },
        {
          "internalType": "uint256",
          "name": "tokens",
          "type": "uint256"
        }
      ],
      "name": "approve",
      "outputs": [
        {
          "internalType": "bool",
          "name": "",
          "type": "bool"
        }
      ],
      "stateMutability": "nonpayable",
      "type": "function"
    },
    {
      "inputs": [
        {
          "internalType": "address",
          "name": "tokenOwner",
          "type": "address"
        }
      ],
      "name": "balanceOf",
      "outputs": [
        {
          "internalType": "uint256",
          "name": "balance",
          "type": "uint256"
        }
      ],
      "stateMutability": "view",
      "type": "function"
    },
    {
      "inputs": [
        {
          "internalType": "address",
          "name": "",
          "type": "address"
        }
      ],
      "name": "balances",
      "outputs": [
        {
          "internalType": "uint256",
          "name": "",
          "type": "uint256"
        }
      ],
      "stateMutability": "view",
      "type": "function"
    },
    {
      "inputs": [
        {
          "internalType": "address",
          "name": "",
          "type": "address"
        }
      ],
      "name": "blockedeticas",
      "outputs": [
        {
          "internalType": "uint256",
          "name": "",
          "type": "uint256"
        }
      ],
      "stateMutability": "view",
      "type": "function"
    },
    {
      "inputs": [],
      "name": "blockreward",
      "outputs": [
        {
          "internalType": "uint256",
          "name": "",
          "type": "uint256"
        }
      ],
      "stateMutability": "view",
      "type": "function"
    },
    {
      "inputs": [
        {
          "internalType": "address",
          "name": "",
          "type": "address"
        }
      ],
      "name": "bosoms",
      "outputs": [
        {
          "internalType": "uint256",
          "name": "",
          "type": "uint256"
        }
      ],
      "stateMutability": "view",
      "type": "function"
    },
    {
      "inputs": [
        {
          "internalType": "address",
          "name": "tokenOwner",
          "type": "address"
        }
      ],
      "name": "bosomsOf",
      "outputs": [
        {
          "internalType": "uint256",
          "name": "_bosoms",
          "type": "uint256"
        }
      ],
      "stateMutability": "view",
      "type": "function"
    },
    {
      "inputs": [],
      "name": "challengeNumber",
      "outputs": [
        {
          "internalType": "bytes32",
          "name": "",
          "type": "bytes32"
        }
      ],
      "stateMutability": "view",
      "type": "function"
    },
    {
      "inputs": [
        {
          "internalType": "uint256",
          "name": "nonce",
          "type": "uint256"
        },
        {
          "internalType": "bytes32",
          "name": "challenge_digest",
          "type": "bytes32"
        },
        {
          "internalType": "bytes32",
          "name": "challenge_number",
          "type": "bytes32"
        },
        {
          "internalType": "uint256",
          "name": "testTarget",
          "type": "uint256"
        }
      ],
      "name": "checkMintSolution",
      "outputs": [
        {
          "internalType": "bool",
          "name": "success",
          "type": "bool"
        }
      ],
      "stateMutability": "view",
      "type": "function"
    },
    {
      "inputs": [
        {
          "internalType": "uint256",
          "name": "",
          "type": "uint256"
        }
      ],
      "name": "chunkProposalsCounter",
      "outputs": [
        {
          "internalType": "uint256",
          "name": "",
          "type": "uint256"
        }
      ],
      "stateMutability": "view",
      "type": "function"
    },
    {
      "inputs": [
        {
          "internalType": "uint256",
          "name": "",
          "type": "uint256"
        },
        {
          "internalType": "uint256",
          "name": "",
          "type": "uint256"
        }
      ],
      "name": "chunkproposals",
      "outputs": [
        {
          "internalType": "bytes32",
          "name": "",
          "type": "bytes32"
        }
      ],
      "stateMutability": "view",
      "type": "function"
    },
    {
      "inputs": [
        {
          "internalType": "uint256",
          "name": "",
          "type": "uint256"
        }
      ],
      "name": "chunks",
      "outputs": [
        {
          "internalType": "uint256",
          "name": "id",
          "type": "uint256"
        },
        {
          "internalType": "bytes32",
          "name": "diseaseid",
          "type": "bytes32"
        },
        {
          "internalType": "uint256",
          "name": "idx",
          "type": "uint256"
        },
        {
          "internalType": "string",
          "name": "title",
          "type": "string"
        },
        {
          "internalType": "string",
          "name": "desc",
          "type": "string"
        }
      ],
      "stateMutability": "view",
      "type": "function"
    },
    {
      "inputs": [],
      "name": "chunksCounter",
      "outputs": [
        {
          "internalType": "uint256",
          "name": "",
          "type": "uint256"
        }
      ],
      "stateMutability": "view",
      "type": "function"
    },
    {
      "inputs": [
        {
          "internalType": "bytes32",
          "name": "_proposed_release_hash",
          "type": "bytes32"
        }
      ],
      "name": "clmpropbyhash",
      "outputs": [],
      "stateMutability": "nonpayable",
      "type": "function"
    },
    {
      "inputs": [
        {
          "internalType": "address",
          "name": "",
          "type": "address"
        },
        {
          "internalType": "bytes32",
          "name": "",
          "type": "bytes32"
        }
      ],
      "name": "commits",
      "outputs": [
        {
          "internalType": "uint256",
          "name": "amount",
          "type": "uint256"
        },
        {
          "internalType": "uint256",
          "name": "timestamp",
          "type": "uint256"
        }
      ],
      "stateMutability": "view",
      "type": "function"
    },
    {
      "inputs": [
        {
          "internalType": "uint256",
          "name": "_amount",
          "type": "uint256"
        },
        {
          "internalType": "bytes32",
          "name": "_votehash",
          "type": "bytes32"
        }
      ],
      "name": "commitvote",
      "outputs": [],
      "stateMutability": "nonpayable",
      "type": "function"
    },
    {
      "inputs": [
        {
          "internalType": "bytes32",
          "name": "_diseasehash",
          "type": "bytes32"
        },
        {
          "internalType": "string",
          "name": "_title",
          "type": "string"
        },
        {
          "internalType": "string",
          "name": "_description",
          "type": "string"
        }
      ],
      "name": "createchunk",
      "outputs": [],
      "stateMutability": "nonpayable",
      "type": "function"
    },
    {
      "inputs": [
        {
          "internalType": "string",
          "name": "_name",
          "type": "string"
        }
      ],
      "name": "createdisease",
      "outputs": [],
      "stateMutability": "nonpayable",
      "type": "function"
    },
    {
      "inputs": [],
      "name": "decimals",
      "outputs": [
        {
          "internalType": "uint256",
          "name": "",
          "type": "uint256"
        }
      ],
      "stateMutability": "view",
      "type": "function"
    },
    {
      "inputs": [
        {
          "internalType": "bytes32",
          "name": "",
          "type": "bytes32"
        }
      ],
      "name": "diseaseChunksCounter",
      "outputs": [
        {
          "internalType": "uint256",
          "name": "",
          "type": "uint256"
        }
      ],
      "stateMutability": "view",
      "type": "function"
    },
    {
      "inputs": [
        {
          "internalType": "bytes32",
          "name": "",
          "type": "bytes32"
        }
      ],
      "name": "diseaseProposalsCounter",
      "outputs": [
        {
          "internalType": "uint256",
          "name": "",
          "type": "uint256"
        }
      ],
      "stateMutability": "view",
      "type": "function"
    },
    {
      "inputs": [
        {
          "internalType": "bytes32",
          "name": "",
          "type": "bytes32"
        },
        {
          "internalType": "uint256",
          "name": "",
          "type": "uint256"
        }
      ],
      "name": "diseasechunks",
      "outputs": [
        {
          "internalType": "uint256",
          "name": "",
          "type": "uint256"
        }
      ],
      "stateMutability": "view",
      "type": "function"
    },
    {
      "inputs": [
        {
          "internalType": "bytes32",
          "name": "",
          "type": "bytes32"
        },
        {
          "internalType": "uint256",
          "name": "",
          "type": "uint256"
        }
      ],
      "name": "diseaseproposals",
      "outputs": [
        {
          "internalType": "bytes32",
          "name": "",
          "type": "bytes32"
        }
      ],
      "stateMutability": "view",
      "type": "function"
    },
    {
      "inputs": [
        {
          "internalType": "uint256",
          "name": "",
          "type": "uint256"
        }
      ],
      "name": "diseases",
      "outputs": [
        {
          "internalType": "bytes32",
          "name": "disease_hash",
          "type": "bytes32"
        },
        {
          "internalType": "string",
          "name": "name",
          "type": "string"
        }
      ],
      "stateMutability": "view",
      "type": "function"
    },
    {
      "inputs": [],
      "name": "diseasesCounter",
      "outputs": [
        {
          "internalType": "uint256",
          "name": "",
          "type": "uint256"
        }
      ],
      "stateMutability": "view",
      "type": "function"
    },
    {
      "inputs": [
        {
          "internalType": "bytes32",
          "name": "",
          "type": "bytes32"
        }
      ],
      "name": "diseasesbyIds",
      "outputs": [
        {
          "internalType": "uint256",
          "name": "",
          "type": "uint256"
        }
      ],
      "stateMutability": "view",
      "type": "function"
    },
    {
      "inputs": [],
      "name": "epochCount",
      "outputs": [
        {
          "internalType": "uint256",
          "name": "",
          "type": "uint256"
        }
      ],
      "stateMutability": "view",
      "type": "function"
    },
    {
      "inputs": [
        {
          "internalType": "address",
          "name": "_staker",
          "type": "address"
        },
        {
          "internalType": "uint256",
          "name": "_amount",
          "type": "uint256"
        }
      ],
      "name": "eticatobosoms",
      "outputs": [
        {
          "internalType": "bool",
          "name": "success",
          "type": "bool"
        }
      ],
      "stateMutability": "nonpayable",
      "type": "function"
    },
    {
      "inputs": [],
      "name": "getChallengeNumber",
      "outputs": [
        {
          "internalType": "bytes32",
          "name": "",
          "type": "bytes32"
        }
      ],
      "stateMutability": "view",
      "type": "function"
    },
    {
      "inputs": [],
      "name": "getMiningDifficulty",
      "outputs": [
        {
          "internalType": "uint256",
          "name": "",
          "type": "uint256"
        }
      ],
      "stateMutability": "view",
      "type": "function"
    },
    {
      "inputs": [],
      "name": "getMiningReward",
      "outputs": [
        {
          "internalType": "uint256",
          "name": "",
          "type": "uint256"
        }
      ],
      "stateMutability": "view",
      "type": "function"
    },
    {
      "inputs": [],
      "name": "getMiningTarget",
      "outputs": [
        {
          "internalType": "uint256",
          "name": "",
          "type": "uint256"
        }
      ],
      "stateMutability": "view",
      "type": "function"
    },
    {
      "inputs": [
        {
          "internalType": "uint256",
          "name": "nonce",
          "type": "uint256"
        },
        {
          "internalType": "bytes32",
          "name": "challenge_digest",
          "type": "bytes32"
        },
        {
          "internalType": "bytes32",
          "name": "challenge_number",
          "type": "bytes32"
        }
      ],
      "name": "getMintDigest",
      "outputs": [
        {
          "internalType": "bytes32",
          "name": "digesttest",
          "type": "bytes32"
        }
      ],
      "stateMutability": "view",
      "type": "function"
    },
    {
      "inputs": [
        {
          "internalType": "string",
          "name": "_name",
          "type": "string"
        }
      ],
      "name": "getdiseasehashbyName",
      "outputs": [
        {
          "internalType": "bytes32",
          "name": "_diseasehash",
          "type": "bytes32"
        }
      ],
      "stateMutability": "view",
      "type": "function"
    },
    {
      "inputs": [],
      "name": "inflationrate",
      "outputs": [
        {
          "internalType": "uint256",
          "name": "",
          "type": "uint256"
        }
      ],
      "stateMutability": "view",
      "type": "function"
    },
    {
      "inputs": [],
      "name": "initiatormsg",
      "outputs": [
        {
          "internalType": "string",
          "name": "",
          "type": "string"
        }
      ],
      "stateMutability": "view",
      "type": "function"
    },
    {
      "inputs": [],
      "name": "lastRewardEthBlockNumber",
      "outputs": [
        {
          "internalType": "uint256",
          "name": "",
          "type": "uint256"
        }
      ],
      "stateMutability": "view",
      "type": "function"
    },
    {
      "inputs": [],
      "name": "lastRewardTo",
      "outputs": [
        {
          "internalType": "address",
          "name": "",
          "type": "address"
        }
      ],
      "stateMutability": "view",
      "type": "function"
    },
    {
      "inputs": [],
      "name": "latestDifficultyPeriodStarted",
      "outputs": [
        {
          "internalType": "uint256",
          "name": "",
          "type": "uint256"
        }
      ],
      "stateMutability": "view",
      "type": "function"
    },
    {
      "inputs": [],
      "name": "miningTarget",
      "outputs": [
        {
          "internalType": "uint256",
          "name": "",
          "type": "uint256"
        }
      ],
      "stateMutability": "view",
      "type": "function"
    },
    {
      "inputs": [
        {
          "internalType": "uint256",
          "name": "nonce",
          "type": "uint256"
        },
        {
          "internalType": "bytes32",
          "name": "challenge_digest",
          "type": "bytes32"
        }
      ],
      "name": "mint",
      "outputs": [
        {
          "internalType": "bool",
          "name": "success",
          "type": "bool"
        }
      ],
      "stateMutability": "nonpayable",
      "type": "function"
    },
    {
      "inputs": [],
      "name": "name",
      "outputs": [
        {
          "internalType": "string",
          "name": "",
          "type": "string"
        }
      ],
      "stateMutability": "view",
      "type": "function"
    },
    {
      "inputs": [],
      "name": "periodrewardtemp",
      "outputs": [
        {
          "internalType": "uint256",
          "name": "",
          "type": "uint256"
        }
      ],
      "stateMutability": "view",
      "type": "function"
    },
    {
      "inputs": [
        {
          "internalType": "uint256",
          "name": "",
          "type": "uint256"
        }
      ],
      "name": "periods",
      "outputs": [
        {
          "internalType": "uint256",
          "name": "id",
          "type": "uint256"
        },
        {
          "internalType": "uint256",
          "name": "interval",
          "type": "uint256"
        },
        {
          "internalType": "uint256",
          "name": "curation_sum",
          "type": "uint256"
        },
        {
          "internalType": "uint256",
          "name": "editor_sum",
          "type": "uint256"
        },
        {
          "internalType": "uint256",
          "name": "reward_for_curation",
          "type": "uint256"
        },
        {
          "internalType": "uint256",
          "name": "reward_for_editor",
          "type": "uint256"
        },
        {
          "internalType": "uint256",
          "name": "forprops",
          "type": "uint256"
        },
        {
          "internalType": "uint256",
          "name": "againstprops",
          "type": "uint256"
        }
      ],
      "stateMutability": "view",
      "type": "function"
    },
    {
      "inputs": [],
      "name": "periodsCounter",
      "outputs": [
        {
          "internalType": "uint256",
          "name": "",
          "type": "uint256"
        }
      ],
      "stateMutability": "view",
      "type": "function"
    },
    {
      "inputs": [
        {
          "internalType": "bytes32",
          "name": "",
          "type": "bytes32"
        }
      ],
      "name": "proposals",
      "outputs": [
        {
          "internalType": "uint256",
          "name": "id",
          "type": "uint256"
        },
        {
          "internalType": "bytes32",
          "name": "proposed_release_hash",
          "type": "bytes32"
        },
        {
          "internalType": "bytes32",
          "name": "disease_id",
          "type": "bytes32"
        },
        {
          "internalType": "uint256",
          "name": "period_id",
          "type": "uint256"
        },
        {
          "internalType": "uint256",
          "name": "chunk_id",
          "type": "uint256"
        },
        {
          "internalType": "address",
          "name": "proposer",
          "type": "address"
        },
        {
          "internalType": "string",
          "name": "title",
          "type": "string"
        },
        {
          "internalType": "string",
          "name": "description",
          "type": "string"
        },
        {
          "internalType": "string",
          "name": "freefield",
          "type": "string"
        },
        {
          "internalType": "string",
          "name": "raw_release_hash",
          "type": "string"
        }
      ],
      "stateMutability": "view",
      "type": "function"
    },
    {
      "inputs": [],
      "name": "proposalsCounter",
      "outputs": [
        {
          "internalType": "uint256",
          "name": "",
          "type": "uint256"
        }
      ],
      "stateMutability": "view",
      "type": "function"
    },
    {
      "inputs": [
        {
          "internalType": "uint256",
          "name": "",
          "type": "uint256"
        }
      ],
      "name": "proposalsbyIndex",
      "outputs": [
        {
          "internalType": "bytes32",
          "name": "",
          "type": "bytes32"
        }
      ],
      "stateMutability": "view",
      "type": "function"
    },
    {
      "inputs": [
        {
          "internalType": "bytes32",
          "name": "_diseasehash",
          "type": "bytes32"
        },
        {
          "internalType": "string",
          "name": "_title",
          "type": "string"
        },
        {
          "internalType": "string",
          "name": "_description",
          "type": "string"
        },
        {
          "internalType": "string",
          "name": "raw_release_hash",
          "type": "string"
        },
        {
          "internalType": "string",
          "name": "_freefield",
          "type": "string"
        },
        {
          "internalType": "uint256",
          "name": "_chunkid",
          "type": "uint256"
        }
      ],
      "name": "propose",
      "outputs": [],
      "stateMutability": "nonpayable",
      "type": "function"
    },
    {
      "inputs": [
        {
          "internalType": "bytes32",
          "name": "",
          "type": "bytes32"
        }
      ],
      "name": "propsdatas",
      "outputs": [
        {
          "internalType": "uint256",
          "name": "starttime",
          "type": "uint256"
        },
        {
          "internalType": "uint256",
          "name": "endtime",
          "type": "uint256"
        },
        {
          "internalType": "uint256",
          "name": "finalized_time",
          "type": "uint256"
        },
        {
          "internalType": "enum EticaRelease.ProposalStatus",
          "name": "status",
          "type": "uint8"
        },
        {
          "internalType": "enum EticaRelease.ProposalStatus",
          "name": "prestatus",
          "type": "uint8"
        },
        {
          "internalType": "bool",
          "name": "istie",
          "type": "bool"
        },
        {
          "internalType": "uint256",
          "name": "nbvoters",
          "type": "uint256"
        },
        {
          "internalType": "uint256",
          "name": "slashingratio",
          "type": "uint256"
        },
        {
          "internalType": "uint256",
          "name": "forvotes",
          "type": "uint256"
        },
        {
          "internalType": "uint256",
          "name": "againstvotes",
          "type": "uint256"
        },
        {
          "internalType": "uint256",
          "name": "lastcuration_weight",
          "type": "uint256"
        },
        {
          "internalType": "uint256",
          "name": "lasteditor_weight",
          "type": "uint256"
        },
        {
          "internalType": "uint256",
          "name": "approvalthreshold",
          "type": "uint256"
        }
      ],
      "stateMutability": "view",
      "type": "function"
    },
    {
      "inputs": [
        {
          "internalType": "address",
          "name": "",
          "type": "address"
        },
        {
          "internalType": "bytes32",
          "name": "",
          "type": "bytes32"
        }
      ],
      "name": "qamounts",
      "outputs": [
        {
          "internalType": "uint256",
          "name": "amount",
          "type": "uint256"
        }
      ],
      "stateMutability": "view",
      "type": "function"
    },
    {
      "inputs": [
        {
          "internalType": "bytes32",
          "name": "_proposed_release_hash",
          "type": "bytes32"
        },
        {
          "internalType": "bool",
          "name": "_approved",
          "type": "bool"
        },
        {
          "internalType": "string",
          "name": "_vary",
          "type": "string"
        }
      ],
      "name": "recovercommit",
      "outputs": [],
      "stateMutability": "nonpayable",
      "type": "function"
    },
    {
      "inputs": [
        {
          "internalType": "bytes32",
          "name": "_votehash",
          "type": "bytes32"
        }
      ],
      "name": "recoverlostcommit",
      "outputs": [],
      "stateMutability": "nonpayable",
      "type": "function"
    },
    {
      "inputs": [
        {
          "internalType": "bytes32",
          "name": "_proposed_release_hash",
          "type": "bytes32"
        },
        {
          "internalType": "bool",
          "name": "_approved",
          "type": "bool"
        },
        {
          "internalType": "string",
          "name": "_vary",
          "type": "string"
        }
      ],
      "name": "revealvote",
      "outputs": [],
      "stateMutability": "nonpayable",
      "type": "function"
    },
    {
      "inputs": [
        {
          "internalType": "uint256",
          "name": "_stakeidx",
          "type": "uint256"
        }
      ],
      "name": "stakeclmidx",
      "outputs": [],
      "stateMutability": "nonpayable",
      "type": "function"
    },
    {
      "inputs": [
        {
          "internalType": "address",
          "name": "",
          "type": "address"
        },
        {
          "internalType": "uint256",
          "name": "",
          "type": "uint256"
        }
      ],
      "name": "stakes",
      "outputs": [
        {
          "internalType": "uint256",
          "name": "amount",
          "type": "uint256"
        },
        {
          "internalType": "uint256",
          "name": "endTime",
          "type": "uint256"
        }
      ],
      "stateMutability": "view",
      "type": "function"
    },
    {
      "inputs": [
        {
          "internalType": "address",
          "name": "",
          "type": "address"
        }
      ],
      "name": "stakesAmount",
      "outputs": [
        {
          "internalType": "uint256",
          "name": "",
          "type": "uint256"
        }
      ],
      "stateMutability": "view",
      "type": "function"
    },
    {
      "inputs": [
        {
          "internalType": "address",
          "name": "",
          "type": "address"
        }
      ],
      "name": "stakesCounters",
      "outputs": [
        {
          "internalType": "uint256",
          "name": "",
          "type": "uint256"
        }
      ],
      "stateMutability": "view",
      "type": "function"
    },
    {
      "inputs": [
        {
          "internalType": "address",
          "name": "_staker",
          "type": "address"
        }
      ],
      "name": "stakescount",
      "outputs": [
        {
          "internalType": "uint256",
          "name": "slength",
          "type": "uint256"
        }
      ],
      "stateMutability": "view",
      "type": "function"
    },
    {
      "inputs": [
        {
          "internalType": "uint256",
          "name": "_endTime",
          "type": "uint256"
        },
        {
          "internalType": "uint256",
          "name": "_min_limit",
          "type": "uint256"
        },
        {
          "internalType": "uint256",
          "name": "_maxidx",
          "type": "uint256"
        }
      ],
      "name": "stakescsldt",
      "outputs": [],
      "stateMutability": "nonpayable",
      "type": "function"
    },
    {
      "inputs": [
        {
          "internalType": "uint256",
          "name": "_stakeidx",
          "type": "uint256"
        },
        {
          "internalType": "uint256",
          "name": "_snapamount",
          "type": "uint256"
        }
      ],
      "name": "stakesnap",
      "outputs": [],
      "stateMutability": "nonpayable",
      "type": "function"
    },
    {
      "inputs": [],
      "name": "supply",
      "outputs": [
        {
          "internalType": "uint256",
          "name": "",
          "type": "uint256"
        }
      ],
      "stateMutability": "view",
      "type": "function"
    },
    {
      "inputs": [],
      "name": "symbol",
      "outputs": [
        {
          "internalType": "string",
          "name": "",
          "type": "string"
        }
      ],
      "stateMutability": "view",
      "type": "function"
    },
    {
      "inputs": [],
      "name": "tokensMinted",
      "outputs": [
        {
          "internalType": "uint256",
          "name": "",
          "type": "uint256"
        }
      ],
      "stateMutability": "view",
      "type": "function"
    },
    {
      "inputs": [],
      "name": "totalSupply",
      "outputs": [
        {
          "internalType": "uint256",
          "name": "",
          "type": "uint256"
        }
      ],
      "stateMutability": "view",
      "type": "function"
    },
    {
      "inputs": [
        {
          "internalType": "address",
          "name": "to",
          "type": "address"
        },
        {
          "internalType": "uint256",
          "name": "tokens",
          "type": "uint256"
        }
      ],
      "name": "transfer",
      "outputs": [
        {
          "internalType": "bool",
          "name": "success",
          "type": "bool"
        }
      ],
      "stateMutability": "nonpayable",
      "type": "function"
    },
    {
      "inputs": [
        {
          "internalType": "address",
          "name": "from",
          "type": "address"
        },
        {
          "internalType": "address",
          "name": "to",
          "type": "address"
        },
        {
          "internalType": "uint256",
          "name": "tokens",
          "type": "uint256"
        }
      ],
      "name": "transferFrom",
      "outputs": [
        {
          "internalType": "bool",
          "name": "",
          "type": "bool"
        }
      ],
      "stateMutability": "nonpayable",
      "type": "function"
    },
    {
      "inputs": [],
      "name": "updatecost",
      "outputs": [],
      "stateMutability": "nonpayable",
      "type": "function"
    },
    {
      "inputs": [],
      "name": "updatev2",
      "outputs": [],
      "stateMutability": "nonpayable",
      "type": "function"
    },
    {
      "inputs": [
        {
          "internalType": "bytes32",
          "name": "",
          "type": "bytes32"
        },
        {
          "internalType": "address",
          "name": "",
          "type": "address"
        }
      ],
      "name": "votes",
      "outputs": [
        {
          "internalType": "bytes32",
          "name": "proposal_hash",
          "type": "bytes32"
        },
        {
          "internalType": "bool",
          "name": "approve",
          "type": "bool"
        },
        {
          "internalType": "bool",
          "name": "is_editor",
          "type": "bool"
        },
        {
          "internalType": "uint256",
          "name": "amount",
          "type": "uint256"
        },
        {
          "internalType": "address",
          "name": "voter",
          "type": "address"
        },
        {
          "internalType": "uint256",
          "name": "timestamp",
          "type": "uint256"
        },
        {
          "internalType": "bool",
          "name": "is_claimed",
          "type": "bool"
        }
      ],
      "stateMutability": "view",
      "type": "function"
    },
    {
      "stateMutability": "payable",
      "type": "receive"
    }
  ],
  "bytecode": "0x60c06040526005608090815264457469636160d81b60a052600090620000269082620004c8565b5060408051808201909152600381526245544960e81b6020820152600190620000509082620004c8565b5060126002556408e4b1e125600655640e63c506db6007556107e0600e556004600f55600160e01b60105562093a806019556224ea00601a55621baf80601b5562093a80601c55600254600a620000a89190620006a7565b620000b5906064620006b5565b601d55600254620000c890600a620006a7565b620000d590600a620006b5565b601e55611388601f5560056020556001602181905560225561182460235560006024556043805460ff1916905562093a806044553480156200011657600080fd5b5068056bc75e2d631000006003819055306000908152600960205260409020546200014191620001bc565b3060009081526009602052604090205568da5351938e7eb5b95c6005556002546200016e90600a620006a7565b6200017d9062b03d30620006b5565b600b5560006017556801f30795e38ed87acc60135560105460115542600c55620001a6620001e0565b6b1004c20e49aa3240785fcad26004556200073f565b6000620001ca8284620006cf565b905082811015620001da57600080fd5b92915050565b600d54620001f0906001620001bc565b600d819055600e546200020391620006fb565b60000362000215576200021562000265565b62000222436001620003b2565b406012819055601854600d54604080516020810194909452830191909152606082015260800160408051601f198184030181529190528051602090910120601255565b601154600c546000906200027b904290620003b2565b600e549091506000906200029290610258620003d5565b90508082101562000315576000620002b983620002b2846103e8620003d5565b9062000407565b9050610fa0811115620002cb5750610fa05b601154620002e3908290620002b2906103e8620003d5565b601155620002f384600462000407565b60115410156200030e576200030a84600462000407565b6011555b5062000381565b60006200032a82620002b2856103e8620003d5565b9050610fa08111156200033c5750610fa05b60115462000354906103e890620002b29084620003d5565b60115562000364846004620003d5565b60115411156200037f576200037b846004620003d5565b6011555b505b42600c55600f5460115410156200039957600f546011555b6010546011541115620003ad576010546011555b505050565b600082821115620003c257600080fd5b620003ce828462000712565b9392505050565b6000620003e38284620006b5565b9050821580620003fd575081620003fb848362000728565b145b620001da57600080fd5b60008082116200041657600080fd5b620003ce828462000728565b634e487b7160e01b600052604160045260246000fd5b600181811c908216806200044d57607f821691505b6020821081036200046e57634e487b7160e01b600052602260045260246000fd5b50919050565b601f821115620003ad576000816000526020600020601f850160051c810160208610156200049f5750805b601f850160051c820191505b81811015620004c057828155600101620004ab565b505050505050565b81516001600160401b03811115620004e457620004e462000422565b620004fc81620004f5845462000438565b8462000474565b602080601f8311600181146200053457600084156200051b5750858301515b600019600386901b1c1916600185901b178555620004c0565b600085815260208120601f198616915b82811015620005655788860151825594840194600190910190840162000544565b5085821015620005845787850151600019600388901b60f8161c191681555b5050505050600190811b01905550565b634e487b7160e01b600052601160045260246000fd5b600181815b80851115620005eb578160001904821115620005cf57620005cf62000594565b80851615620005dd57918102915b93841c9390800290620005af565b509250929050565b6000826200060457506001620001da565b816200061357506000620001da565b81600181146200062c5760028114620006375762000657565b6001915050620001da565b60ff8411156200064b576200064b62000594565b50506001821b620001da565b5060208310610133831016604e8410600b84101617156200067c575081810a620001da565b620006888383620005aa565b80600019048211156200069f576200069f62000594565b029392505050565b6000620003ce8383620005f3565b8082028115828204841417620001da57620001da62000594565b80820180821115620001da57620001da62000594565b634e487b7160e01b600052601260045260246000fd5b6000826200070d576200070d620006e5565b500690565b81810381811115620001da57620001da62000594565b6000826200073a576200073a620006e5565b500490565b617086806200074f6000396000f3fe6080604052600436106106315760003560e01c80636fbbbf1d1161032d578063b6407769116101b0578063d89abcb5116100f7578063ea4a1104116100a0578063f71ae2aa1161007a578063f71ae2aa14611462578063f8c12e2c14611478578063f8d8268314611498578063fc84abb7146114c557600080fd5b8063ea4a110414611366578063ecd3cb82146113ff578063f08a01f81461141f57600080fd5b8063e47e25a2116100d1578063e47e25a2146112f6578063e723b9d914611323578063e729798e1461135057600080fd5b8063d89abcb514611278578063dc6e9cf91461128d578063dd62ed3e146112a357600080fd5b8063cb9ae70711610159578063d40170d711610133578063d40170d71461121f578063d732b83514611235578063d74ce8c51461126257600080fd5b8063cb9ae707146111dd578063cf70fa40146111f3578063d03150c61461120957600080fd5b8063bf6fc7251161018a578063bf6fc72514611158578063c198857614611178578063c7bef6ee146111b057600080fd5b8063b640776914611112578063b87c0c1d14611128578063be7d798e1461114257600080fd5b80638ae0368b11610274578063a9059cbb1161021d578063b4ef00f0116101f7578063b4ef00f0146110c6578063b54f31db146110e6578063b5ade81b146110fc57600080fd5b8063a9059cbb14611071578063b01ab0b214611091578063b31102e2146110a657600080fd5b806397566aa01161024e57806397566aa014610fce5780639969017814611045578063a5ec87e41461105b57600080fd5b80638ae0368b14610ed25780639386775a14610ee857806395d89b4114610fb957600080fd5b806381269a56116102d657806387a2a9d6116102b057806387a2a9d614610e795780638885898514610e8f5780638a769d3514610ebc57600080fd5b806381269a5614610e16578063829965cc14610e36578063841218ee14610e4c57600080fd5b806370a082311161030757806370a0823114610d745780637516528014610db75780637f66cb4e14610df657600080fd5b80636fbbbf1d14610cf65780636fd396d614610d0c5780637006695114610d5e57600080fd5b8063366c41a3116104b5578063509fce5b116103fc5780635dbdda69116103a55780636352170f1161037f5780636352170f14610ca05780636bb5a58214610cc05780636de9f32b14610ce057600080fd5b80635dbdda6914610c0f5780635dfa739614610c2557806362adb2e114610c6857600080fd5b8063584b62a1116103d6578063584b62a114610b755780635965916f14610bc95780635a2bc22d14610bde57600080fd5b8063509fce5b14610b125780635327d4af14610b285780635708416414610b4857600080fd5b8063410e1b071161045e578063490203a711610438578063490203a714610a4a5780634b44c6aa14610a5f5780634ef3762814610afd57600080fd5b8063410e1b07146109ce578063424d3894146109e457806346459b2214610a1c57600080fd5b80633925bfe71161048f5780633925bfe7146109825780633ab34290146109985780633c5e64d1146109ae57600080fd5b8063366c41a314610940578063370ef54f1461095657806337eed2d61461096c57600080fd5b80631883a8d0116105795780632e1750041161052257806332e99708116104fc57806332e99708146108c857806332ed5b12146108dd578063356df5ee1461091357600080fd5b80632e175004146108865780632f40907c1461089c578063313ce567146108b257600080fd5b806322ae4ccf1161055357806322ae4ccf1461081957806323b872dd1461083957806327e235e31461085957600080fd5b80631883a8d0146107ac5780631dcc83a9146107e4578063229cb73c1461080457600080fd5b80631081a47e116105db5780631801fbe5116105b55780631801fbe51461076157806318160ddd146107815780631853f0a81461079657600080fd5b80631081a47e14610709578063163aa00d1461073657806317da485f1461074c57600080fd5b8063095ea7b31161060c578063095ea7b3146106a15780630db5fea4146106d15780630dbc6c55146106f357600080fd5b8062e6e55314610640578063047fc9aa1461066957806306fdde031461067f57600080fd5b3661063b57600080fd5b600080fd5b34801561064c57600080fd5b5061065660075481565b6040519081526020015b60405180910390f35b34801561067557600080fd5b5061065660035481565b34801561068b57600080fd5b506106946114f2565b60405161066091906164d4565b3480156106ad57600080fd5b506106c16106bc366004616510565b611580565b6040519015158152602001610660565b3480156106dd57600080fd5b506106f16106ec366004616614565b61161c565b005b3480156106ff57600080fd5b5061065660225481565b34801561071557600080fd5b50610656610724366004616672565b602d6020526000908152604090205481565b34801561074257600080fd5b5061065660155481565b34801561075857600080fd5b50610656611d36565b34801561076d57600080fd5b506106c161077c36600461668b565b611d54565b34801561078d57600080fd5b50600354610656565b3480156107a257600080fd5b50610656602a5481565b3480156107b857600080fd5b506106566107c7366004616510565b604260209081526000928352604080842090915290825290205481565b3480156107f057600080fd5b506106f16107ff3660046166ad565b612028565b34801561081057600080fd5b50610656612514565b34801561082557600080fd5b506106f161083436600461668b565b61252d565b34801561084557600080fd5b506106c161085436600461676c565b612671565b34801561086557600080fd5b506106566108743660046167a8565b60096020526000908152604090205481565b34801561089257600080fd5b50610656601a5481565b3480156108a857600080fd5b5061065660365481565b3480156108be57600080fd5b5061065660025481565b3480156108d457600080fd5b50601154610656565b3480156108e957600080fd5b506108fd6108f8366004616672565b6127a3565b6040516106609a999897969594939291906167c3565b34801561091f57600080fd5b5061065661092e366004616672565b60326020526000908152604090205481565b34801561094c57600080fd5b50610656601d5481565b34801561096257600080fd5b50610656601b5481565b34801561097857600080fd5b5061065660245481565b34801561098e57600080fd5b50610656601c5481565b3480156109a457600080fd5b50610656601f5481565b3480156109ba57600080fd5b506106f16109c9366004616860565b612a2b565b3480156109da57600080fd5b50610656600b5481565b3480156109f057600080fd5b506106566109ff36600461668b565b603760209081526000928352604080842090915290825290205481565b348015610a2857600080fd5b50610a3c610a37366004616672565b612bcb565b6040516106609291906168c3565b348015610a5657600080fd5b50610656612c70565b348015610a6b57600080fd5b50610ae4610a7a366004616672565b603460205260009081526040902080546001820154600283015460038401546004850154600586015460068701546007880154600889015460098a0154600a909a015498999798969760ff808816986101008904821698620100009004909116969594939291908d565b6040516106609d9c9b9a99989796959493929190616946565b348015610b0957600080fd5b50601254610656565b348015610b1e57600080fd5b5061065660085481565b348015610b3457600080fd5b506106f1610b433660046169bc565b612c8a565b348015610b5457600080fd5b50610656610b633660046167a8565b603d6020526000908152604090205481565b348015610b8157600080fd5b50610bb4610b90366004616510565b603e6020908152600092835260408084209091529082529020805460019091015482565b60408051928352602083019190915201610660565b348015610bd557600080fd5b50610694612e24565b348015610bea57600080fd5b50610bfe610bf9366004616672565b612e41565b6040516106609594939291906169e8565b348015610c1b57600080fd5b5061065660195481565b348015610c3157600080fd5b50610656610c403660046167a8565b73ffffffffffffffffffffffffffffffffffffffff166000908152603f602052604090205490565b348015610c7457600080fd5b50610656610c8336600461668b565b602f60209081526000928352604080842090915290825290205481565b348015610cac57600080fd5b506106f1610cbb366004616614565b612f82565b348015610ccc57600080fd5b506106f1610cdb366004616a2b565b61379e565b348015610cec57600080fd5b5061065660175481565b348015610d0257600080fd5b50610656602c5481565b348015610d1857600080fd5b50601454610d399073ffffffffffffffffffffffffffffffffffffffff1681565b60405173ffffffffffffffffffffffffffffffffffffffff9091168152602001610660565b348015610d6a57600080fd5b5061065660215481565b348015610d8057600080fd5b50610656610d8f3660046167a8565b73ffffffffffffffffffffffffffffffffffffffff1660009081526009602052604090205490565b348015610dc357600080fd5b50610bb4610dd2366004616510565b603c6020908152600092835260408084209091529082529020805460019091015482565b348015610e0257600080fd5b506106f1610e11366004616672565b61394e565b348015610e2257600080fd5b506106c1610e31366004616a60565b613e00565b348015610e4257600080fd5b50610656600d5481565b348015610e5857600080fd5b50610656610e67366004616672565b60306020526000908152604090205481565b348015610e8557600080fd5b5061065660105481565b348015610e9b57600080fd5b50610656610eaa366004616672565b60296020526000908152604090205481565b348015610ec857600080fd5b5061065660115481565b348015610ede57600080fd5b5061065660125481565b348015610ef457600080fd5b50610f66610f03366004616a92565b603b602090815260009283526040808420909152908252902080546001820154600283015460038401546004850154600590950154939460ff8085169561010090950481169473ffffffffffffffffffffffffffffffffffffffff909316921687565b60408051978852951515602088015293151594860194909452606085019190915273ffffffffffffffffffffffffffffffffffffffff16608084015260a0830191909152151560c082015260e001610660565b348015610fc557600080fd5b50610694613e70565b348015610fda57600080fd5b50610656610fe93660046169bc565b604080516020808201939093523360601b7fffffffffffffffffffffffffffffffffffffffff00000000000000000000000016818301526054808201959095528151808203909501855260740190528251920191909120919050565b34801561105157600080fd5b50610656601e5481565b34801561106757600080fd5b5061065660335481565b34801561107d57600080fd5b506106c161108c366004616510565b613e7d565b34801561109d57600080fd5b506106f1613f3c565b3480156110b257600080fd5b506106f16110c136600461668b565b613ff5565b3480156110d257600080fd5b506106566110e1366004616a2b565b614111565b3480156110f257600080fd5b5061065660065481565b34801561110857600080fd5b50610656600e5481565b34801561111e57600080fd5b5061065660045481565b34801561113457600080fd5b506043546106c19060ff1681565b34801561114e57600080fd5b5061065660205481565b34801561116457600080fd5b506106c1611173366004616510565b614139565b34801561118457600080fd5b5061065661119336600461668b565b603860209081526000928352604080842090915290825290205481565b3480156111bc57600080fd5b506106566111cb3660046167a8565b60406020819052600091825290205481565b3480156111e957600080fd5b50610656600c5481565b3480156111ff57600080fd5b5061065660135481565b34801561121557600080fd5b5061065660285481565b34801561122b57600080fd5b5061065660055481565b34801561124157600080fd5b506106566112503660046167a8565b603f6020526000908152604090205481565b34801561126e57600080fd5b5061065660265481565b34801561128457600080fd5b506106f1614188565b34801561129957600080fd5b50610656600f5481565b3480156112af57600080fd5b506106566112be366004616abe565b73ffffffffffffffffffffffffffffffffffffffff9182166000908152600a6020908152604080832093909416825291909152205490565b34801561130257600080fd5b50610656611311366004616672565b603a6020526000908152604090205481565b34801561132f57600080fd5b5061065661133e366004616672565b60396020526000908152604090205481565b34801561135c57600080fd5b5061065660235481565b34801561137257600080fd5b506113c4611381366004616672565b6025602052600090815260409020805460018201546002830154600384015460048501546005860154600687015460079097015495969495939492939192909188565b604080519889526020890197909752958701949094526060860192909252608085015260a084015260c083015260e082015261010001610660565b34801561140b57600080fd5b506106f161141a366004616672565b61423d565b34801561142b57600080fd5b5061065661143a3660046167a8565b73ffffffffffffffffffffffffffffffffffffffff166000908152603d602052604090205490565b34801561146e57600080fd5b5061065660445481565b34801561148457600080fd5b506106f1611493366004616672565b614446565b3480156114a457600080fd5b506106566114b3366004616672565b60276020526000908152604090205481565b3480156114d157600080fd5b506106566114e03660046167a8565b60416020526000908152604090205481565b600080546114ff90616ae8565b80601f016020809104026020016040519081016040528092919081815260200182805461152b90616ae8565b80156115785780601f1061154d57610100808354040283529160200191611578565b820191906000526020600020905b81548152906001019060200180831161155b57829003601f168201915b505050505081565b3360009081526009602052604081205482111561159c57600080fd5b600082116115a957600080fd5b336000818152600a6020908152604080832073ffffffffffffffffffffffffffffffffffffffff881680855290835292819020869055518581529192917f8c5be1e5ebec7d5bd14f71427d1e84f3dd0314c0f7b2291e5b200ac8c7c3b92591015b60405180910390a35060015b92915050565b6000838333846040516020016116359493929190616b3b565b604080517fffffffffffffffffffffffffffffffffffffffffffffffffffffffffffffffe08184030181529181528151602092830120336000908152603c845282812082825290935291205490915061168d57600080fd5b60008481526031602052604090208054158015906116ae5750848160010154145b6116b757600080fd5b6000858152603460205260409020601c5460018201546116d691614daa565b42116116e157600080fd5b336000818152603c60209081526040808320878452825280832054938352604190915290205461171091614dc5565b336000908152604160209081526040808320939093556003850154825260259052908120601954909190611745904290614de5565b90506000611777600161177160195461176b601c54601b54614daa90919063ffffffff16565b90614de5565b90614daa565b60018401549091506117899082614daa565b82101561179557600080fd5b600088156117a1575060015b336000908152603c602090815260408083208a84529091528120546005870154602154601a549293926117ea926127109261176b926117e4916004918391614dfd565b90614dfd565b905060038088810154610100900460ff169081111561180b5761180b6168dc565b0361181557506044545b600387810154610100900460ff1690811115611833576118336168dc565b836003811115611845576118456168dc565b036118845761188161271061176b89600501546127116118659190616ba7565b6117e460026117e4602154601a54614dfd90919063ffffffff16565b90505b336000908152603c602090815260408083208c84529091528120546118b19060649061176b90600a614dfd565b90506126ac88600501541180156118f65750600388810154610100900460ff16908111156118e1576118e16168dc565b8460038111156118f3576118f36168dc565b14155b1561190957611906816002614dfd565b90505b60408051828152602081018f905233917f53ef86fe8b545e88c8078a71aa8a9be4140e6f140b4e36f0ffee9207cf1ee896910160405180910390a26008546119519082614daa565b600855336000908152603c602090815260408083208d84529091529020546119799082614dc5565b925060015b336000908152603f60205260409020548111611a7057336000908152603e60209081526040808320848452909152902054821015611a2657336000908152603e602090815260408083208484529091529020546119db9083614dc5565b336000818152603e60209081526040808320868452825280832094909455918152908290522054611a0c9083614dc5565b336000908152604060208190528120919091559150611a70565b336000908152603e60209081526040808320848452909152902054611a4c908390614dc5565b9150611a583382614e29565b8115611a705780611a6881616bba565b91505061197e565b508215611cb55760408051848152602081018f905290810183905233907fd93567a4d470fa277429086aae141410cccc35c73954734ea3e24152fc044f359060600160405180910390a260015b336000908152603f60205260409020548111611cb357336000908152603e602090815260408083208484529091529020548410611bc057336000908152603e60209081526040808320848452909152902060010154421015611b6457336000908152603e60209081526040808320848452909152902060010154611b419084614daa565b336000908152603e60209081526040808320858452909152902060010155611b8d565b611b6e4284614daa565b336000908152603e602090815260408083208584529091529020600101555b336000908152603e60209081526040808320848452909152902054611bb3908590614dc5565b93508315611cb357611ca1565b336000908152603e60209081526040808320848452909152812054611be59086614dc5565b336000908152603e60209081526040808320868452909152902060018101549087905590915042811115611c5e57336000908152603e60209081526040808320868452909152902060010154611c3b9086614daa565b336000908152603e60209081526040808320878452909152902060010155611c87565b611c684286614daa565b336000908152603e602090815260408083208784529091529020600101555b8115611c9a57611c98338383614f68565b505b5050611cb3565b80611cab81616bba565b915050611abd565b505b6001890154336000818152603c602090815260408083208f84528252918290205491519182527f3ededec39a86b2261e09be07993014ceae66346b9af09000ec0cc87fe2d8f9de910160405180910390a3336000908152603c602090815260408083208d845290915281208181556001015550505050505050505050505050565b6000611d4f601154601054614de590919063ffffffff16565b905090565b6012546040805160208101929092527fffffffffffffffffffffffffffffffffffffffff0000000000000000000000003360601b1690820152605481018390526000908190607401604051602081830303815290604052805190602001209050828114611dc057600080fd5b601154811115611dcf57600080fd5b60125460009081526016602052604090208054908290558015611df157600080fd5b600254611dff90600a616d12565b611e0c90621cd6d0616d1e565b6017541115611efc57600254611e2390600a616d12565b611e30906269be50616d1e565b60175410611e5857680184225822c46f7bf460135569028ef9f4baab7c212c78600555611efc565b600254611e6690600a616d12565b611e739062367950616d1e565b6017541015611e9c576801bb94f70329a3fb606013556901b4a6a3271cfd6b72b8600555611efc565b600254611eaa90600a616d12565b611eb79062501bd0616d1e565b6017541015611ee0576801bb94f70329a3fb606013556901b4a6a3271cfd6b72b8600555611efc565b6801bb94f70329a3fb606013556901b4a6a3271cfd6b72b86005555b601354601754611f0b91614daa565b6017819055600b5411611f2057611f20616d35565b601354600354611f2f91614daa565b60035560135433600090815260096020526040902054611f4e91614daa565b33600081815260096020526040902091909155601480547fffffffffffffffffffffffff000000000000000000000000000000000000000016909117905543601555611f98615008565b601354600d546012546040805193845260208401929092529082015233907fcf6fbb9dcea7d07263ab4f5c3a92f53af33dffc421d9d121e1c74b307e68189d9060600160405180910390a2601354604051908152339030907fddf252ad1be2c89b69c2b068fc378daa952ba7f163c4a11628f55a4df523b3ef9060200160405180910390a3506001949350505050565b6000868152602d6020526040902054158015906120555750602c546000878152602d602052604090205411155b61205e57600080fd5b6000868152602d60209081526040808320548352602b909152902054861461208557600080fd5b60365481111561209457600080fd5b600083876040516020016120a9929190616d64565b604080517fffffffffffffffffffffffffffffffffffffffffffffffffffffffffffffffe0818403018152918152815160209283012060008a815260309093529120549091506120fa906001614daa565b6000888152603060209081526040808320849055602f82528083209383529290522081905560335461212d906001614daa565b6033819055600090815260326020908152604080832084905583835260319091529020600101548015158061216f575060008281526031602052604090205415155b1561217957600080fd5b600061219060195442614de590919063ffffffff16565b600081815260296020526040812054919250036121af576121af6150a2565b60008381526031602090815260408083206033548155600281018d90558484526029909252909120546003820155600181018490556005810180547fffffffffffffffffffffffff000000000000000000000000000000000000000016331790556006810161221e8a82616dd6565b506007810161222d8982616dd6565b506009810161223c8882616dd6565b506008810161224b8782616dd6565b5060008481526034602052604081206003810180547fffffffffffffffffffffffffffffffffffffffffffffffffffffffffff00000016620102021790556004810182905560058101829055600681018290556007810182905560088101829055600981019190915542808255601b546122c59190614daa565b6001820155601f54600a820155601e54336000908152603d602052604090205410156122f057600080fd5b601e54336000908152603d602052604090205461230c91614dc5565b336000908152603d6020908152604080832093909355601e5460419091529190205461233791614daa565b33600081815260416020908152604080832094909455600186810154808452603b8352858420858552835285842090815590810180547fffffffffffffffffffffffffffffffffffffffffffffffffffffffffffff000016610101179055601e546002820155600380820180547fffffffffffffffffffffffff00000000000000000000000000000000000000001690951790945542600482015592850180547fffffffffffffffffffffffffffffffffffffffffffffffffffffffffffff00ff16610300179055898252603590529190912054801580159061242a57506000888152603560205260409020600101548d145b1561247b57600484018890556000888152603a6020526040902054612450906001614daa565b6000898152603a60209081526040808320849055600188015460388352818420948452939091529020555b6018546040805160208101929092528101889052606001604080518083037fffffffffffffffffffffffffffffffffffffffffffffffffffffffffffffffe001815290829052805160209182012060185560028601548983528a92909133917ff20f961bd89931f54768689d741307497501063bee5847fc3fcaa72b026d1859910160405180910390a450505050505050505050505050565b6000611d4f600854600354614dc590919063ffffffff16565b612710821161253b57600080fd5b336000908152603d602052604090205482111561255757600080fd5b336000908152603d60205260409020546125719083614dc5565b336000908152603d60209081526040808320939093556041905220546125979083614daa565b33600090815260416020908152604080832093909355603c8152828220848352905220546125c59083614daa565b336000908152603c60209081526040808320858452825291829020928355426001909301929092556018548151928301528101829052606001604080518083037fffffffffffffffffffffffffffffffffffffffffffffffffffffffffffffffe00181528282528051602091820120601855838352820184905233917f8a1ff244f8a72f76c71ce96c1ddf485af695058f9e3638a8359e74257d71a30691015b60405180910390a25050565b73ffffffffffffffffffffffffffffffffffffffff83166000908152600960205260408120546126a19083614dc5565b73ffffffffffffffffffffffffffffffffffffffff8516600090815260096020908152604080832093909355600a8152828220338352905220546126e59083614dc5565b73ffffffffffffffffffffffffffffffffffffffff8086166000908152600a602090815260408083203384528252808320949094559186168152600990915220546127309083614daa565b73ffffffffffffffffffffffffffffffffffffffff80851660008181526009602052604090819020939093559151908616907fddf252ad1be2c89b69c2b068fc378daa952ba7f163c4a11628f55a4df523b3ef906127919086815260200190565b60405180910390a35060019392505050565b60316020526000908152604090208054600182015460028301546003840154600485015460058601546006870180549697959694959394929373ffffffffffffffffffffffffffffffffffffffff909216926127fe90616ae8565b80601f016020809104026020016040519081016040528092919081815260200182805461282a90616ae8565b80156128775780601f1061284c57610100808354040283529160200191612877565b820191906000526020600020905b81548152906001019060200180831161285a57829003601f168201915b50505050509080600701805461288c90616ae8565b80601f01602080910402602001604051908101604052809291908181526020018280546128b890616ae8565b80156129055780601f106128da57610100808354040283529160200191612905565b820191906000526020600020905b8154815290600101906020018083116128e857829003601f168201915b50505050509080600801805461291a90616ae8565b80601f016020809104026020016040519081016040528092919081815260200182805461294690616ae8565b80156129935780601f1061296857610100808354040283529160200191612993565b820191906000526020600020905b81548152906001019060200180831161297657829003601f168201915b5050505050908060090180546129a890616ae8565b80601f01602080910402602001604051908101604052809291908181526020018280546129d490616ae8565b8015612a215780601f106129f657610100808354040283529160200191612a21565b820191906000526020600020905b815481529060010190602001808311612a0457829003601f168201915b505050505090508a565b6000838152602d602052604090205415801590612a585750602c546000848152602d602052604090205411155b612a6157600080fd5b6000838152602d60209081526040808320548352602b9091529020548314612a8857600080fd5b601d54600090612a99906014614de5565b33600090815260096020526040902054909150811115612ab857600080fd5b612ac23082613e7d565b50603654612ad1906001614daa565b603655600084815260396020526040902054612aee906001614daa565b600085815260396020908152604080832084815560365460378452828520958552948352818420859055815160a0810183528581528084018a81529154818401908152606082018a8152608083018a905296865260359094529190932081518155925160018401559051600283015591516003820190612b6e9082616dd6565b5060808201516004820190612b839082616dd6565b5050600854612b93915082614daa565b6008556036546040518591907fb733708a2586752275a4854aac54c7bb263ad67859f07d16147feea53ca009d790600090a350505050565b602b6020526000908152604090208054600182018054919291612bed90616ae8565b80601f0160208091040260200160405190810160405280929190818152602001828054612c1990616ae8565b8015612c665780601f10612c3b57610100808354040283529160200191612c66565b820191906000526020600020905b815481529060010190602001808311612c4957829003601f168201915b5050505050905082565b6000600b5460175411612c84575060135490565b50600090565b612c98426303c26700614daa565b8310612ca357600080fd5b60328111158015612cc35750336000908152603f60205260409020548111155b612ccc57600080fd5b6000806001805b848111612dcd57336000908152603f6020526040902054600211612dbb57336000908152603f60205260409020548111612d0f57809150612d2c565b612d198184614dc5565b91506001821015612d2c57612d2c616d35565b336000908152603e602090815260408083208584529091529020600101548710801590612d765750336000908152603e602090815260408083208584529091529020600101548611155b15612dbb57336000908152603e60209081526040808320858452909152902054612da1908590614daa565b9350612dad3383614e29565b612db8836001614daa565b92505b80612dc581616bba565b915050612cd3565b508215612de157612ddf338488615202565b505b604080518781526020810187905233917f52806950881c6df8cc206c3b151fcc9aea7b2d53d8ff441469dffd05e851e3ab910160405180910390a2505050505050565b60405180610100016040528060da8152602001616f7760da913981565b603560205260009081526040902080546001820154600283015460038401805493949293919291612e7190616ae8565b80601f0160208091040260200160405190810160405280929190818152602001828054612e9d90616ae8565b8015612eea5780601f10612ebf57610100808354040283529160200191612eea565b820191906000526020600020905b815481529060010190602001808311612ecd57829003601f168201915b505050505090806004018054612eff90616ae8565b80601f0160208091040260200160405190810160405280929190818152602001828054612f2b90616ae8565b8015612f785780601f10612f4d57610100808354040283529160200191612f78565b820191906000526020600020905b815481529060010190602001808311612f5b57829003601f168201915b5050505050905085565b600083833384604051602001612f9b9493929190616b3b565b604080517fffffffffffffffffffffffffffffffffffffffffffffffffffffffffffffffe08184030181529181528151602092830120336000908152603c8452828120828252909352912054909150612ff357600080fd5b60008481526031602052604090208054158015906130145750848160010154145b61301d57600080fd5b6000858152603460209081526040808320600180820154338652603c8552838620888752909452919093200154111561305557600080fd5b8060010154421180156130785750601c54600182015461307491614daa565b4211155b61308157600080fd5b6002600382810154610100900460ff16908111156130a1576130a16168dc565b036130ab57600080fd5b600881015460098201546003840154600090815260256020908152604080832060018801548452603b83528184203385529092529091205480151580613111575060018601546000908152603b6020908152604080832033845290915290206002015415155b1561311b57600080fd5b6000603b60008860010154815260200190815260200160002060003373ffffffffffffffffffffffffffffffffffffffff1673ffffffffffffffffffffffffffffffffffffffff168152602001908152602001600020905086600101548160000181905550898160010160006101000a81548160ff02191690831515021790555060008160010160016101000a81548160ff021916908315150217905550603c60003373ffffffffffffffffffffffffffffffffffffffff1673ffffffffffffffffffffffffffffffffffffffff1681526020019081526020016000206000898152602001908152602001600020600001548160020181905550338160030160006101000a81548173ffffffffffffffffffffffffffffffffffffffff021916908373ffffffffffffffffffffffffffffffffffffffff16021790555042816004018190555061327960018760040154614daa90919063ffffffff16565b6004870155336000908152603c602090815260408083208b8452909152812054670de0b6b3a764000011156132d557336000908152603c602090815260408083208c84529091529020546132ce906002614de5565b905061330b565b613308613305670a688906bd8b0000336000908152603c602090815260408083208f845290915290205490615320565b90565b90505b33600090815260426020908152604080832060018c0154845290915290208190558a1561334b5760068701546133419082614daa565b6006880155613360565b600787015461335a9082614daa565b60078801555b60008060006133808a600701548b60060154614daa90919063ffffffff16565b9050600061339d6127108c60060154614dfd90919063ffffffff16565b600a8c01549091506000906133b28385614de5565b11156133bd57600194505b600a8c01546133cc8385614de5565b036133d657600193505b60038c0180547fffffffffffffffffffffffffffffffffffffffffffffffffffffffffff00ffff16620100008615150217905584156134625761342b61271061176b858f600a01546127106117e49190616ba7565b905061344a8161176b6127108f60070154614dfd90919063ffffffff16565b905061345881612710616ba7565b60058d01556134b2565b61347f61271061176b8e600a015486614dfd90919063ffffffff16565b905061349e8161176b6127108f60060154614dfd90919063ffffffff16565b90506134ac81612710616ba7565b60058d01555b6127108c6005015411156134c557600080fd5b600085156134d1575060015b6003808e810154610100900460ff16908111156134f0576134f06168dc565b0361352f5785156135155760068a015461350b906001614daa565b60068b01556135cd565b60078a0154613525906001614daa565b60078b01556135cd565b60038d810154610100900460ff169081111561354d5761354d6168dc565b81600381111561355f5761355f6168dc565b146135cd576001816003811115613578576135786168dc565b036135a25760078a015461358d906001614dc5565b60078b015560068a015461350b906001614daa565b60068a01546135b2906001614dc5565b60068b015560078a01546135c7906001614daa565b60078b01555b84156136385760038d0180547fffffffffffffffffffffffffffffffffffffffffffffffffffffffffffff00ff169055600060088e0181905560098e015560028a015461361a908d614dc5565b60028b015560038a015461362e908c614dc5565b60038b015561371c565b85156136b15760038d0180547fffffffffffffffffffffffffffffffffffffffffffffffffffffffffffff00ff1661010017905560068d015460088e0181905560098e0181905560028b01546136939190611771908f614dc5565b60028b015560098d015460038b015461362e9190611771908e614dc5565b60038d0180547fffffffffffffffffffffffffffffffffffffffffffffffffffffffffffff00ff16905560078d015460088e01819055600060098f015560028b01546137029190611771908f614dc5565b60028b015560038a0154613716908c614dc5565b60038b01555b60018e0154600289015460405190815233907f4627acd8194d77d62502e6eb464100f9c2d8a487c62a6fd54048d3d8f1cb5c519060200160405180910390a361378a8f336000908152603c602090815260408083208484528083529083208381559383529052600190910155565b505050505050505050505050505050505050565b60408051600081526020810180835281519020916137be91849101616ef0565b60405160208183030381529060405280519060200120036137de57600080fd5b601d543360009081526009602052604090205410156137fc57600080fd5b61380830601d54613e7d565b50601d5460085461381891614daa565b60085560405160009061382f9083906020016164d4565b60405160208183030381529060405280519060200120905061385d6001602c54614daa90919063ffffffff16565b602c556000818152602d60205260409020541561387957600080fd5b602e826040516138899190616ef0565b90815260405190819003602001902054156138a357600080fd5b6040805180820182528281526020808201858152602c546000908152602b90925292902081518155915190919060018201906138df9082616dd6565b5050602c546000838152602d6020526040908190209190915551829150602e9061390a908590616ef0565b908152602001604051809103902081905550602c547f830578780908e1ff0fbde38777892998c31b30c39451a5a3b0e99cbf7bd781df8360405161266591906164d4565b336000908152603c6020908152604080832084845290915290205461397257600080fd5b336000818152603c6020908152604080832085845282528083205493835260419091529020546139a191614dc5565b33600090815260416020908152604080832093909355603c815282822084835290529081205460445490916139dc606461176b856015614dfd565b604080518281526000602082015291925033917f53ef86fe8b545e88c8078a71aa8a9be4140e6f140b4e36f0ffee9207cf1ee896910160405180910390a2600854613a279082614daa565b600855336000908152603c60209081526040808320878452909152902054613a4f9082614dc5565b925060015b336000908152603f60205260409020548111613b4657336000908152603e60209081526040808320848452909152902054821015613afc57336000908152603e60209081526040808320848452909152902054613ab19083614dc5565b336000818152603e60209081526040808320868452825280832094909455918152908290522054613ae29083614dc5565b336000908152604060208190528120919091559150613b46565b336000908152603e60209081526040808320848452909152902054613b22908390614dc5565b9150613b2e3382614e29565b8115613b465780613b3e81616bba565b915050613a54565b508215613d8b57604080518481526000602082015290810183905233907fd93567a4d470fa277429086aae141410cccc35c73954734ea3e24152fc044f359060600160405180910390a260015b336000908152603f60205260409020548111613d8957336000908152603e602090815260408083208484529091529020548410613c9657336000908152603e60209081526040808320848452909152902060010154421015613c3a57336000908152603e60209081526040808320848452909152902060010154613c179084614daa565b336000908152603e60209081526040808320858452909152902060010155613c63565b613c444284614daa565b336000908152603e602090815260408083208584529091529020600101555b336000908152603e60209081526040808320848452909152902054613c89908590614dc5565b93508315613d8957613d77565b336000908152603e60209081526040808320848452909152812054613cbb9086614dc5565b336000908152603e60209081526040808320868452909152902060018101549087905590915042811115613d3457336000908152603e60209081526040808320868452909152902060010154613d119086614daa565b336000908152603e60209081526040808320878452909152902060010155613d5d565b613d3e4286614daa565b336000908152603e602090815260408083208784529091529020600101555b8115613d7057613d6e338383614f68565b505b5050613d89565b80613d8181616bba565b915050613b93565b505b336000818152603c6020908152604080832088845282528083205490519081529192917f3ededec39a86b2261e09be07993014ceae66346b9af09000ec0cc87fe2d8f9de910160405180910390a3336000908152603c6020908152604080832087845290915281208181556001015550505050565b6040805160208082018590523360601b7fffffffffffffffffffffffffffffffffffffffff00000000000000000000000016828401526054808301889052835180840390910181526074909201909252805191012060009082811115613e6557600080fd5b909314949350505050565b600180546114ff90616ae8565b6000808211613e8b57600080fd5b33600090815260096020526040902054613ea59083614dc5565b336000908152600960205260408082209290925573ffffffffffffffffffffffffffffffffffffffff851681522054613ede9083614daa565b73ffffffffffffffffffffffffffffffffffffffff84166000818152600960205260409081902092909255905133907fddf252ad1be2c89b69c2b068fc378daa952ba7f163c4a11628f55a4df523b3ef9061160a9086815260200190565b600254613f4a90600a616d12565b613f58906301406f40616d1e565b6003541015613f6657600080fd5b6034602654613f759190616f3b565b15613f7f57600080fd5b6000613fa46509184e72a00061176b6302d69be6600354614dfd90919063ffffffff16565b90506000613fcb655af3107a400061176b6302d69be6600354614dfd90919063ffffffff16565b601e819055601d83905560265460245491925011613feb57613feb616d35565b5050602654602455565b6000811161400257600080fd5b6000821180156140215750336000908152603f60205260409020548211155b61402a57600080fd5b336000908152603e6020908152604080832085845290915290208054821061405157600080fd5b80546000906140609084614dc5565b838355336000908152603f6020526040902054909150614081906001614daa565b336000818152603f6020908152604080832085905580518082018252868152600180890154828501908152958552603e845282852096855295909252909120905181559051910155806140d6576140d6616d35565b60405183815233907f5bbe98d566948f7d7db717dafb0a14082df525118fac86c23df2302f161c03479060200160405180910390a250505050565b6000602e826040516141239190616ef0565b9081526020016040518091039020549050919050565b60003373ffffffffffffffffffffffffffffffffffffffff84161461415d57600080fd5b6000821161416a57600080fd5b6141743083613e7d565b5061417f8383615432565b50600192915050565b60435460ff161561419857600080fd5b6002546141a690600a616d12565b6141b1906064616d1e565b601e556090600e556002546141c790600a616d12565b6141d49062f05370616d1e565b600b556141df61549a565b6010546011546141f190610100614dfd565b116142095760115461420590610100614dfd565b6011555b62127500604455604380547fffffffffffffffffffffffffffffffffffffffffffffffffffffffffffffff00166001179055565b60008111801561425c5750336000908152603f60205260409020548111155b61426557600080fd5b336000908152603e6020908152604080832084845290915290206001810154421161428f57600080fd5b3360009081526041602090815260408083205491819052909120546142b391614dc5565b815411156142c057600080fd5b336000908152603d60209081526040808320548454928290529220546142e591614dc5565b101561437357336000908152604160209081526040808320548454928290529083205461431c926143169190614dc5565b90614dc5565b1115614362573360009081526041602090815260408083205484549282905292205461434d92916143169190614dc5565b336000908152603d6020526040902055614373565b336000908152603d60205260408120555b80543060009081526009602052604090205461438e91614dc5565b30600090815260096020526040808220929092558254338252919020546143b491614daa565b336000818152600960209081526040918290209390935583549051908152909130917fddf252ad1be2c89b69c2b068fc378daa952ba7f163c4a11628f55a4df523b3ef910160405180910390a3805460405190815233907f2aeea59856f5616c244717fd488ead1d1b5fd33608d9583a4607b4c4ba3631e49060200160405180910390a26144423383614e29565b5050565b60008181526031602052604090208054158015906144675750818160010154145b61447057600080fd5b6000828152603460205260409020601c54600182015461448f91614daa565b421161449a57600080fd5b60018201546000908152603b602090815260408083203384529091529020805484146144c557600080fd5b600581015460ff16156144d757600080fd5b6005810180547fffffffffffffffffffffffffffffffffffffffffffffffffffffffffffffff0016600117905560028101543360009081526041602052604090205461452291614dc5565b336000908152604160209081526040808320939093556003860154825260259052908120601954909190614557904290614de5565b9050600061457d600161177160195461176b601c54601b54614daa90919063ffffffff16565b600184015490915061458f9082614daa565b82101561459b57600080fd5b600260038087015460ff16908111156145b6576145b66168dc565b03614644576001600386810154610100900460ff16908111156145db576145db6168dc565b03614612576003850180547fffffffffffffffffffffffffffffffffffffffffffffffffffffffffffffff0016600117905561463d565b6003850180547fffffffffffffffffffffffffffffffffffffffffffffffffffffffffffffff001690555b4260028601555b600385015462010000900460ff16614d1c57600184015460009060ff161561466a575060015b60038087015460ff1690811115614683576146836168dc565b816003811115614695576146956168dc565b14614b0f5760008560020154905060006146ca61271061176b8a600501546117e4602154601a54614dfd90919063ffffffff16565b6001880154909150610100900460ff16156146f0576022546146ed908290614dfd565b90505b612328886005015411156148c257600061471d606461176b60038b60020154614dfd90919063ffffffff16565b90506126ac8960050154111561474d5761474a606461176b60078b60020154614dfd90919063ffffffff16565b90505b6001880154610100900460ff1615614766575060028701545b875460405133917f53ef86fe8b545e88c8078a71aa8a9be4140e6f140b4e36f0ffee9207cf1ee896916147a191858252602082015260400190565b60405180910390a26008546147b69082614daa565b60085560028801546147c89082614dc5565b925060015b336000908152603f602052604090205481116148bf57336000908152603e6020908152604080832084845290915290205482101561487557336000908152603e6020908152604080832084845290915290205461482a9083614dc5565b336000818152603e6020908152604080832086845282528083209490945591815290829052205461485b9083614dc5565b3360009081526040602081905281209190915591506148bf565b336000908152603e6020908152604080832084845290915290205461489b908390614dc5565b91506148a73382614e29565b81156148bf57806148b781616bba565b9150506147cd565b50505b8115614b08578654604080518481526020810192909252810182905233907fd93567a4d470fa277429086aae141410cccc35c73954734ea3e24152fc044f359060600160405180910390a260015b336000908152603f60205260409020548111614b0657336000908152603e602090815260408083208484529091529020548310614a1357336000908152603e602090815260408083208484529091529020600101544210156149b757336000908152603e602090815260408083208484529091529020600101546149949083614daa565b336000908152603e602090815260408083208584529091529020600101556149e0565b6149c14283614daa565b336000908152603e602090815260408083208584529091529020600101555b336000908152603e60209081526040808320848452909152902054614a06908490614dc5565b92508215614b0657614af4565b336000908152603e60209081526040808320848452909152812054614a389085614dc5565b336000908152603e60209081526040808320868452909152902060018101549086905590915042811115614ab157336000908152603e60209081526040808320868452909152902060010154614a8e9085614daa565b336000908152603e60209081526040808320878452909152902060010155614ada565b614abb4285614daa565b336000908152603e602090815260408083208784529091529020600101555b8115614aed57614aeb338383614f68565b505b5050614b06565b80614afe81616bba565b915050614910565b505b5050614d1a565b600080856002015411614b2157600080fd5b6001860154610100900460ff16614bc1573360009081526042602090815260408083208c845290915290205415614b9857600285015460048601543360009081526042602090815260408083208e8452909152902054614b9192614b8a92909161176b91614dfd565b8290614daa565b9050614bc1565b614bbe614b8a866002015461176b88600401548a60020154614dfd90919063ffffffff16565b90505b6001860154610100900460ff168015614bf25750600160038089015460ff1690811115614bf057614bf06168dc565b145b15614c31576000856003015411614c0857600080fd5b614c2e614b8a866003015461176b88600501548b60090154614dfd90919063ffffffff16565b90505b60058501546004860154614c4491614daa565b811115614c5057600080fd5b30600090815260096020526040902054614c6a9082614dc5565b30600090815260096020526040808220929092553381522054614c8d9082614daa565b336000818152600960205260409081902092909255905130907fddf252ad1be2c89b69c2b068fc378daa952ba7f163c4a11628f55a4df523b3ef90614cd59085815260200190565b60405180910390a360408051828152602081018b905233917fe413caa6d70a6d9b51c2af2575a2914490f614355049af8ae7cde5caab9fd201910160405180910390a2505b505b3360009081526042602090815260408083208a845290915290205415614d58573360009081526042602090815260408083208a84529091528120555b600385015462010000900460ff1615614da15760405187815233907f3e0648214287dbba314854c056353ff9db951ab8f6459ea7c7f922025ba9fdfe9060200160405180910390a25b50505050505050565b6000614db68284616f4f565b90508281101561161657600080fd5b600082821115614dd457600080fd5b614dde8284616ba7565b9392505050565b6000808211614df357600080fd5b614dde8284616f62565b6000614e098284616d1e565b9050821580614e20575081614e1e8483616f62565b145b61161657600080fd5b600081118015614e5e575073ffffffffffffffffffffffffffffffffffffffff82166000908152603f60205260409020548111155b614e6757600080fd5b73ffffffffffffffffffffffffffffffffffffffff82166000818152603e6020908152604080832085845282528083205493835290819052902054614eab91614dc5565b73ffffffffffffffffffffffffffffffffffffffff831660008181526040602081815281832094909455603e8452808220603f808652828420805485528287528385208886528486208154815560019182015490820155845180860186528681528089018781528354885294895294862094518555925193830193909355939092529190925254614f3b91614dc5565b73ffffffffffffffffffffffffffffffffffffffff9092166000908152603f602052604090209190915550565b6000808311614f7657600080fd5b73ffffffffffffffffffffffffffffffffffffffff84166000908152603f6020526040902054614fa7906001614daa565b73ffffffffffffffffffffffffffffffffffffffff949094166000818152603f6020908152604080832088905580518082018252968752868201958652928252603e8152828220968252959095529093209151825551600191820155919050565b600d54615016906001614daa565b600d819055600e5461502791616f3b565b6000036150365761503661549a565b615041436001614dc5565b406012819055601854600d546040805160208101949094528301919091526060820152608001604080517fffffffffffffffffffffffffffffffffffffffffffffffffffffffffffffffe08184030181529190528051602090910120601255565b60006150b960195442614de590919063ffffffff16565b60008181526029602052604090205490915080156150d657600080fd5b6026546150e4906001614daa565b6026818155604080516101008101825283815260208082018781526000838501818152606085018281526080860183815260a0870184815260c0880185815260e089018681529b8652602588528986209851895595516001808a0191909155935160028901559151600388015551600487015551600586015591516006850155955160079093019290925592548685526029909352922055602a5461518891614daa565b602a55602654615197906155d2565b506020546026546151a9906001614dc5565b6151b39190616f3b565b1580156151c257506001602654115b156151cf576151cf615739565b6026546040518381527ff74223d764da704d974281758065d2eb6c9066dc940e3f549b72e894b0404aef90602001612665565b600080831161521057600080fd5b73ffffffffffffffffffffffffffffffffffffffff84166000908152603f6020526040902054615241906001614daa565b73ffffffffffffffffffffffffffffffffffffffff85166000908152603f6020908152604080832093909355829052205461527c9084614daa565b73ffffffffffffffffffffffffffffffffffffffff85166000818152604060208181528183209490945580518082018252878152808501878152848452603e8652828420603f87528385205485529095529181902091518255925160019091015590517f42e99fbad9601d25ee3bb515eeee966f97c3c383adadbe5720f651df8c18989d9061530e9086815260200190565b60405180910390a25060019392505050565b6000828281830361534b578015615338576000615342565b670de0b6b3a76400005b92505050611616565b670de0b6b3a7640000820361536c57670de0b6b3a764000092505050611616565b8060000361538657670de0b6b3a764000092505050611616565b670de0b6b3a7640000810361539f578492505050611616565b670de0b6b3a76400008211156153d0576153c96153c46153be876158b6565b86615a21565b615a30565b925061542a565b60006153ee613305846ec097ce7bc90715b34b9f1000000000616f62565b905060006154076153c4615401846158b6565b88615a21565b9050615425613305826ec097ce7bc90715b34b9f1000000000616f62565b945050505b505092915050565b61543c8282615aa7565b5073ffffffffffffffffffffffffffffffffffffffff82166000908152603d602052604090205461546d9082614daa565b73ffffffffffffffffffffffffffffffffffffffff9092166000908152603d602052604090209190915550565b601154600c546000906154ae904290614dc5565b905060006154c9610258600e54614dfd90919063ffffffff16565b90508082101561553d5760006154e58361176b846103e8614dfd565b9050610fa08111156154f65750610fa05b6155118161176b6103e8601154614dfd90919063ffffffff16565b60115561551f846004614de5565b601154101561553757615533846004614de5565b6011555b506155a3565b600061554f8261176b856103e8614dfd565b9050610fa08111156155605750610fa05b61557b6103e861176b83601154614dfd90919063ffffffff16565b601155615589846004614dfd565b60115411156155a15761559d846004614dfd565b6011555b505b42600c55600f5460115410156155ba57600f546011555b60105460115411156155cd576010546011555b505050565b600080602654116155e257600080fd5b6000821180156155f457506026548211155b6155fd57600080fd5b6000828152602560205260408120805490910361561957600080fd5b8054600090815260276020526040902054801561563557600080fd5b6000600254600a6156469190616d12565b615654906301406f40616d1e565b6003541061568b576156846c7e37be2022c0914b268000000061176b600454600354614dfd90919063ffffffff16565b9050615690565b506005545b6156ae64174876e80061176b60065484614dfd90919063ffffffff16565b60048401556007546156cc9064174876e8009061176b908490614dfd565b60058401556003546156de9082614daa565b600355306000908152600960205260409020546156fb9082614daa565b3060009081526009602090815260408083209390935585548252602790522081905560285461572b906001614daa565b602855506001949350505050565b600080600080615756602054602654614dc590919063ffffffff16565b90505b602654615767906001614dc5565b81116157be5760008181526025602052604090206006015461578a908490614daa565b6000828152602560205260409020600701549093506157aa908390614daa565b9150806157b681616bba565b915050615759565b506157c98282614daa565b6000036157da5761138892506157f6565b6157f36157e78383614daa565b61176b84612710614dfd565b92505b602354831015615848576023546000906158109085614dc5565b905061583f61583661271061176b846117e4611194601f54614dc590919063ffffffff16565b601f5490614dc5565b601f555061588c565b600061585f60235485614dc590919063ffffffff16565b905061588761587e61271061176b84601f546127106117e49190616ba7565b601f5490614daa565b601f55505b611194601f54101561589f57611194601f555b6126ac601f5411156155cd576126ac601f55505050565b600081670de0b6b3a7640000811015615903576040517f36d32ef0000000000000000000000000000000000000000000000000000000008152600481018490526024015b60405180910390fd5b600061598f670de0b6b3a7640000830460016fffffffffffffffffffffffffffffffff821160071b91821c67ffffffffffffffff811160061b90811c63ffffffff811160051b90811c61ffff811160041b90811c60ff8111600390811b91821c600f811160021b90811c918211871b91821c969096119490961792909217171791909117919091171790565b9050670de0b6b3a7640000810282821c7ffffffffffffffffffffffffffffffffffffffffffffffffff21f494c589c000081016159d257815b9695505050505050565b671bc16d674ec800006706f05b59d3b200005b8015615a1557670de0b6b3a7640000838002049250818310615a0d579283019260019290921c915b60011c6159e5565b50919695505050505050565b6000614dde6133058484615beb565b600081680a688906bd8affffff811115615a79576040517fb3b6ba1f000000000000000000000000000000000000000000000000000000008152600481018490526024016158fa565b6000615a91670de0b6b3a7640000604084901b616f62565b9050615a9f61330582615cf2565b949350505050565b6000808211615ab557600080fd5b73ffffffffffffffffffffffffffffffffffffffff83166000908152603f6020526040902054615ae6906001614daa565b73ffffffffffffffffffffffffffffffffffffffff84166000908152603f60209081526040808320939093558290522054615b219083614daa565b73ffffffffffffffffffffffffffffffffffffffff8416600090815260406020819052812091909155601a54615b58904290614daa565b604080518082018252858152602080820184815273ffffffffffffffffffffffffffffffffffffffff89166000818152603e8452858120603f855286822054825284528590209351845590516001909301929092559151868152929350917f42e99fbad9601d25ee3bb515eeee966f97c3c383adadbe5720f651df8c18989d910160405180910390a25060019392505050565b600080807fffffffffffffffffffffffffffffffffffffffffffffffffffffffffffffffff84860984860292508281108382030391505080600003615c3d5750670de0b6b3a764000090049050611616565b670de0b6b3a76400008110615c88576040517f5173648d00000000000000000000000000000000000000000000000000000000815260048101869052602481018590526044016158fa565b6000670de0b6b3a7640000858709620400008185030493109091037d40000000000000000000000000000000000000000000000000000000000002919091177faccb18165bd6fe31ae1cf318dc5b51eee0e1ba569b88cd74c1773b91fac106690291505092915050565b7780000000000000000000000000000000000000000000000067ff00000000000000821615615e1357678000000000000000821615615d3a5768016a09e667f3bcc9090260401c5b674000000000000000821615615d59576801306fe0a31b7152df0260401c5b672000000000000000821615615d78576801172b83c7d517adce0260401c5b671000000000000000821615615d975768010b5586cf9890f62a0260401c5b670800000000000000821615615db6576801059b0d31585743ae0260401c5b670400000000000000821615615dd557680102c9a3e778060ee70260401c5b670200000000000000821615615df45768010163da9fb33356d80260401c5b670100000000000000821615615e1357680100b1afa5abcbed610260401c5b66ff000000000000821615615f12576680000000000000821615615e405768010058c86da1c09ea20260401c5b6640000000000000821615615e5e576801002c605e2e8cec500260401c5b6620000000000000821615615e7c57680100162f3904051fa10260401c5b6610000000000000821615615e9a576801000b175effdc76ba0260401c5b6608000000000000821615615eb857680100058ba01fb9f96d0260401c5b6604000000000000821615615ed65768010002c5cc37da94920260401c5b6602000000000000821615615ef4576801000162e525ee05470260401c5b6601000000000000821615615f125768010000b17255775c040260401c5b65ff00000000008216156160085765800000000000821615615f3d576801000058b91b5bc9ae0260401c5b65400000000000821615615f5a57680100002c5c89d5ec6d0260401c5b65200000000000821615615f775768010000162e43f4f8310260401c5b65100000000000821615615f9457680100000b1721bcfc9a0260401c5b65080000000000821615615fb15768010000058b90cf1e6e0260401c5b65040000000000821615615fce576801000002c5c863b73f0260401c5b65020000000000821615615feb57680100000162e430e5a20260401c5b65010000000000821615616008576801000000b1721835510260401c5b64ff000000008216156160f55764800000000082161561603157680100000058b90c0b490260401c5b64400000000082161561604d5768010000002c5c8601cc0260401c5b642000000000821615616069576801000000162e42fff00260401c5b6410000000008216156160855768010000000b17217fbb0260401c5b6408000000008216156160a1576801000000058b90bfce0260401c5b6404000000008216156160bd57680100000002c5c85fe30260401c5b6402000000008216156160d95768010000000162e42ff10260401c5b6401000000008216156160f557680100000000b17217f80260401c5b63ff0000008216156161d957638000000082161561611c5768010000000058b90bfc0260401c5b6340000000821615616137576801000000002c5c85fe0260401c5b632000000082161561615257680100000000162e42ff0260401c5b631000000082161561616d576801000000000b17217f0260401c5b630800000082161561618857680100000000058b90c00260401c5b63040000008216156161a35768010000000002c5c8600260401c5b63020000008216156161be576801000000000162e4300260401c5b63010000008216156161d95768010000000000b172180260401c5b62ff00008216156162b457628000008216156161fe576801000000000058b90c0260401c5b6240000082161561621857680100000000002c5c860260401c5b622000008216156162325768010000000000162e430260401c5b6210000082161561624c57680100000000000b17210260401c5b620800008216156162665768010000000000058b910260401c5b62040000821615616280576801000000000002c5c80260401c5b6202000082161561629a57680100000000000162e40260401c5b620100008216156162b4576801000000000000b1720260401c5b61ff00821615616386576180008216156162d757680100000000000058b90260401c5b6140008216156162f05768010000000000002c5d0260401c5b612000821615616309576801000000000000162e0260401c5b6110008216156163225768010000000000000b170260401c5b61080082161561633b576801000000000000058c0260401c5b61040082161561635457680100000000000002c60260401c5b61020082161561636d57680100000000000001630260401c5b61010082161561638657680100000000000000b10260401c5b60ff82161561644f5760808216156163a757680100000000000000590260401c5b60408216156163bf576801000000000000002c0260401c5b60208216156163d757680100000000000000160260401c5b60108216156163ef576801000000000000000b0260401c5b600882161561640757680100000000000000060260401c5b600482161561641f57680100000000000000030260401c5b600282161561643757680100000000000000010260401c5b600182161561644f57680100000000000000010260401c5b670de0b6b3a76400000260409190911c60bf031c90565b60005b83811015616481578181015183820152602001616469565b50506000910152565b600081518084526164a2816020860160208601616466565b601f017fffffffffffffffffffffffffffffffffffffffffffffffffffffffffffffffe0169290920160200192915050565b602081526000614dde602083018461648a565b803573ffffffffffffffffffffffffffffffffffffffff8116811461650b57600080fd5b919050565b6000806040838503121561652357600080fd5b61652c836164e7565b946020939093013593505050565b7f4e487b7100000000000000000000000000000000000000000000000000000000600052604160045260246000fd5b600082601f83011261657a57600080fd5b813567ffffffffffffffff808211156165955761659561653a565b604051601f83017fffffffffffffffffffffffffffffffffffffffffffffffffffffffffffffffe0908116603f011681019082821181831017156165db576165db61653a565b816040528381528660208588010111156165f457600080fd5b836020870160208301376000602085830101528094505050505092915050565b60008060006060848603121561662957600080fd5b833592506020840135801515811461664057600080fd5b9150604084013567ffffffffffffffff81111561665c57600080fd5b61666886828701616569565b9150509250925092565b60006020828403121561668457600080fd5b5035919050565b6000806040838503121561669e57600080fd5b50508035926020909101359150565b60008060008060008060c087890312156166c657600080fd5b86359550602087013567ffffffffffffffff808211156166e557600080fd5b6166f18a838b01616569565b9650604089013591508082111561670757600080fd5b6167138a838b01616569565b9550606089013591508082111561672957600080fd5b6167358a838b01616569565b9450608089013591508082111561674b57600080fd5b5061675889828a01616569565b92505060a087013590509295509295509295565b60008060006060848603121561678157600080fd5b61678a846164e7565b9250616798602085016164e7565b9150604084013590509250925092565b6000602082840312156167ba57600080fd5b614dde826164e7565b60006101408c83528b60208401528a604084015289606084015288608084015273ffffffffffffffffffffffffffffffffffffffff881660a08401528060c08401526168118184018861648a565b905082810360e0840152616825818761648a565b905082810361010084015261683a818661648a565b905082810361012084015261684f818561648a565b9d9c50505050505050505050505050565b60008060006060848603121561687557600080fd5b83359250602084013567ffffffffffffffff8082111561689457600080fd5b6168a087838801616569565b935060408601359150808211156168b657600080fd5b5061666886828701616569565b828152604060208201526000615a9f604083018461648a565b7f4e487b7100000000000000000000000000000000000000000000000000000000600052602160045260246000fd5b60048110616942577f4e487b7100000000000000000000000000000000000000000000000000000000600052602160045260246000fd5b9052565b8d8152602081018d9052604081018c90526101a08101616969606083018d61690b565b616976608083018c61690b565b98151560a082015260c081019790975260e08701959095526101008601939093526101208501919091526101408401526101608301526101809091015295945050505050565b6000806000606084860312156169d157600080fd5b505081359360208301359350604090920135919050565b85815284602082015283604082015260a060608201526000616a0d60a083018561648a565b8281036080840152616a1f818561648a565b98975050505050505050565b600060208284031215616a3d57600080fd5b813567ffffffffffffffff811115616a5457600080fd5b615a9f84828501616569565b60008060008060808587031215616a7657600080fd5b5050823594602084013594506040840135936060013592509050565b60008060408385031215616aa557600080fd5b82359150616ab5602084016164e7565b90509250929050565b60008060408385031215616ad157600080fd5b616ada836164e7565b9150616ab5602084016164e7565b600181811c90821680616afc57607f821691505b602082108103616b35577f4e487b7100000000000000000000000000000000000000000000000000000000600052602260045260246000fd5b50919050565b848152831515602082015273ffffffffffffffffffffffffffffffffffffffff831660408201526080606082015260006159c8608083018461648a565b7f4e487b7100000000000000000000000000000000000000000000000000000000600052601160045260246000fd5b8181038181111561161657611616616b78565b60007fffffffffffffffffffffffffffffffffffffffffffffffffffffffffffffffff8203616beb57616beb616b78565b5060010190565b600181815b80851115616c4b57817fffffffffffffffffffffffffffffffffffffffffffffffffffffffffffffffff04821115616c3157616c31616b78565b80851615616c3e57918102915b93841c9390800290616bf7565b509250929050565b600082616c6257506001611616565b81616c6f57506000611616565b8160018114616c855760028114616c8f57616cab565b6001915050611616565b60ff841115616ca057616ca0616b78565b50506001821b611616565b5060208310610133831016604e8410600b8410161715616cce575081810a611616565b616cd88383616bf2565b807fffffffffffffffffffffffffffffffffffffffffffffffffffffffffffffffff04821115616d0a57616d0a616b78565b029392505050565b6000614dde8383616c53565b808202811582820484141761161657611616616b78565b7f4e487b7100000000000000000000000000000000000000000000000000000000600052600160045260246000fd5b604081526000616d77604083018561648a565b90508260208301529392505050565b601f8211156155cd576000816000526020600020601f850160051c81016020861015616daf5750805b601f850160051c820191505b81811015616dce57828155600101616dbb565b505050505050565b815167ffffffffffffffff811115616df057616df061653a565b616e0481616dfe8454616ae8565b84616d86565b602080601f831160018114616e575760008415616e215750858301515b7fffffffffffffffffffffffffffffffffffffffffffffffffffffffffffffffff600386901b1c1916600185901b178555616dce565b6000858152602081207fffffffffffffffffffffffffffffffffffffffffffffffffffffffffffffffe08616915b82811015616ea457888601518255948401946001909101908401616e85565b5085821015616ee057878501517fffffffffffffffffffffffffffffffffffffffffffffffffffffffffffffffff600388901b60f8161c191681555b5050505050600190811b01905550565b60008251616f02818460208701616466565b9190910192915050565b7f4e487b7100000000000000000000000000000000000000000000000000000000600052601260045260246000fd5b600082616f4a57616f4a616f0c565b500690565b8082018082111561161657611616616b78565b600082616f7157616f71616f0c565b50049056fe446973636f766572696e67206f7572206265737420467574757265732e204e6f20496e74656c6c65637475616c2050726f70657274792c20416c6c2070726f706f73616c7320617265206d61646520756e64657220746865206c6963656e736520437265617469766520436f6d6d6f6e73204174747269627574696f6e20342e3020496e7465726e6174696f6e616c2028434320425920342e30292e205468697320736d61727420636f6e74726163742069732072756e6e696e67204d65746963756c6f75732048617264666f726b2c2045746963612076322ea2646970667358221220d5ba5a08031acb3fa93b97e99c08f097097b5011be6ce96c7276d29e7ca653a364736f6c63430008160033",
  "linkReferences": {},
  "deployedLinkReferences": {}
}